{
	"contracts/Fund_ido.sol": {
		"IDO": {
			"abi": [
				{
					"inputs": [
						{
							"internalType": "uint256",
							"name": "_startDateTime",
							"type": "uint256"
						},
						{
							"internalType": "uint256",
							"name": "_endDateTime",
							"type": "uint256"
						},
						{
							"internalType": "uint256",
							"name": "_cap",
							"type": "uint256"
						},
						{
							"internalType": "address[]",
							"name": "_whitelist",
							"type": "address[]"
						},
						{
							"internalType": "address payable",
							"name": "_owner",
							"type": "address"
						},
						{
							"internalType": "address",
							"name": "_routerAddress",
							"type": "address"
						}
					],
					"stateMutability": "nonpayable",
					"type": "constructor"
				},
				{
					"anonymous": false,
					"inputs": [
						{
							"indexed": true,
							"internalType": "address",
							"name": "previousOwner",
							"type": "address"
						},
						{
							"indexed": true,
							"internalType": "address",
							"name": "newOwner",
							"type": "address"
						}
					],
					"name": "OwnershipTransferred",
					"type": "event"
				},
				{
					"inputs": [],
					"name": "cap",
					"outputs": [
						{
							"internalType": "uint256",
							"name": "",
							"type": "uint256"
						}
					],
					"stateMutability": "view",
					"type": "function"
				},
				{
					"inputs": [
						{
							"internalType": "address",
							"name": "",
							"type": "address"
						}
					],
					"name": "contributions",
					"outputs": [
						{
							"internalType": "uint256",
							"name": "",
							"type": "uint256"
						}
					],
					"stateMutability": "view",
					"type": "function"
				},
				{
					"inputs": [],
					"name": "endDateTime",
					"outputs": [
						{
							"internalType": "uint256",
							"name": "",
							"type": "uint256"
						}
					],
					"stateMutability": "view",
					"type": "function"
				},
				{
					"inputs": [],
					"name": "fundIDO",
					"outputs": [],
					"stateMutability": "payable",
					"type": "function"
				},
				{
					"inputs": [],
					"name": "owner",
					"outputs": [
						{
							"internalType": "address",
							"name": "",
							"type": "address"
						}
					],
					"stateMutability": "view",
					"type": "function"
				},
				{
					"inputs": [],
					"name": "renounceOwnership",
					"outputs": [],
					"stateMutability": "nonpayable",
					"type": "function"
				},
				{
					"inputs": [],
					"name": "router",
					"outputs": [
						{
							"internalType": "contract IUniswapV2Router02",
							"name": "",
							"type": "address"
						}
					],
					"stateMutability": "view",
					"type": "function"
				},
				{
					"inputs": [],
					"name": "startDateTime",
					"outputs": [
						{
							"internalType": "uint256",
							"name": "",
							"type": "uint256"
						}
					],
					"stateMutability": "view",
					"type": "function"
				},
				{
					"inputs": [
						{
							"internalType": "address",
							"name": "newOwner",
							"type": "address"
						}
					],
					"name": "transferOwnership",
					"outputs": [],
					"stateMutability": "nonpayable",
					"type": "function"
				},
				{
					"inputs": [
						{
							"internalType": "uint256",
							"name": "",
							"type": "uint256"
						}
					],
					"name": "whitelist",
					"outputs": [
						{
							"internalType": "address",
							"name": "",
							"type": "address"
						}
					],
					"stateMutability": "view",
					"type": "function"
				}
			],
			"devdoc": {
				"kind": "dev",
				"methods": {
					"fundIDO()": {
						"details": "Function to fund the IDO"
					},
					"owner()": {
						"details": "Returns the address of the current owner."
					},
					"renounceOwnership()": {
						"details": "Leaves the contract without owner. It will not be possible to call `onlyOwner` functions anymore. Can only be called by the current owner. NOTE: Renouncing ownership will leave the contract without an owner, thereby removing any functionality that is only available to the owner."
					},
					"transferOwnership(address)": {
						"details": "Transfers ownership of the contract to a new account (`newOwner`). Can only be called by the current owner."
					}
				},
				"version": 1
			},
			"evm": {
				"assembly": "    /* \"contracts/Fund_ido.sol\":192:2003  contract IDO is Ownable {... */\n  mstore(0x40, 0x80)\n    /* \"contracts/Fund_ido.sol\":448:850  constructor(... */\n  callvalue\n  dup1\n  iszero\n  tag_1\n  jumpi\n  0x00\n  dup1\n  revert\ntag_1:\n  pop\n  mload(0x40)\n  sub(codesize, bytecodeSize)\n  dup1\n  bytecodeSize\n  dup4\n  codecopy\n  dup2\n  dup2\n  add\n  0x40\n  mstore\n  dup2\n  add\n  swap1\n  tag_2\n  swap2\n  swap1\n  tag_3\n  jump\t// in\ntag_2:\n    /* \"@openzeppelin/contracts/access/Ownable.sol\":936:968  _transferOwnership(_msgSender()) */\n  tag_7\n    /* \"@openzeppelin/contracts/access/Ownable.sol\":955:967  _msgSender() */\n  tag_8\n    /* \"@openzeppelin/contracts/access/Ownable.sol\":955:965  _msgSender */\n  shl(0x20, tag_9)\n    /* \"@openzeppelin/contracts/access/Ownable.sol\":955:967  _msgSender() */\n  0x20\n  shr\n  jump\t// in\ntag_8:\n    /* \"@openzeppelin/contracts/access/Ownable.sol\":936:954  _transferOwnership */\n  shl(0x20, tag_10)\n    /* \"@openzeppelin/contracts/access/Ownable.sol\":936:968  _transferOwnership(_msgSender()) */\n  0x20\n  shr\n  jump\t// in\ntag_7:\n    /* \"contracts/Fund_ido.sol\":645:659  _startDateTime */\n  dup6\n    /* \"contracts/Fund_ido.sol\":629:642  startDateTime */\n  0x01\n    /* \"contracts/Fund_ido.sol\":629:659  startDateTime = _startDateTime */\n  dup2\n  swap1\n  sstore\n  pop\n    /* \"contracts/Fund_ido.sol\":679:691  _endDateTime */\n  dup5\n    /* \"contracts/Fund_ido.sol\":665:676  endDateTime */\n  0x02\n    /* \"contracts/Fund_ido.sol\":665:691  endDateTime = _endDateTime */\n  dup2\n  swap1\n  sstore\n  pop\n    /* \"contracts/Fund_ido.sol\":703:707  _cap */\n  dup4\n    /* \"contracts/Fund_ido.sol\":697:700  cap */\n  0x03\n    /* \"contracts/Fund_ido.sol\":697:707  cap = _cap */\n  dup2\n  swap1\n  sstore\n  pop\n    /* \"contracts/Fund_ido.sol\":725:735  _whitelist */\n  dup3\n    /* \"contracts/Fund_ido.sol\":713:722  whitelist */\n  0x04\n    /* \"contracts/Fund_ido.sol\":713:735  whitelist = _whitelist */\n  swap1\n  dup1\n  mload\n  swap1\n  0x20\n  add\n  swap1\n  tag_12\n  swap3\n  swap2\n  swap1\n  tag_13\n  jump\t// in\ntag_12:\n  pop\n    /* \"contracts/Fund_ido.sol\":750:756  _owner */\n  dup2\n    /* \"contracts/Fund_ido.sol\":741:747  owner_ */\n  0x06\n  0x00\n    /* \"contracts/Fund_ido.sol\":741:756  owner_ = _owner */\n  0x0100\n  exp\n  dup2\n  sload\n  dup2\n  0xffffffffffffffffffffffffffffffffffffffff\n  mul\n  not\n  and\n  swap1\n  dup4\n  0xffffffffffffffffffffffffffffffffffffffff\n  and\n  mul\n  or\n  swap1\n  sstore\n  pop\n    /* \"contracts/Fund_ido.sol\":790:804  _routerAddress */\n  dup1\n    /* \"contracts/Fund_ido.sol\":762:768  router */\n  0x07\n  0x00\n    /* \"contracts/Fund_ido.sol\":762:805  router = IUniswapV2Router02(_routerAddress) */\n  0x0100\n  exp\n  dup2\n  sload\n  dup2\n  0xffffffffffffffffffffffffffffffffffffffff\n  mul\n  not\n  and\n  swap1\n  dup4\n  0xffffffffffffffffffffffffffffffffffffffff\n  and\n  mul\n  or\n  swap1\n  sstore\n  pop\n    /* \"contracts/Fund_ido.sol\":448:850  constructor(... */\n  pop\n  pop\n  pop\n  pop\n  pop\n  pop\n    /* \"contracts/Fund_ido.sol\":192:2003  contract IDO is Ownable {... */\n  jump(tag_14)\n    /* \"@openzeppelin/contracts/utils/Context.sol\":640:736  function _msgSender() internal view virtual returns (address) {... */\ntag_9:\n    /* \"@openzeppelin/contracts/utils/Context.sol\":693:700  address */\n  0x00\n    /* \"@openzeppelin/contracts/utils/Context.sol\":719:729  msg.sender */\n  caller\n    /* \"@openzeppelin/contracts/utils/Context.sol\":712:729  return msg.sender */\n  swap1\n  pop\n    /* \"@openzeppelin/contracts/utils/Context.sol\":640:736  function _msgSender() internal view virtual returns (address) {... */\n  swap1\n  jump\t// out\n    /* \"@openzeppelin/contracts/access/Ownable.sol\":2433:2620  function _transferOwnership(address newOwner) internal virtual {... */\ntag_10:\n    /* \"@openzeppelin/contracts/access/Ownable.sol\":2506:2522  address oldOwner */\n  0x00\n    /* \"@openzeppelin/contracts/access/Ownable.sol\":2525:2531  _owner */\n  dup1\n  0x00\n  swap1\n  sload\n  swap1\n  0x0100\n  exp\n  swap1\n  div\n  0xffffffffffffffffffffffffffffffffffffffff\n  and\n    /* \"@openzeppelin/contracts/access/Ownable.sol\":2506:2531  address oldOwner = _owner */\n  swap1\n  pop\n    /* \"@openzeppelin/contracts/access/Ownable.sol\":2550:2558  newOwner */\n  dup2\n    /* \"@openzeppelin/contracts/access/Ownable.sol\":2541:2547  _owner */\n  0x00\n  dup1\n    /* \"@openzeppelin/contracts/access/Ownable.sol\":2541:2558  _owner = newOwner */\n  0x0100\n  exp\n  dup2\n  sload\n  dup2\n  0xffffffffffffffffffffffffffffffffffffffff\n  mul\n  not\n  and\n  swap1\n  dup4\n  0xffffffffffffffffffffffffffffffffffffffff\n  and\n  mul\n  or\n  swap1\n  sstore\n  pop\n    /* \"@openzeppelin/contracts/access/Ownable.sol\":2604:2612  newOwner */\n  dup2\n    /* \"@openzeppelin/contracts/access/Ownable.sol\":2573:2613  OwnershipTransferred(oldOwner, newOwner) */\n  0xffffffffffffffffffffffffffffffffffffffff\n  and\n    /* \"@openzeppelin/contracts/access/Ownable.sol\":2594:2602  oldOwner */\n  dup2\n    /* \"@openzeppelin/contracts/access/Ownable.sol\":2573:2613  OwnershipTransferred(oldOwner, newOwner) */\n  0xffffffffffffffffffffffffffffffffffffffff\n  and\n  0x8be0079c531659141344cd1fd0a4f28419497f9722a3daafe3b4186f6b6457e0\n  mload(0x40)\n  mload(0x40)\n  dup1\n  swap2\n  sub\n  swap1\n  log3\n    /* \"@openzeppelin/contracts/access/Ownable.sol\":2496:2620  {... */\n  pop\n    /* \"@openzeppelin/contracts/access/Ownable.sol\":2433:2620  function _transferOwnership(address newOwner) internal virtual {... */\n  pop\n  jump\t// out\n    /* \"contracts/Fund_ido.sol\":192:2003  contract IDO is Ownable {... */\ntag_13:\n  dup3\n  dup1\n  sload\n  dup3\n  dup3\n  sstore\n  swap1\n  0x00\n  mstore\n  keccak256(0x00, 0x20)\n  swap1\n  dup2\n  add\n  swap3\n  dup3\n  iszero\n  tag_17\n  jumpi\n  swap2\n  0x20\n  mul\n  dup3\n  add\ntag_18:\n  dup3\n  dup2\n  gt\n  iszero\n  tag_19\n  jumpi\n  dup3\n  mload\n  dup3\n  exp(0x0100, 0x00)\n  dup2\n  sload\n  dup2\n  0xffffffffffffffffffffffffffffffffffffffff\n  mul\n  not\n  and\n  swap1\n  dup4\n  0xffffffffffffffffffffffffffffffffffffffff\n  and\n  mul\n  or\n  swap1\n  sstore\n  pop\n  swap2\n  0x20\n  add\n  swap2\n  swap1\n  0x01\n  add\n  swap1\n  jump(tag_18)\ntag_19:\ntag_17:\n  pop\n  swap1\n  pop\n  tag_20\n  swap2\n  swap1\n  tag_21\n  jump\t// in\ntag_20:\n  pop\n  swap1\n  jump\t// out\ntag_21:\ntag_22:\n  dup1\n  dup3\n  gt\n  iszero\n  tag_23\n  jumpi\n  0x00\n  dup2\n  0x00\n  swap1\n  sstore\n  pop\n  0x01\n  add\n  jump(tag_22)\ntag_23:\n  pop\n  swap1\n  jump\t// out\n    /* \"#utility.yul\":24:768   */\ntag_25:\n    /* \"#utility.yul\":131:136   */\n  0x00\n    /* \"#utility.yul\":156:237   */\n  tag_27\n    /* \"#utility.yul\":172:236   */\n  tag_28\n    /* \"#utility.yul\":229:235   */\n  dup5\n    /* \"#utility.yul\":172:236   */\n  tag_29\n  jump\t// in\ntag_28:\n    /* \"#utility.yul\":156:237   */\n  tag_30\n  jump\t// in\ntag_27:\n    /* \"#utility.yul\":147:237   */\n  swap1\n  pop\n    /* \"#utility.yul\":257:262   */\n  dup1\n    /* \"#utility.yul\":286:292   */\n  dup4\n    /* \"#utility.yul\":279:284   */\n  dup3\n    /* \"#utility.yul\":272:293   */\n  mstore\n    /* \"#utility.yul\":320:324   */\n  0x20\n    /* \"#utility.yul\":313:318   */\n  dup3\n    /* \"#utility.yul\":309:325   */\n  add\n    /* \"#utility.yul\":302:325   */\n  swap1\n  pop\n    /* \"#utility.yul\":346:352   */\n  dup3\n    /* \"#utility.yul\":396:399   */\n  dup6\n    /* \"#utility.yul\":388:392   */\n  0x20\n    /* \"#utility.yul\":380:386   */\n  dup7\n    /* \"#utility.yul\":376:393   */\n  mul\n    /* \"#utility.yul\":371:374   */\n  dup3\n    /* \"#utility.yul\":367:394   */\n  add\n    /* \"#utility.yul\":364:400   */\n  gt\n    /* \"#utility.yul\":361:504   */\n  iszero\n  tag_31\n  jumpi\n    /* \"#utility.yul\":415:494   */\n  tag_32\n  tag_33\n  jump\t// in\ntag_32:\n    /* \"#utility.yul\":361:504   */\ntag_31:\n    /* \"#utility.yul\":528:529   */\n  0x00\n    /* \"#utility.yul\":513:762   */\ntag_34:\n    /* \"#utility.yul\":538:544   */\n  dup6\n    /* \"#utility.yul\":535:536   */\n  dup2\n    /* \"#utility.yul\":532:545   */\n  lt\n    /* \"#utility.yul\":513:762   */\n  iszero\n  tag_36\n  jumpi\n    /* \"#utility.yul\":606:609   */\n  dup2\n    /* \"#utility.yul\":635:683   */\n  tag_37\n    /* \"#utility.yul\":679:682   */\n  dup9\n    /* \"#utility.yul\":667:677   */\n  dup3\n    /* \"#utility.yul\":635:683   */\n  tag_38\n  jump\t// in\ntag_37:\n    /* \"#utility.yul\":630:633   */\n  dup5\n    /* \"#utility.yul\":623:684   */\n  mstore\n    /* \"#utility.yul\":713:717   */\n  0x20\n    /* \"#utility.yul\":708:711   */\n  dup5\n    /* \"#utility.yul\":704:718   */\n  add\n    /* \"#utility.yul\":697:718   */\n  swap4\n  pop\n    /* \"#utility.yul\":747:751   */\n  0x20\n    /* \"#utility.yul\":742:745   */\n  dup4\n    /* \"#utility.yul\":738:752   */\n  add\n    /* \"#utility.yul\":731:752   */\n  swap3\n  pop\n    /* \"#utility.yul\":573:762   */\n  pop\n    /* \"#utility.yul\":560:561   */\n  0x01\n    /* \"#utility.yul\":557:558   */\n  dup2\n    /* \"#utility.yul\":553:562   */\n  add\n    /* \"#utility.yul\":548:562   */\n  swap1\n  pop\n    /* \"#utility.yul\":513:762   */\n  jump(tag_34)\ntag_36:\n    /* \"#utility.yul\":517:531   */\n  pop\n    /* \"#utility.yul\":137:768   */\n  pop\n  pop\n    /* \"#utility.yul\":24:768   */\n  swap4\n  swap3\n  pop\n  pop\n  pop\n  jump\t// out\n    /* \"#utility.yul\":774:917   */\ntag_38:\n    /* \"#utility.yul\":831:836   */\n  0x00\n    /* \"#utility.yul\":862:868   */\n  dup2\n    /* \"#utility.yul\":856:869   */\n  mload\n    /* \"#utility.yul\":847:869   */\n  swap1\n  pop\n    /* \"#utility.yul\":878:911   */\n  tag_40\n    /* \"#utility.yul\":905:910   */\n  dup2\n    /* \"#utility.yul\":878:911   */\n  tag_41\n  jump\t// in\ntag_40:\n    /* \"#utility.yul\":774:917   */\n  swap3\n  swap2\n  pop\n  pop\n  jump\t// out\n    /* \"#utility.yul\":923:1082   */\ntag_42:\n    /* \"#utility.yul\":988:993   */\n  0x00\n    /* \"#utility.yul\":1019:1025   */\n  dup2\n    /* \"#utility.yul\":1013:1026   */\n  mload\n    /* \"#utility.yul\":1004:1026   */\n  swap1\n  pop\n    /* \"#utility.yul\":1035:1076   */\n  tag_44\n    /* \"#utility.yul\":1070:1075   */\n  dup2\n    /* \"#utility.yul\":1035:1076   */\n  tag_45\n  jump\t// in\ntag_44:\n    /* \"#utility.yul\":923:1082   */\n  swap3\n  swap2\n  pop\n  pop\n  jump\t// out\n    /* \"#utility.yul\":1105:1490   */\ntag_46:\n    /* \"#utility.yul\":1187:1192   */\n  0x00\n    /* \"#utility.yul\":1236:1239   */\n  dup3\n    /* \"#utility.yul\":1229:1233   */\n  0x1f\n    /* \"#utility.yul\":1221:1227   */\n  dup4\n    /* \"#utility.yul\":1217:1234   */\n  add\n    /* \"#utility.yul\":1213:1240   */\n  slt\n    /* \"#utility.yul\":1203:1325   */\n  tag_48\n  jumpi\n    /* \"#utility.yul\":1244:1323   */\n  tag_49\n  tag_50\n  jump\t// in\ntag_49:\n    /* \"#utility.yul\":1203:1325   */\ntag_48:\n    /* \"#utility.yul\":1354:1360   */\n  dup2\n    /* \"#utility.yul\":1348:1361   */\n  mload\n    /* \"#utility.yul\":1379:1484   */\n  tag_51\n    /* \"#utility.yul\":1480:1483   */\n  dup5\n    /* \"#utility.yul\":1472:1478   */\n  dup3\n    /* \"#utility.yul\":1465:1469   */\n  0x20\n    /* \"#utility.yul\":1457:1463   */\n  dup7\n    /* \"#utility.yul\":1453:1470   */\n  add\n    /* \"#utility.yul\":1379:1484   */\n  tag_25\n  jump\t// in\ntag_51:\n    /* \"#utility.yul\":1370:1484   */\n  swap2\n  pop\n    /* \"#utility.yul\":1193:1490   */\n  pop\n    /* \"#utility.yul\":1105:1490   */\n  swap3\n  swap2\n  pop\n  pop\n  jump\t// out\n    /* \"#utility.yul\":1496:1639   */\ntag_52:\n    /* \"#utility.yul\":1553:1558   */\n  0x00\n    /* \"#utility.yul\":1584:1590   */\n  dup2\n    /* \"#utility.yul\":1578:1591   */\n  mload\n    /* \"#utility.yul\":1569:1591   */\n  swap1\n  pop\n    /* \"#utility.yul\":1600:1633   */\n  tag_54\n    /* \"#utility.yul\":1627:1632   */\n  dup2\n    /* \"#utility.yul\":1600:1633   */\n  tag_55\n  jump\t// in\ntag_54:\n    /* \"#utility.yul\":1496:1639   */\n  swap3\n  swap2\n  pop\n  pop\n  jump\t// out\n    /* \"#utility.yul\":1645:2998   */\ntag_3:\n    /* \"#utility.yul\":1793:1799   */\n  0x00\n    /* \"#utility.yul\":1801:1807   */\n  dup1\n    /* \"#utility.yul\":1809:1815   */\n  0x00\n    /* \"#utility.yul\":1817:1823   */\n  dup1\n    /* \"#utility.yul\":1825:1831   */\n  0x00\n    /* \"#utility.yul\":1833:1839   */\n  dup1\n    /* \"#utility.yul\":1882:1885   */\n  0xc0\n    /* \"#utility.yul\":1870:1879   */\n  dup8\n    /* \"#utility.yul\":1861:1868   */\n  dup10\n    /* \"#utility.yul\":1857:1880   */\n  sub\n    /* \"#utility.yul\":1853:1886   */\n  slt\n    /* \"#utility.yul\":1850:1970   */\n  iszero\n  tag_57\n  jumpi\n    /* \"#utility.yul\":1889:1968   */\n  tag_58\n  tag_59\n  jump\t// in\ntag_58:\n    /* \"#utility.yul\":1850:1970   */\ntag_57:\n    /* \"#utility.yul\":2009:2010   */\n  0x00\n    /* \"#utility.yul\":2034:2098   */\n  tag_60\n    /* \"#utility.yul\":2090:2097   */\n  dup10\n    /* \"#utility.yul\":2081:2087   */\n  dup3\n    /* \"#utility.yul\":2070:2079   */\n  dup11\n    /* \"#utility.yul\":2066:2088   */\n  add\n    /* \"#utility.yul\":2034:2098   */\n  tag_52\n  jump\t// in\ntag_60:\n    /* \"#utility.yul\":2024:2098   */\n  swap7\n  pop\n    /* \"#utility.yul\":1980:2108   */\n  pop\n    /* \"#utility.yul\":2147:2149   */\n  0x20\n    /* \"#utility.yul\":2173:2237   */\n  tag_61\n    /* \"#utility.yul\":2229:2236   */\n  dup10\n    /* \"#utility.yul\":2220:2226   */\n  dup3\n    /* \"#utility.yul\":2209:2218   */\n  dup11\n    /* \"#utility.yul\":2205:2227   */\n  add\n    /* \"#utility.yul\":2173:2237   */\n  tag_52\n  jump\t// in\ntag_61:\n    /* \"#utility.yul\":2163:2237   */\n  swap6\n  pop\n    /* \"#utility.yul\":2118:2247   */\n  pop\n    /* \"#utility.yul\":2286:2288   */\n  0x40\n    /* \"#utility.yul\":2312:2376   */\n  tag_62\n    /* \"#utility.yul\":2368:2375   */\n  dup10\n    /* \"#utility.yul\":2359:2365   */\n  dup3\n    /* \"#utility.yul\":2348:2357   */\n  dup11\n    /* \"#utility.yul\":2344:2366   */\n  add\n    /* \"#utility.yul\":2312:2376   */\n  tag_52\n  jump\t// in\ntag_62:\n    /* \"#utility.yul\":2302:2376   */\n  swap5\n  pop\n    /* \"#utility.yul\":2257:2386   */\n  pop\n    /* \"#utility.yul\":2446:2448   */\n  0x60\n    /* \"#utility.yul\":2435:2444   */\n  dup8\n    /* \"#utility.yul\":2431:2449   */\n  add\n    /* \"#utility.yul\":2425:2450   */\n  mload\n    /* \"#utility.yul\":2477:2495   */\n  0xffffffffffffffff\n    /* \"#utility.yul\":2469:2475   */\n  dup2\n    /* \"#utility.yul\":2466:2496   */\n  gt\n    /* \"#utility.yul\":2463:2580   */\n  iszero\n  tag_63\n  jumpi\n    /* \"#utility.yul\":2499:2578   */\n  tag_64\n  tag_65\n  jump\t// in\ntag_64:\n    /* \"#utility.yul\":2463:2580   */\ntag_63:\n    /* \"#utility.yul\":2604:2693   */\n  tag_66\n    /* \"#utility.yul\":2685:2692   */\n  dup10\n    /* \"#utility.yul\":2676:2682   */\n  dup3\n    /* \"#utility.yul\":2665:2674   */\n  dup11\n    /* \"#utility.yul\":2661:2683   */\n  add\n    /* \"#utility.yul\":2604:2693   */\n  tag_46\n  jump\t// in\ntag_66:\n    /* \"#utility.yul\":2594:2693   */\n  swap4\n  pop\n    /* \"#utility.yul\":2396:2703   */\n  pop\n    /* \"#utility.yul\":2742:2745   */\n  0x80\n    /* \"#utility.yul\":2769:2841   */\n  tag_67\n    /* \"#utility.yul\":2833:2840   */\n  dup10\n    /* \"#utility.yul\":2824:2830   */\n  dup3\n    /* \"#utility.yul\":2813:2822   */\n  dup11\n    /* \"#utility.yul\":2809:2831   */\n  add\n    /* \"#utility.yul\":2769:2841   */\n  tag_42\n  jump\t// in\ntag_67:\n    /* \"#utility.yul\":2759:2841   */\n  swap3\n  pop\n    /* \"#utility.yul\":2713:2851   */\n  pop\n    /* \"#utility.yul\":2890:2893   */\n  0xa0\n    /* \"#utility.yul\":2917:2981   */\n  tag_68\n    /* \"#utility.yul\":2973:2980   */\n  dup10\n    /* \"#utility.yul\":2964:2970   */\n  dup3\n    /* \"#utility.yul\":2953:2962   */\n  dup11\n    /* \"#utility.yul\":2949:2971   */\n  add\n    /* \"#utility.yul\":2917:2981   */\n  tag_38\n  jump\t// in\ntag_68:\n    /* \"#utility.yul\":2907:2981   */\n  swap2\n  pop\n    /* \"#utility.yul\":2861:2991   */\n  pop\n    /* \"#utility.yul\":1645:2998   */\n  swap3\n  swap6\n  pop\n  swap3\n  swap6\n  pop\n  swap3\n  swap6\n  jump\t// out\n    /* \"#utility.yul\":3004:3133   */\ntag_30:\n    /* \"#utility.yul\":3038:3044   */\n  0x00\n    /* \"#utility.yul\":3065:3085   */\n  tag_70\n  tag_71\n  jump\t// in\ntag_70:\n    /* \"#utility.yul\":3055:3085   */\n  swap1\n  pop\n    /* \"#utility.yul\":3094:3127   */\n  tag_72\n    /* \"#utility.yul\":3122:3126   */\n  dup3\n    /* \"#utility.yul\":3114:3120   */\n  dup3\n    /* \"#utility.yul\":3094:3127   */\n  tag_73\n  jump\t// in\ntag_72:\n    /* \"#utility.yul\":3004:3133   */\n  swap2\n  swap1\n  pop\n  jump\t// out\n    /* \"#utility.yul\":3139:3214   */\ntag_71:\n    /* \"#utility.yul\":3172:3178   */\n  0x00\n    /* \"#utility.yul\":3205:3207   */\n  0x40\n    /* \"#utility.yul\":3199:3208   */\n  mload\n    /* \"#utility.yul\":3189:3208   */\n  swap1\n  pop\n    /* \"#utility.yul\":3139:3214   */\n  swap1\n  jump\t// out\n    /* \"#utility.yul\":3220:3531   */\ntag_29:\n    /* \"#utility.yul\":3297:3301   */\n  0x00\n    /* \"#utility.yul\":3387:3405   */\n  0xffffffffffffffff\n    /* \"#utility.yul\":3379:3385   */\n  dup3\n    /* \"#utility.yul\":3376:3406   */\n  gt\n    /* \"#utility.yul\":3373:3429   */\n  iszero\n  tag_76\n  jumpi\n    /* \"#utility.yul\":3409:3427   */\n  tag_77\n  tag_78\n  jump\t// in\ntag_77:\n    /* \"#utility.yul\":3373:3429   */\ntag_76:\n    /* \"#utility.yul\":3459:3463   */\n  0x20\n    /* \"#utility.yul\":3451:3457   */\n  dup3\n    /* \"#utility.yul\":3447:3464   */\n  mul\n    /* \"#utility.yul\":3439:3464   */\n  swap1\n  pop\n    /* \"#utility.yul\":3519:3523   */\n  0x20\n    /* \"#utility.yul\":3513:3517   */\n  dup2\n    /* \"#utility.yul\":3509:3524   */\n  add\n    /* \"#utility.yul\":3501:3524   */\n  swap1\n  pop\n    /* \"#utility.yul\":3220:3531   */\n  swap2\n  swap1\n  pop\n  jump\t// out\n    /* \"#utility.yul\":3537:3633   */\ntag_79:\n    /* \"#utility.yul\":3574:3581   */\n  0x00\n    /* \"#utility.yul\":3603:3627   */\n  tag_81\n    /* \"#utility.yul\":3621:3626   */\n  dup3\n    /* \"#utility.yul\":3603:3627   */\n  tag_82\n  jump\t// in\ntag_81:\n    /* \"#utility.yul\":3592:3627   */\n  swap1\n  pop\n    /* \"#utility.yul\":3537:3633   */\n  swap2\n  swap1\n  pop\n  jump\t// out\n    /* \"#utility.yul\":3639:3743   */\ntag_83:\n    /* \"#utility.yul\":3684:3691   */\n  0x00\n    /* \"#utility.yul\":3713:3737   */\n  tag_85\n    /* \"#utility.yul\":3731:3736   */\n  dup3\n    /* \"#utility.yul\":3713:3737   */\n  tag_82\n  jump\t// in\ntag_85:\n    /* \"#utility.yul\":3702:3737   */\n  swap1\n  pop\n    /* \"#utility.yul\":3639:3743   */\n  swap2\n  swap1\n  pop\n  jump\t// out\n    /* \"#utility.yul\":3749:3875   */\ntag_82:\n    /* \"#utility.yul\":3786:3793   */\n  0x00\n    /* \"#utility.yul\":3826:3868   */\n  0xffffffffffffffffffffffffffffffffffffffff\n    /* \"#utility.yul\":3819:3824   */\n  dup3\n    /* \"#utility.yul\":3815:3869   */\n  and\n    /* \"#utility.yul\":3804:3869   */\n  swap1\n  pop\n    /* \"#utility.yul\":3749:3875   */\n  swap2\n  swap1\n  pop\n  jump\t// out\n    /* \"#utility.yul\":3881:3958   */\ntag_87:\n    /* \"#utility.yul\":3918:3925   */\n  0x00\n    /* \"#utility.yul\":3947:3952   */\n  dup2\n    /* \"#utility.yul\":3936:3952   */\n  swap1\n  pop\n    /* \"#utility.yul\":3881:3958   */\n  swap2\n  swap1\n  pop\n  jump\t// out\n    /* \"#utility.yul\":3964:4245   */\ntag_73:\n    /* \"#utility.yul\":4047:4074   */\n  tag_90\n    /* \"#utility.yul\":4069:4073   */\n  dup3\n    /* \"#utility.yul\":4047:4074   */\n  tag_91\n  jump\t// in\ntag_90:\n    /* \"#utility.yul\":4039:4045   */\n  dup2\n    /* \"#utility.yul\":4035:4075   */\n  add\n    /* \"#utility.yul\":4177:4183   */\n  dup2\n    /* \"#utility.yul\":4165:4175   */\n  dup2\n    /* \"#utility.yul\":4162:4184   */\n  lt\n    /* \"#utility.yul\":4141:4159   */\n  0xffffffffffffffff\n    /* \"#utility.yul\":4129:4139   */\n  dup3\n    /* \"#utility.yul\":4126:4160   */\n  gt\n    /* \"#utility.yul\":4123:4185   */\n  or\n    /* \"#utility.yul\":4120:4208   */\n  iszero\n  tag_92\n  jumpi\n    /* \"#utility.yul\":4188:4206   */\n  tag_93\n  tag_78\n  jump\t// in\ntag_93:\n    /* \"#utility.yul\":4120:4208   */\ntag_92:\n    /* \"#utility.yul\":4228:4238   */\n  dup1\n    /* \"#utility.yul\":4224:4226   */\n  0x40\n    /* \"#utility.yul\":4217:4239   */\n  mstore\n    /* \"#utility.yul\":4007:4245   */\n  pop\n    /* \"#utility.yul\":3964:4245   */\n  pop\n  pop\n  jump\t// out\n    /* \"#utility.yul\":4251:4431   */\ntag_78:\n    /* \"#utility.yul\":4299:4376   */\n  0x4e487b7100000000000000000000000000000000000000000000000000000000\n    /* \"#utility.yul\":4296:4297   */\n  0x00\n    /* \"#utility.yul\":4289:4377   */\n  mstore\n    /* \"#utility.yul\":4396:4400   */\n  0x41\n    /* \"#utility.yul\":4393:4394   */\n  0x04\n    /* \"#utility.yul\":4386:4401   */\n  mstore\n    /* \"#utility.yul\":4420:4424   */\n  0x24\n    /* \"#utility.yul\":4417:4418   */\n  0x00\n    /* \"#utility.yul\":4410:4425   */\n  revert\n    /* \"#utility.yul\":4437:4554   */\ntag_50:\n    /* \"#utility.yul\":4546:4547   */\n  0x00\n    /* \"#utility.yul\":4543:4544   */\n  dup1\n    /* \"#utility.yul\":4536:4548   */\n  revert\n    /* \"#utility.yul\":4560:4677   */\ntag_33:\n    /* \"#utility.yul\":4669:4670   */\n  0x00\n    /* \"#utility.yul\":4666:4667   */\n  dup1\n    /* \"#utility.yul\":4659:4671   */\n  revert\n    /* \"#utility.yul\":4683:4800   */\ntag_65:\n    /* \"#utility.yul\":4792:4793   */\n  0x00\n    /* \"#utility.yul\":4789:4790   */\n  dup1\n    /* \"#utility.yul\":4782:4794   */\n  revert\n    /* \"#utility.yul\":4806:4923   */\ntag_59:\n    /* \"#utility.yul\":4915:4916   */\n  0x00\n    /* \"#utility.yul\":4912:4913   */\n  dup1\n    /* \"#utility.yul\":4905:4917   */\n  revert\n    /* \"#utility.yul\":4929:5031   */\ntag_91:\n    /* \"#utility.yul\":4970:4976   */\n  0x00\n    /* \"#utility.yul\":5021:5023   */\n  0x1f\n    /* \"#utility.yul\":5017:5024   */\n  not\n    /* \"#utility.yul\":5012:5014   */\n  0x1f\n    /* \"#utility.yul\":5005:5010   */\n  dup4\n    /* \"#utility.yul\":5001:5015   */\n  add\n    /* \"#utility.yul\":4997:5025   */\n  and\n    /* \"#utility.yul\":4987:5025   */\n  swap1\n  pop\n    /* \"#utility.yul\":4929:5031   */\n  swap2\n  swap1\n  pop\n  jump\t// out\n    /* \"#utility.yul\":5037:5159   */\ntag_41:\n    /* \"#utility.yul\":5110:5134   */\n  tag_101\n    /* \"#utility.yul\":5128:5133   */\n  dup2\n    /* \"#utility.yul\":5110:5134   */\n  tag_79\n  jump\t// in\ntag_101:\n    /* \"#utility.yul\":5103:5108   */\n  dup2\n    /* \"#utility.yul\":5100:5135   */\n  eq\n    /* \"#utility.yul\":5090:5153   */\n  tag_102\n  jumpi\n    /* \"#utility.yul\":5149:5150   */\n  0x00\n    /* \"#utility.yul\":5146:5147   */\n  dup1\n    /* \"#utility.yul\":5139:5151   */\n  revert\n    /* \"#utility.yul\":5090:5153   */\ntag_102:\n    /* \"#utility.yul\":5037:5159   */\n  pop\n  jump\t// out\n    /* \"#utility.yul\":5165:5303   */\ntag_45:\n    /* \"#utility.yul\":5246:5278   */\n  tag_104\n    /* \"#utility.yul\":5272:5277   */\n  dup2\n    /* \"#utility.yul\":5246:5278   */\n  tag_83\n  jump\t// in\ntag_104:\n    /* \"#utility.yul\":5239:5244   */\n  dup2\n    /* \"#utility.yul\":5236:5279   */\n  eq\n    /* \"#utility.yul\":5226:5297   */\n  tag_105\n  jumpi\n    /* \"#utility.yul\":5293:5294   */\n  0x00\n    /* \"#utility.yul\":5290:5291   */\n  dup1\n    /* \"#utility.yul\":5283:5295   */\n  revert\n    /* \"#utility.yul\":5226:5297   */\ntag_105:\n    /* \"#utility.yul\":5165:5303   */\n  pop\n  jump\t// out\n    /* \"#utility.yul\":5309:5431   */\ntag_55:\n    /* \"#utility.yul\":5382:5406   */\n  tag_107\n    /* \"#utility.yul\":5400:5405   */\n  dup2\n    /* \"#utility.yul\":5382:5406   */\n  tag_87\n  jump\t// in\ntag_107:\n    /* \"#utility.yul\":5375:5380   */\n  dup2\n    /* \"#utility.yul\":5372:5407   */\n  eq\n    /* \"#utility.yul\":5362:5425   */\n  tag_108\n  jumpi\n    /* \"#utility.yul\":5421:5422   */\n  0x00\n    /* \"#utility.yul\":5418:5419   */\n  dup1\n    /* \"#utility.yul\":5411:5423   */\n  revert\n    /* \"#utility.yul\":5362:5425   */\ntag_108:\n    /* \"#utility.yul\":5309:5431   */\n  pop\n  jump\t// out\n    /* \"contracts/Fund_ido.sol\":192:2003  contract IDO is Ownable {... */\ntag_14:\n  dataSize(sub_0)\n  dup1\n  dataOffset(sub_0)\n  0x00\n  codecopy\n  0x00\n  return\nstop\n\nsub_0: assembly {\n        /* \"contracts/Fund_ido.sol\":192:2003  contract IDO is Ownable {... */\n      mstore(0x40, 0x80)\n      jumpi(tag_1, lt(calldatasize, 0x04))\n      shr(0xe0, calldataload(0x00))\n      dup1\n      0x775f75df\n      gt\n      tag_12\n      jumpi\n      dup1\n      0x775f75df\n      eq\n      tag_7\n      jumpi\n      dup1\n      0x7ebd1b30\n      eq\n      tag_8\n      jumpi\n      dup1\n      0x8da5cb5b\n      eq\n      tag_9\n      jumpi\n      dup1\n      0xf2fde38b\n      eq\n      tag_10\n      jumpi\n      dup1\n      0xf887ea40\n      eq\n      tag_11\n      jumpi\n      jump(tag_1)\n    tag_12:\n      dup1\n      0x355274ea\n      eq\n      tag_2\n      jumpi\n      dup1\n      0x3c9177cd\n      eq\n      tag_3\n      jumpi\n      dup1\n      0x42e94c90\n      eq\n      tag_4\n      jumpi\n      dup1\n      0x476aa36f\n      eq\n      tag_5\n      jumpi\n      dup1\n      0x715018a6\n      eq\n      tag_6\n      jumpi\n    tag_1:\n      0x00\n      dup1\n      revert\n        /* \"contracts/Fund_ido.sol\":278:296  uint256 public cap */\n    tag_2:\n      callvalue\n      dup1\n      iszero\n      tag_13\n      jumpi\n      0x00\n      dup1\n      revert\n    tag_13:\n      pop\n      tag_14\n      tag_15\n      jump\t// in\n    tag_14:\n      mload(0x40)\n      tag_16\n      swap2\n      swap1\n      tag_17\n      jump\t// in\n    tag_16:\n      mload(0x40)\n      dup1\n      swap2\n      sub\n      swap1\n      return\n        /* \"contracts/Fund_ido.sol\":249:275  uint256 public endDateTime */\n    tag_3:\n      callvalue\n      dup1\n      iszero\n      tag_18\n      jumpi\n      0x00\n      dup1\n      revert\n    tag_18:\n      pop\n      tag_19\n      tag_20\n      jump\t// in\n    tag_19:\n      mload(0x40)\n      tag_21\n      swap2\n      swap1\n      tag_17\n      jump\t// in\n    tag_21:\n      mload(0x40)\n      dup1\n      swap2\n      sub\n      swap1\n      return\n        /* \"contracts/Fund_ido.sol\":328:376  mapping(address => uint256) public contributions */\n    tag_4:\n      callvalue\n      dup1\n      iszero\n      tag_22\n      jumpi\n      0x00\n      dup1\n      revert\n    tag_22:\n      pop\n      tag_23\n      0x04\n      dup1\n      calldatasize\n      sub\n      dup2\n      add\n      swap1\n      tag_24\n      swap2\n      swap1\n      tag_25\n      jump\t// in\n    tag_24:\n      tag_26\n      jump\t// in\n    tag_23:\n      mload(0x40)\n      tag_27\n      swap2\n      swap1\n      tag_17\n      jump\t// in\n    tag_27:\n      mload(0x40)\n      dup1\n      swap2\n      sub\n      swap1\n      return\n        /* \"contracts/Fund_ido.sol\":893:2001  function fundIDO() external payable {... */\n    tag_5:\n      tag_28\n      tag_29\n      jump\t// in\n    tag_28:\n      stop\n        /* \"@openzeppelin/contracts/access/Ownable.sol\":1831:1932  function renounceOwnership() public virtual onlyOwner {... */\n    tag_6:\n      callvalue\n      dup1\n      iszero\n      tag_30\n      jumpi\n      0x00\n      dup1\n      revert\n    tag_30:\n      pop\n      tag_31\n      tag_32\n      jump\t// in\n    tag_31:\n      stop\n        /* \"contracts/Fund_ido.sol\":218:246  uint256 public startDateTime */\n    tag_7:\n      callvalue\n      dup1\n      iszero\n      tag_33\n      jumpi\n      0x00\n      dup1\n      revert\n    tag_33:\n      pop\n      tag_34\n      tag_35\n      jump\t// in\n    tag_34:\n      mload(0x40)\n      tag_36\n      swap2\n      swap1\n      tag_17\n      jump\t// in\n    tag_36:\n      mload(0x40)\n      dup1\n      swap2\n      sub\n      swap1\n      return\n        /* \"contracts/Fund_ido.sol\":299:325  address[] public whitelist */\n    tag_8:\n      callvalue\n      dup1\n      iszero\n      tag_37\n      jumpi\n      0x00\n      dup1\n      revert\n    tag_37:\n      pop\n      tag_38\n      0x04\n      dup1\n      calldatasize\n      sub\n      dup2\n      add\n      swap1\n      tag_39\n      swap2\n      swap1\n      tag_40\n      jump\t// in\n    tag_39:\n      tag_41\n      jump\t// in\n    tag_38:\n      mload(0x40)\n      tag_42\n      swap2\n      swap1\n      tag_43\n      jump\t// in\n    tag_42:\n      mload(0x40)\n      dup1\n      swap2\n      sub\n      swap1\n      return\n        /* \"@openzeppelin/contracts/access/Ownable.sol\":1201:1286  function owner() public view virtual returns (address) {... */\n    tag_9:\n      callvalue\n      dup1\n      iszero\n      tag_44\n      jumpi\n      0x00\n      dup1\n      revert\n    tag_44:\n      pop\n      tag_45\n      tag_46\n      jump\t// in\n    tag_45:\n      mload(0x40)\n      tag_47\n      swap2\n      swap1\n      tag_43\n      jump\t// in\n    tag_47:\n      mload(0x40)\n      dup1\n      swap2\n      sub\n      swap1\n      return\n        /* \"@openzeppelin/contracts/access/Ownable.sol\":2081:2279  function transferOwnership(address newOwner) public virtual onlyOwner {... */\n    tag_10:\n      callvalue\n      dup1\n      iszero\n      tag_48\n      jumpi\n      0x00\n      dup1\n      revert\n    tag_48:\n      pop\n      tag_49\n      0x04\n      dup1\n      calldatasize\n      sub\n      dup2\n      add\n      swap1\n      tag_50\n      swap2\n      swap1\n      tag_25\n      jump\t// in\n    tag_50:\n      tag_51\n      jump\t// in\n    tag_49:\n      stop\n        /* \"contracts/Fund_ido.sol\":412:444  IUniswapV2Router02 public router */\n    tag_11:\n      callvalue\n      dup1\n      iszero\n      tag_52\n      jumpi\n      0x00\n      dup1\n      revert\n    tag_52:\n      pop\n      tag_53\n      tag_54\n      jump\t// in\n    tag_53:\n      mload(0x40)\n      tag_55\n      swap2\n      swap1\n      tag_56\n      jump\t// in\n    tag_55:\n      mload(0x40)\n      dup1\n      swap2\n      sub\n      swap1\n      return\n        /* \"contracts/Fund_ido.sol\":278:296  uint256 public cap */\n    tag_15:\n      sload(0x03)\n      dup2\n      jump\t// out\n        /* \"contracts/Fund_ido.sol\":249:275  uint256 public endDateTime */\n    tag_20:\n      sload(0x02)\n      dup2\n      jump\t// out\n        /* \"contracts/Fund_ido.sol\":328:376  mapping(address => uint256) public contributions */\n    tag_26:\n      mstore(0x20, 0x05)\n      dup1\n      0x00\n      mstore\n      keccak256(0x00, 0x40)\n      0x00\n      swap2\n      pop\n      swap1\n      pop\n      sload\n      dup2\n      jump\t// out\n        /* \"contracts/Fund_ido.sol\":893:2001  function fundIDO() external payable {... */\n    tag_29:\n        /* \"contracts/Fund_ido.sol\":962:975  startDateTime */\n      sload(0x01)\n        /* \"contracts/Fund_ido.sol\":943:958  block.timestamp */\n      timestamp\n        /* \"contracts/Fund_ido.sol\":943:975  block.timestamp >= startDateTime */\n      lt\n      iszero\n        /* \"contracts/Fund_ido.sol\":935:1000  require(block.timestamp >= startDateTime, \"IDO: not started yet\") */\n      tag_58\n      jumpi\n      mload(0x40)\n      0x08c379a000000000000000000000000000000000000000000000000000000000\n      dup2\n      mstore\n      0x04\n      add\n      tag_59\n      swap1\n      tag_60\n      jump\t// in\n    tag_59:\n      mload(0x40)\n      dup1\n      swap2\n      sub\n      swap1\n      revert\n    tag_58:\n        /* \"contracts/Fund_ido.sol\":1033:1044  endDateTime */\n      sload(0x02)\n        /* \"contracts/Fund_ido.sol\":1014:1029  block.timestamp */\n      timestamp\n        /* \"contracts/Fund_ido.sol\":1014:1044  block.timestamp <= endDateTime */\n      gt\n      iszero\n        /* \"contracts/Fund_ido.sol\":1006:1067  require(block.timestamp <= endDateTime, \"IDO: already ended\") */\n      tag_61\n      jumpi\n      mload(0x40)\n      0x08c379a000000000000000000000000000000000000000000000000000000000\n      dup2\n      mstore\n      0x04\n      add\n      tag_62\n      swap1\n      tag_63\n      jump\t// in\n    tag_62:\n      mload(0x40)\n      dup1\n      swap2\n      sub\n      swap1\n      revert\n    tag_61:\n        /* \"contracts/Fund_ido.sol\":1122:1125  cap */\n      sload(0x03)\n        /* \"contracts/Fund_ido.sol\":1109:1118  msg.value */\n      callvalue\n        /* \"contracts/Fund_ido.sol\":1081:1094  contributions */\n      0x05\n        /* \"contracts/Fund_ido.sol\":1081:1106  contributions[msg.sender] */\n      0x00\n        /* \"contracts/Fund_ido.sol\":1095:1105  msg.sender */\n      caller\n        /* \"contracts/Fund_ido.sol\":1081:1106  contributions[msg.sender] */\n      0xffffffffffffffffffffffffffffffffffffffff\n      and\n      0xffffffffffffffffffffffffffffffffffffffff\n      and\n      dup2\n      mstore\n      0x20\n      add\n      swap1\n      dup2\n      mstore\n      0x20\n      add\n      0x00\n      keccak256\n      sload\n        /* \"contracts/Fund_ido.sol\":1081:1118  contributions[msg.sender] + msg.value */\n      tag_64\n      swap2\n      swap1\n      tag_65\n      jump\t// in\n    tag_64:\n        /* \"contracts/Fund_ido.sol\":1081:1125  contributions[msg.sender] + msg.value <= cap */\n      gt\n      iszero\n        /* \"contracts/Fund_ido.sol\":1073:1146  require(contributions[msg.sender] + msg.value <= cap, \"IDO: cap reached\") */\n      tag_66\n      jumpi\n      mload(0x40)\n      0x08c379a000000000000000000000000000000000000000000000000000000000\n      dup2\n      mstore\n      0x04\n      add\n      tag_67\n      swap1\n      tag_68\n      jump\t// in\n    tag_67:\n      mload(0x40)\n      dup1\n      swap2\n      sub\n      swap1\n      revert\n    tag_66:\n        /* \"contracts/Fund_ido.sol\":1195:1213  bool isWhitelisted */\n      0x00\n        /* \"contracts/Fund_ido.sol\":1232:1241  uint256 i */\n      dup1\n        /* \"contracts/Fund_ido.sol\":1227:1386  for (uint256 i = 0; i < whitelist.length; i++) {... */\n    tag_69:\n        /* \"contracts/Fund_ido.sol\":1251:1260  whitelist */\n      0x04\n        /* \"contracts/Fund_ido.sol\":1251:1267  whitelist.length */\n      dup1\n      sload\n      swap1\n      pop\n        /* \"contracts/Fund_ido.sol\":1247:1248  i */\n      dup2\n        /* \"contracts/Fund_ido.sol\":1247:1267  i < whitelist.length */\n      lt\n        /* \"contracts/Fund_ido.sol\":1227:1386  for (uint256 i = 0; i < whitelist.length; i++) {... */\n      iszero\n      tag_70\n      jumpi\n        /* \"contracts/Fund_ido.sol\":1302:1311  whitelist */\n      0x04\n        /* \"contracts/Fund_ido.sol\":1312:1313  i */\n      dup2\n        /* \"contracts/Fund_ido.sol\":1302:1314  whitelist[i] */\n      dup2\n      sload\n      dup2\n      lt\n      tag_72\n      jumpi\n      tag_73\n      tag_74\n      jump\t// in\n    tag_73:\n    tag_72:\n      swap1\n      0x00\n      mstore\n      keccak256(0x00, 0x20)\n      add\n      0x00\n      swap1\n      sload\n      swap1\n      0x0100\n      exp\n      swap1\n      div\n      0xffffffffffffffffffffffffffffffffffffffff\n      and\n        /* \"contracts/Fund_ido.sol\":1288:1314  msg.sender == whitelist[i] */\n      0xffffffffffffffffffffffffffffffffffffffff\n      and\n        /* \"contracts/Fund_ido.sol\":1288:1298  msg.sender */\n      caller\n        /* \"contracts/Fund_ido.sol\":1288:1314  msg.sender == whitelist[i] */\n      0xffffffffffffffffffffffffffffffffffffffff\n      and\n      eq\n        /* \"contracts/Fund_ido.sol\":1284:1380  if (msg.sender == whitelist[i]) {... */\n      iszero\n      tag_76\n      jumpi\n        /* \"contracts/Fund_ido.sol\":1346:1350  true */\n      0x01\n        /* \"contracts/Fund_ido.sol\":1330:1350  isWhitelisted = true */\n      swap2\n      pop\n        /* \"contracts/Fund_ido.sol\":1364:1369  break */\n      jump(tag_70)\n        /* \"contracts/Fund_ido.sol\":1284:1380  if (msg.sender == whitelist[i]) {... */\n    tag_76:\n        /* \"contracts/Fund_ido.sol\":1269:1272  i++ */\n      dup1\n      dup1\n      tag_77\n      swap1\n      tag_78\n      jump\t// in\n    tag_77:\n      swap2\n      pop\n      pop\n        /* \"contracts/Fund_ido.sol\":1227:1386  for (uint256 i = 0; i < whitelist.length; i++) {... */\n      jump(tag_69)\n    tag_70:\n      pop\n        /* \"contracts/Fund_ido.sol\":1399:1412  isWhitelisted */\n      dup1\n        /* \"contracts/Fund_ido.sol\":1391:1444  require(isWhitelisted, \"IDO: sender not whitelisted\") */\n      tag_79\n      jumpi\n      mload(0x40)\n      0x08c379a000000000000000000000000000000000000000000000000000000000\n      dup2\n      mstore\n      0x04\n      add\n      tag_80\n      swap1\n      tag_81\n      jump\t// in\n    tag_80:\n      mload(0x40)\n      dup1\n      swap2\n      sub\n      swap1\n      revert\n    tag_79:\n        /* \"contracts/Fund_ido.sol\":1480:1489  msg.value */\n      callvalue\n        /* \"contracts/Fund_ido.sol\":1451:1464  contributions */\n      0x05\n        /* \"contracts/Fund_ido.sol\":1451:1476  contributions[msg.sender] */\n      0x00\n        /* \"contracts/Fund_ido.sol\":1465:1475  msg.sender */\n      caller\n        /* \"contracts/Fund_ido.sol\":1451:1476  contributions[msg.sender] */\n      0xffffffffffffffffffffffffffffffffffffffff\n      and\n      0xffffffffffffffffffffffffffffffffffffffff\n      and\n      dup2\n      mstore\n      0x20\n      add\n      swap1\n      dup2\n      mstore\n      0x20\n      add\n      0x00\n      keccak256\n      0x00\n        /* \"contracts/Fund_ido.sol\":1451:1489  contributions[msg.sender] += msg.value */\n      dup3\n      dup3\n      sload\n      tag_82\n      swap2\n      swap1\n      tag_65\n      jump\t// in\n    tag_82:\n      swap3\n      pop\n      pop\n      dup2\n      swap1\n      sstore\n      pop\n        /* \"contracts/Fund_ido.sol\":1528:1531  cap */\n      sload(0x03)\n        /* \"contracts/Fund_ido.sol\":1499:1512  contributions */\n      0x05\n        /* \"contracts/Fund_ido.sol\":1499:1524  contributions[msg.sender] */\n      0x00\n        /* \"contracts/Fund_ido.sol\":1513:1523  msg.sender */\n      caller\n        /* \"contracts/Fund_ido.sol\":1499:1524  contributions[msg.sender] */\n      0xffffffffffffffffffffffffffffffffffffffff\n      and\n      0xffffffffffffffffffffffffffffffffffffffff\n      and\n      dup2\n      mstore\n      0x20\n      add\n      swap1\n      dup2\n      mstore\n      0x20\n      add\n      0x00\n      keccak256\n      sload\n        /* \"contracts/Fund_ido.sol\":1499:1531  contributions[msg.sender] >= cap */\n      lt\n        /* \"contracts/Fund_ido.sol\":1495:1857  if (contributions[msg.sender] >= cap) {... */\n      tag_83\n      jumpi\n        /* \"contracts/Fund_ido.sol\":1618:1627  uint256 i */\n      0x00\n        /* \"contracts/Fund_ido.sol\":1613:1851  for (uint256 i = 0; i < whitelist.length; i++) {... */\n    tag_84:\n        /* \"contracts/Fund_ido.sol\":1637:1646  whitelist */\n      0x04\n        /* \"contracts/Fund_ido.sol\":1637:1653  whitelist.length */\n      dup1\n      sload\n      swap1\n      pop\n        /* \"contracts/Fund_ido.sol\":1633:1634  i */\n      dup2\n        /* \"contracts/Fund_ido.sol\":1633:1653  i < whitelist.length */\n      lt\n        /* \"contracts/Fund_ido.sol\":1613:1851  for (uint256 i = 0; i < whitelist.length; i++) {... */\n      iszero\n      tag_85\n      jumpi\n        /* \"contracts/Fund_ido.sol\":1692:1701  whitelist */\n      0x04\n        /* \"contracts/Fund_ido.sol\":1702:1703  i */\n      dup2\n        /* \"contracts/Fund_ido.sol\":1692:1704  whitelist[i] */\n      dup2\n      sload\n      dup2\n      lt\n      tag_87\n      jumpi\n      tag_88\n      tag_74\n      jump\t// in\n    tag_88:\n    tag_87:\n      swap1\n      0x00\n      mstore\n      keccak256(0x00, 0x20)\n      add\n      0x00\n      swap1\n      sload\n      swap1\n      0x0100\n      exp\n      swap1\n      div\n      0xffffffffffffffffffffffffffffffffffffffff\n      and\n        /* \"contracts/Fund_ido.sol\":1678:1704  msg.sender == whitelist[i] */\n      0xffffffffffffffffffffffffffffffffffffffff\n      and\n        /* \"contracts/Fund_ido.sol\":1678:1688  msg.sender */\n      caller\n        /* \"contracts/Fund_ido.sol\":1678:1704  msg.sender == whitelist[i] */\n      0xffffffffffffffffffffffffffffffffffffffff\n      and\n      eq\n        /* \"contracts/Fund_ido.sol\":1674:1841  if (msg.sender == whitelist[i]) {... */\n      iszero\n      tag_90\n      jumpi\n        /* \"contracts/Fund_ido.sol\":1739:1748  whitelist */\n      0x04\n        /* \"contracts/Fund_ido.sol\":1768:1769  1 */\n      0x01\n        /* \"contracts/Fund_ido.sol\":1749:1758  whitelist */\n      0x04\n        /* \"contracts/Fund_ido.sol\":1749:1765  whitelist.length */\n      dup1\n      sload\n      swap1\n      pop\n        /* \"contracts/Fund_ido.sol\":1749:1769  whitelist.length - 1 */\n      tag_91\n      swap2\n      swap1\n      tag_92\n      jump\t// in\n    tag_91:\n        /* \"contracts/Fund_ido.sol\":1739:1770  whitelist[whitelist.length - 1] */\n      dup2\n      sload\n      dup2\n      lt\n      tag_93\n      jumpi\n      tag_94\n      tag_74\n      jump\t// in\n    tag_94:\n    tag_93:\n      swap1\n      0x00\n      mstore\n      keccak256(0x00, 0x20)\n      add\n      0x00\n      swap1\n      sload\n      swap1\n      0x0100\n      exp\n      swap1\n      div\n      0xffffffffffffffffffffffffffffffffffffffff\n      and\n        /* \"contracts/Fund_ido.sol\":1724:1733  whitelist */\n      0x04\n        /* \"contracts/Fund_ido.sol\":1734:1735  i */\n      dup3\n        /* \"contracts/Fund_ido.sol\":1724:1736  whitelist[i] */\n      dup2\n      sload\n      dup2\n      lt\n      tag_96\n      jumpi\n      tag_97\n      tag_74\n      jump\t// in\n    tag_97:\n    tag_96:\n      swap1\n      0x00\n      mstore\n      keccak256(0x00, 0x20)\n      add\n      0x00\n        /* \"contracts/Fund_ido.sol\":1724:1770  whitelist[i] = whitelist[whitelist.length - 1] */\n      0x0100\n      exp\n      dup2\n      sload\n      dup2\n      0xffffffffffffffffffffffffffffffffffffffff\n      mul\n      not\n      and\n      swap1\n      dup4\n      0xffffffffffffffffffffffffffffffffffffffff\n      and\n      mul\n      or\n      swap1\n      sstore\n      pop\n        /* \"contracts/Fund_ido.sol\":1788:1797  whitelist */\n      0x04\n        /* \"contracts/Fund_ido.sol\":1788:1803  whitelist.pop() */\n      dup1\n      sload\n      dup1\n      tag_99\n      jumpi\n      tag_100\n      tag_101\n      jump\t// in\n    tag_100:\n    tag_99:\n      0x01\n      swap1\n      sub\n      dup2\n      dup2\n      swap1\n      0x00\n      mstore\n      keccak256(0x00, 0x20)\n      add\n      exp(0x0100, 0x00)\n      dup2\n      sload\n      swap1\n      0xffffffffffffffffffffffffffffffffffffffff\n      mul\n      not\n      and\n      swap1\n      sstore\n      swap1\n      sstore\n        /* \"contracts/Fund_ido.sol\":1821:1826  break */\n      jump(tag_85)\n        /* \"contracts/Fund_ido.sol\":1674:1841  if (msg.sender == whitelist[i]) {... */\n    tag_90:\n        /* \"contracts/Fund_ido.sol\":1655:1658  i++ */\n      dup1\n      dup1\n      tag_103\n      swap1\n      tag_78\n      jump\t// in\n    tag_103:\n      swap2\n      pop\n      pop\n        /* \"contracts/Fund_ido.sol\":1613:1851  for (uint256 i = 0; i < whitelist.length; i++) {... */\n      jump(tag_84)\n    tag_85:\n      pop\n        /* \"contracts/Fund_ido.sol\":1495:1857  if (contributions[msg.sender] >= cap) {... */\n    tag_83:\n        /* \"contracts/Fund_ido.sol\":1901:1913  bool success */\n      0x00\n        /* \"contracts/Fund_ido.sol\":1919:1925  owner_ */\n      0x06\n      0x00\n      swap1\n      sload\n      swap1\n      0x0100\n      exp\n      swap1\n      div\n      0xffffffffffffffffffffffffffffffffffffffff\n      and\n        /* \"contracts/Fund_ido.sol\":1919:1930  owner_.call */\n      0xffffffffffffffffffffffffffffffffffffffff\n      and\n        /* \"contracts/Fund_ido.sol\":1938:1947  msg.value */\n      callvalue\n        /* \"contracts/Fund_ido.sol\":1919:1952  owner_.call{value: msg.value}(\"\") */\n      mload(0x40)\n      tag_104\n      swap1\n      tag_105\n      jump\t// in\n    tag_104:\n      0x00\n      mload(0x40)\n      dup1\n      dup4\n      sub\n      dup2\n      dup6\n      dup8\n      gas\n      call\n      swap3\n      pop\n      pop\n      pop\n      returndatasize\n      dup1\n      0x00\n      dup2\n      eq\n      tag_108\n      jumpi\n      mload(0x40)\n      swap2\n      pop\n      and(add(returndatasize, 0x3f), not(0x1f))\n      dup3\n      add\n      0x40\n      mstore\n      returndatasize\n      dup3\n      mstore\n      returndatasize\n      0x00\n      0x20\n      dup5\n      add\n      returndatacopy\n      jump(tag_107)\n    tag_108:\n      0x60\n      swap2\n      pop\n    tag_107:\n      pop\n        /* \"contracts/Fund_ido.sol\":1900:1952  (bool success, ) = owner_.call{value: msg.value}(\"\") */\n      pop\n      swap1\n      pop\n        /* \"contracts/Fund_ido.sol\":1966:1973  success */\n      dup1\n        /* \"contracts/Fund_ido.sol\":1958:1998  require(success, \"IDO: transfer failed\") */\n      tag_109\n      jumpi\n      mload(0x40)\n      0x08c379a000000000000000000000000000000000000000000000000000000000\n      dup2\n      mstore\n      0x04\n      add\n      tag_110\n      swap1\n      tag_111\n      jump\t// in\n    tag_110:\n      mload(0x40)\n      dup1\n      swap2\n      sub\n      swap1\n      revert\n    tag_109:\n        /* \"contracts/Fund_ido.sol\":929:2001  {... */\n      pop\n      pop\n        /* \"contracts/Fund_ido.sol\":893:2001  function fundIDO() external payable {... */\n      jump\t// out\n        /* \"@openzeppelin/contracts/access/Ownable.sol\":1831:1932  function renounceOwnership() public virtual onlyOwner {... */\n    tag_32:\n        /* \"@openzeppelin/contracts/access/Ownable.sol\":1094:1107  _checkOwner() */\n      tag_113\n        /* \"@openzeppelin/contracts/access/Ownable.sol\":1094:1105  _checkOwner */\n      tag_114\n        /* \"@openzeppelin/contracts/access/Ownable.sol\":1094:1107  _checkOwner() */\n      jump\t// in\n    tag_113:\n        /* \"@openzeppelin/contracts/access/Ownable.sol\":1895:1925  _transferOwnership(address(0)) */\n      tag_116\n        /* \"@openzeppelin/contracts/access/Ownable.sol\":1922:1923  0 */\n      0x00\n        /* \"@openzeppelin/contracts/access/Ownable.sol\":1895:1913  _transferOwnership */\n      tag_117\n        /* \"@openzeppelin/contracts/access/Ownable.sol\":1895:1925  _transferOwnership(address(0)) */\n      jump\t// in\n    tag_116:\n        /* \"@openzeppelin/contracts/access/Ownable.sol\":1831:1932  function renounceOwnership() public virtual onlyOwner {... */\n      jump\t// out\n        /* \"contracts/Fund_ido.sol\":218:246  uint256 public startDateTime */\n    tag_35:\n      sload(0x01)\n      dup2\n      jump\t// out\n        /* \"contracts/Fund_ido.sol\":299:325  address[] public whitelist */\n    tag_41:\n      0x04\n      dup2\n      dup2\n      sload\n      dup2\n      lt\n      tag_118\n      jumpi\n      0x00\n      dup1\n      revert\n    tag_118:\n      swap1\n      0x00\n      mstore\n      keccak256(0x00, 0x20)\n      add\n      0x00\n      swap2\n      pop\n      sload\n      swap1\n      0x0100\n      exp\n      swap1\n      div\n      0xffffffffffffffffffffffffffffffffffffffff\n      and\n      dup2\n      jump\t// out\n        /* \"@openzeppelin/contracts/access/Ownable.sol\":1201:1286  function owner() public view virtual returns (address) {... */\n    tag_46:\n        /* \"@openzeppelin/contracts/access/Ownable.sol\":1247:1254  address */\n      0x00\n        /* \"@openzeppelin/contracts/access/Ownable.sol\":1273:1279  _owner */\n      dup1\n      0x00\n      swap1\n      sload\n      swap1\n      0x0100\n      exp\n      swap1\n      div\n      0xffffffffffffffffffffffffffffffffffffffff\n      and\n        /* \"@openzeppelin/contracts/access/Ownable.sol\":1266:1279  return _owner */\n      swap1\n      pop\n        /* \"@openzeppelin/contracts/access/Ownable.sol\":1201:1286  function owner() public view virtual returns (address) {... */\n      swap1\n      jump\t// out\n        /* \"@openzeppelin/contracts/access/Ownable.sol\":2081:2279  function transferOwnership(address newOwner) public virtual onlyOwner {... */\n    tag_51:\n        /* \"@openzeppelin/contracts/access/Ownable.sol\":1094:1107  _checkOwner() */\n      tag_122\n        /* \"@openzeppelin/contracts/access/Ownable.sol\":1094:1105  _checkOwner */\n      tag_114\n        /* \"@openzeppelin/contracts/access/Ownable.sol\":1094:1107  _checkOwner() */\n      jump\t// in\n    tag_122:\n        /* \"@openzeppelin/contracts/access/Ownable.sol\":2189:2190  0 */\n      0x00\n        /* \"@openzeppelin/contracts/access/Ownable.sol\":2169:2191  newOwner != address(0) */\n      0xffffffffffffffffffffffffffffffffffffffff\n      and\n        /* \"@openzeppelin/contracts/access/Ownable.sol\":2169:2177  newOwner */\n      dup2\n        /* \"@openzeppelin/contracts/access/Ownable.sol\":2169:2191  newOwner != address(0) */\n      0xffffffffffffffffffffffffffffffffffffffff\n      and\n      eq\n      iszero\n        /* \"@openzeppelin/contracts/access/Ownable.sol\":2161:2234  require(newOwner != address(0), \"Ownable: new owner is the zero address\") */\n      tag_124\n      jumpi\n      mload(0x40)\n      0x08c379a000000000000000000000000000000000000000000000000000000000\n      dup2\n      mstore\n      0x04\n      add\n      tag_125\n      swap1\n      tag_126\n      jump\t// in\n    tag_125:\n      mload(0x40)\n      dup1\n      swap2\n      sub\n      swap1\n      revert\n    tag_124:\n        /* \"@openzeppelin/contracts/access/Ownable.sol\":2244:2272  _transferOwnership(newOwner) */\n      tag_127\n        /* \"@openzeppelin/contracts/access/Ownable.sol\":2263:2271  newOwner */\n      dup2\n        /* \"@openzeppelin/contracts/access/Ownable.sol\":2244:2262  _transferOwnership */\n      tag_117\n        /* \"@openzeppelin/contracts/access/Ownable.sol\":2244:2272  _transferOwnership(newOwner) */\n      jump\t// in\n    tag_127:\n        /* \"@openzeppelin/contracts/access/Ownable.sol\":2081:2279  function transferOwnership(address newOwner) public virtual onlyOwner {... */\n      pop\n      jump\t// out\n        /* \"contracts/Fund_ido.sol\":412:444  IUniswapV2Router02 public router */\n    tag_54:\n      0x07\n      0x00\n      swap1\n      sload\n      swap1\n      0x0100\n      exp\n      swap1\n      div\n      0xffffffffffffffffffffffffffffffffffffffff\n      and\n      dup2\n      jump\t// out\n        /* \"@openzeppelin/contracts/access/Ownable.sol\":1359:1489  function _checkOwner() internal view virtual {... */\n    tag_114:\n        /* \"@openzeppelin/contracts/access/Ownable.sol\":1433:1445  _msgSender() */\n      tag_129\n        /* \"@openzeppelin/contracts/access/Ownable.sol\":1433:1443  _msgSender */\n      tag_130\n        /* \"@openzeppelin/contracts/access/Ownable.sol\":1433:1445  _msgSender() */\n      jump\t// in\n    tag_129:\n        /* \"@openzeppelin/contracts/access/Ownable.sol\":1422:1445  owner() == _msgSender() */\n      0xffffffffffffffffffffffffffffffffffffffff\n      and\n        /* \"@openzeppelin/contracts/access/Ownable.sol\":1422:1429  owner() */\n      tag_131\n        /* \"@openzeppelin/contracts/access/Ownable.sol\":1422:1427  owner */\n      tag_46\n        /* \"@openzeppelin/contracts/access/Ownable.sol\":1422:1429  owner() */\n      jump\t// in\n    tag_131:\n        /* \"@openzeppelin/contracts/access/Ownable.sol\":1422:1445  owner() == _msgSender() */\n      0xffffffffffffffffffffffffffffffffffffffff\n      and\n      eq\n        /* \"@openzeppelin/contracts/access/Ownable.sol\":1414:1482  require(owner() == _msgSender(), \"Ownable: caller is not the owner\") */\n      tag_132\n      jumpi\n      mload(0x40)\n      0x08c379a000000000000000000000000000000000000000000000000000000000\n      dup2\n      mstore\n      0x04\n      add\n      tag_133\n      swap1\n      tag_134\n      jump\t// in\n    tag_133:\n      mload(0x40)\n      dup1\n      swap2\n      sub\n      swap1\n      revert\n    tag_132:\n        /* \"@openzeppelin/contracts/access/Ownable.sol\":1359:1489  function _checkOwner() internal view virtual {... */\n      jump\t// out\n        /* \"@openzeppelin/contracts/access/Ownable.sol\":2433:2620  function _transferOwnership(address newOwner) internal virtual {... */\n    tag_117:\n        /* \"@openzeppelin/contracts/access/Ownable.sol\":2506:2522  address oldOwner */\n      0x00\n        /* \"@openzeppelin/contracts/access/Ownable.sol\":2525:2531  _owner */\n      dup1\n      0x00\n      swap1\n      sload\n      swap1\n      0x0100\n      exp\n      swap1\n      div\n      0xffffffffffffffffffffffffffffffffffffffff\n      and\n        /* \"@openzeppelin/contracts/access/Ownable.sol\":2506:2531  address oldOwner = _owner */\n      swap1\n      pop\n        /* \"@openzeppelin/contracts/access/Ownable.sol\":2550:2558  newOwner */\n      dup2\n        /* \"@openzeppelin/contracts/access/Ownable.sol\":2541:2547  _owner */\n      0x00\n      dup1\n        /* \"@openzeppelin/contracts/access/Ownable.sol\":2541:2558  _owner = newOwner */\n      0x0100\n      exp\n      dup2\n      sload\n      dup2\n      0xffffffffffffffffffffffffffffffffffffffff\n      mul\n      not\n      and\n      swap1\n      dup4\n      0xffffffffffffffffffffffffffffffffffffffff\n      and\n      mul\n      or\n      swap1\n      sstore\n      pop\n        /* \"@openzeppelin/contracts/access/Ownable.sol\":2604:2612  newOwner */\n      dup2\n        /* \"@openzeppelin/contracts/access/Ownable.sol\":2573:2613  OwnershipTransferred(oldOwner, newOwner) */\n      0xffffffffffffffffffffffffffffffffffffffff\n      and\n        /* \"@openzeppelin/contracts/access/Ownable.sol\":2594:2602  oldOwner */\n      dup2\n        /* \"@openzeppelin/contracts/access/Ownable.sol\":2573:2613  OwnershipTransferred(oldOwner, newOwner) */\n      0xffffffffffffffffffffffffffffffffffffffff\n      and\n      0x8be0079c531659141344cd1fd0a4f28419497f9722a3daafe3b4186f6b6457e0\n      mload(0x40)\n      mload(0x40)\n      dup1\n      swap2\n      sub\n      swap1\n      log3\n        /* \"@openzeppelin/contracts/access/Ownable.sol\":2496:2620  {... */\n      pop\n        /* \"@openzeppelin/contracts/access/Ownable.sol\":2433:2620  function _transferOwnership(address newOwner) internal virtual {... */\n      pop\n      jump\t// out\n        /* \"@openzeppelin/contracts/utils/Context.sol\":640:736  function _msgSender() internal view virtual returns (address) {... */\n    tag_130:\n        /* \"@openzeppelin/contracts/utils/Context.sol\":693:700  address */\n      0x00\n        /* \"@openzeppelin/contracts/utils/Context.sol\":719:729  msg.sender */\n      caller\n        /* \"@openzeppelin/contracts/utils/Context.sol\":712:729  return msg.sender */\n      swap1\n      pop\n        /* \"@openzeppelin/contracts/utils/Context.sol\":640:736  function _msgSender() internal view virtual returns (address) {... */\n      swap1\n      jump\t// out\n        /* \"#utility.yul\":7:146   */\n    tag_138:\n        /* \"#utility.yul\":53:58   */\n      0x00\n        /* \"#utility.yul\":91:97   */\n      dup2\n        /* \"#utility.yul\":78:98   */\n      calldataload\n        /* \"#utility.yul\":69:98   */\n      swap1\n      pop\n        /* \"#utility.yul\":107:140   */\n      tag_140\n        /* \"#utility.yul\":134:139   */\n      dup2\n        /* \"#utility.yul\":107:140   */\n      tag_141\n      jump\t// in\n    tag_140:\n        /* \"#utility.yul\":7:146   */\n      swap3\n      swap2\n      pop\n      pop\n      jump\t// out\n        /* \"#utility.yul\":152:291   */\n    tag_142:\n        /* \"#utility.yul\":198:203   */\n      0x00\n        /* \"#utility.yul\":236:242   */\n      dup2\n        /* \"#utility.yul\":223:243   */\n      calldataload\n        /* \"#utility.yul\":214:243   */\n      swap1\n      pop\n        /* \"#utility.yul\":252:285   */\n      tag_144\n        /* \"#utility.yul\":279:284   */\n      dup2\n        /* \"#utility.yul\":252:285   */\n      tag_145\n      jump\t// in\n    tag_144:\n        /* \"#utility.yul\":152:291   */\n      swap3\n      swap2\n      pop\n      pop\n      jump\t// out\n        /* \"#utility.yul\":297:626   */\n    tag_25:\n        /* \"#utility.yul\":356:362   */\n      0x00\n        /* \"#utility.yul\":405:407   */\n      0x20\n        /* \"#utility.yul\":393:402   */\n      dup3\n        /* \"#utility.yul\":384:391   */\n      dup5\n        /* \"#utility.yul\":380:403   */\n      sub\n        /* \"#utility.yul\":376:408   */\n      slt\n        /* \"#utility.yul\":373:492   */\n      iszero\n      tag_147\n      jumpi\n        /* \"#utility.yul\":411:490   */\n      tag_148\n      tag_149\n      jump\t// in\n    tag_148:\n        /* \"#utility.yul\":373:492   */\n    tag_147:\n        /* \"#utility.yul\":531:532   */\n      0x00\n        /* \"#utility.yul\":556:609   */\n      tag_150\n        /* \"#utility.yul\":601:608   */\n      dup5\n        /* \"#utility.yul\":592:598   */\n      dup3\n        /* \"#utility.yul\":581:590   */\n      dup6\n        /* \"#utility.yul\":577:599   */\n      add\n        /* \"#utility.yul\":556:609   */\n      tag_138\n      jump\t// in\n    tag_150:\n        /* \"#utility.yul\":546:609   */\n      swap2\n      pop\n        /* \"#utility.yul\":502:619   */\n      pop\n        /* \"#utility.yul\":297:626   */\n      swap3\n      swap2\n      pop\n      pop\n      jump\t// out\n        /* \"#utility.yul\":632:961   */\n    tag_40:\n        /* \"#utility.yul\":691:697   */\n      0x00\n        /* \"#utility.yul\":740:742   */\n      0x20\n        /* \"#utility.yul\":728:737   */\n      dup3\n        /* \"#utility.yul\":719:726   */\n      dup5\n        /* \"#utility.yul\":715:738   */\n      sub\n        /* \"#utility.yul\":711:743   */\n      slt\n        /* \"#utility.yul\":708:827   */\n      iszero\n      tag_152\n      jumpi\n        /* \"#utility.yul\":746:825   */\n      tag_153\n      tag_149\n      jump\t// in\n    tag_153:\n        /* \"#utility.yul\":708:827   */\n    tag_152:\n        /* \"#utility.yul\":866:867   */\n      0x00\n        /* \"#utility.yul\":891:944   */\n      tag_154\n        /* \"#utility.yul\":936:943   */\n      dup5\n        /* \"#utility.yul\":927:933   */\n      dup3\n        /* \"#utility.yul\":916:925   */\n      dup6\n        /* \"#utility.yul\":912:934   */\n      add\n        /* \"#utility.yul\":891:944   */\n      tag_142\n      jump\t// in\n    tag_154:\n        /* \"#utility.yul\":881:944   */\n      swap2\n      pop\n        /* \"#utility.yul\":837:954   */\n      pop\n        /* \"#utility.yul\":632:961   */\n      swap3\n      swap2\n      pop\n      pop\n      jump\t// out\n        /* \"#utility.yul\":967:1085   */\n    tag_155:\n        /* \"#utility.yul\":1054:1078   */\n      tag_157\n        /* \"#utility.yul\":1072:1077   */\n      dup2\n        /* \"#utility.yul\":1054:1078   */\n      tag_158\n      jump\t// in\n    tag_157:\n        /* \"#utility.yul\":1049:1052   */\n      dup3\n        /* \"#utility.yul\":1042:1079   */\n      mstore\n        /* \"#utility.yul\":967:1085   */\n      pop\n      pop\n      jump\t// out\n        /* \"#utility.yul\":1091:1274   */\n    tag_159:\n        /* \"#utility.yul\":1204:1267   */\n      tag_161\n        /* \"#utility.yul\":1261:1266   */\n      dup2\n        /* \"#utility.yul\":1204:1267   */\n      tag_162\n      jump\t// in\n    tag_161:\n        /* \"#utility.yul\":1199:1202   */\n      dup3\n        /* \"#utility.yul\":1192:1268   */\n      mstore\n        /* \"#utility.yul\":1091:1274   */\n      pop\n      pop\n      jump\t// out\n        /* \"#utility.yul\":1280:1646   */\n    tag_163:\n        /* \"#utility.yul\":1422:1425   */\n      0x00\n        /* \"#utility.yul\":1443:1510   */\n      tag_165\n        /* \"#utility.yul\":1507:1509   */\n      0x26\n        /* \"#utility.yul\":1502:1505   */\n      dup4\n        /* \"#utility.yul\":1443:1510   */\n      tag_166\n      jump\t// in\n    tag_165:\n        /* \"#utility.yul\":1436:1510   */\n      swap2\n      pop\n        /* \"#utility.yul\":1519:1612   */\n      tag_167\n        /* \"#utility.yul\":1608:1611   */\n      dup3\n        /* \"#utility.yul\":1519:1612   */\n      tag_168\n      jump\t// in\n    tag_167:\n        /* \"#utility.yul\":1637:1639   */\n      0x40\n        /* \"#utility.yul\":1632:1635   */\n      dup3\n        /* \"#utility.yul\":1628:1640   */\n      add\n        /* \"#utility.yul\":1621:1640   */\n      swap1\n      pop\n        /* \"#utility.yul\":1280:1646   */\n      swap2\n      swap1\n      pop\n      jump\t// out\n        /* \"#utility.yul\":1652:2018   */\n    tag_169:\n        /* \"#utility.yul\":1794:1797   */\n      0x00\n        /* \"#utility.yul\":1815:1882   */\n      tag_171\n        /* \"#utility.yul\":1879:1881   */\n      0x10\n        /* \"#utility.yul\":1874:1877   */\n      dup4\n        /* \"#utility.yul\":1815:1882   */\n      tag_166\n      jump\t// in\n    tag_171:\n        /* \"#utility.yul\":1808:1882   */\n      swap2\n      pop\n        /* \"#utility.yul\":1891:1984   */\n      tag_172\n        /* \"#utility.yul\":1980:1983   */\n      dup3\n        /* \"#utility.yul\":1891:1984   */\n      tag_173\n      jump\t// in\n    tag_172:\n        /* \"#utility.yul\":2009:2011   */\n      0x20\n        /* \"#utility.yul\":2004:2007   */\n      dup3\n        /* \"#utility.yul\":2000:2012   */\n      add\n        /* \"#utility.yul\":1993:2012   */\n      swap1\n      pop\n        /* \"#utility.yul\":1652:2018   */\n      swap2\n      swap1\n      pop\n      jump\t// out\n        /* \"#utility.yul\":2024:2390   */\n    tag_174:\n        /* \"#utility.yul\":2166:2169   */\n      0x00\n        /* \"#utility.yul\":2187:2254   */\n      tag_176\n        /* \"#utility.yul\":2251:2253   */\n      0x12\n        /* \"#utility.yul\":2246:2249   */\n      dup4\n        /* \"#utility.yul\":2187:2254   */\n      tag_166\n      jump\t// in\n    tag_176:\n        /* \"#utility.yul\":2180:2254   */\n      swap2\n      pop\n        /* \"#utility.yul\":2263:2356   */\n      tag_177\n        /* \"#utility.yul\":2352:2355   */\n      dup3\n        /* \"#utility.yul\":2263:2356   */\n      tag_178\n      jump\t// in\n    tag_177:\n        /* \"#utility.yul\":2381:2383   */\n      0x20\n        /* \"#utility.yul\":2376:2379   */\n      dup3\n        /* \"#utility.yul\":2372:2384   */\n      add\n        /* \"#utility.yul\":2365:2384   */\n      swap1\n      pop\n        /* \"#utility.yul\":2024:2390   */\n      swap2\n      swap1\n      pop\n      jump\t// out\n        /* \"#utility.yul\":2396:2762   */\n    tag_179:\n        /* \"#utility.yul\":2538:2541   */\n      0x00\n        /* \"#utility.yul\":2559:2626   */\n      tag_181\n        /* \"#utility.yul\":2623:2625   */\n      0x20\n        /* \"#utility.yul\":2618:2621   */\n      dup4\n        /* \"#utility.yul\":2559:2626   */\n      tag_166\n      jump\t// in\n    tag_181:\n        /* \"#utility.yul\":2552:2626   */\n      swap2\n      pop\n        /* \"#utility.yul\":2635:2728   */\n      tag_182\n        /* \"#utility.yul\":2724:2727   */\n      dup3\n        /* \"#utility.yul\":2635:2728   */\n      tag_183\n      jump\t// in\n    tag_182:\n        /* \"#utility.yul\":2753:2755   */\n      0x20\n        /* \"#utility.yul\":2748:2751   */\n      dup3\n        /* \"#utility.yul\":2744:2756   */\n      add\n        /* \"#utility.yul\":2737:2756   */\n      swap1\n      pop\n        /* \"#utility.yul\":2396:2762   */\n      swap2\n      swap1\n      pop\n      jump\t// out\n        /* \"#utility.yul\":2768:3166   */\n    tag_184:\n        /* \"#utility.yul\":2927:2930   */\n      0x00\n        /* \"#utility.yul\":2948:3031   */\n      tag_186\n        /* \"#utility.yul\":3029:3030   */\n      0x00\n        /* \"#utility.yul\":3024:3027   */\n      dup4\n        /* \"#utility.yul\":2948:3031   */\n      tag_187\n      jump\t// in\n    tag_186:\n        /* \"#utility.yul\":2941:3031   */\n      swap2\n      pop\n        /* \"#utility.yul\":3040:3133   */\n      tag_188\n        /* \"#utility.yul\":3129:3132   */\n      dup3\n        /* \"#utility.yul\":3040:3133   */\n      tag_189\n      jump\t// in\n    tag_188:\n        /* \"#utility.yul\":3158:3159   */\n      0x00\n        /* \"#utility.yul\":3153:3156   */\n      dup3\n        /* \"#utility.yul\":3149:3160   */\n      add\n        /* \"#utility.yul\":3142:3160   */\n      swap1\n      pop\n        /* \"#utility.yul\":2768:3166   */\n      swap2\n      swap1\n      pop\n      jump\t// out\n        /* \"#utility.yul\":3172:3538   */\n    tag_190:\n        /* \"#utility.yul\":3314:3317   */\n      0x00\n        /* \"#utility.yul\":3335:3402   */\n      tag_192\n        /* \"#utility.yul\":3399:3401   */\n      0x14\n        /* \"#utility.yul\":3394:3397   */\n      dup4\n        /* \"#utility.yul\":3335:3402   */\n      tag_166\n      jump\t// in\n    tag_192:\n        /* \"#utility.yul\":3328:3402   */\n      swap2\n      pop\n        /* \"#utility.yul\":3411:3504   */\n      tag_193\n        /* \"#utility.yul\":3500:3503   */\n      dup3\n        /* \"#utility.yul\":3411:3504   */\n      tag_194\n      jump\t// in\n    tag_193:\n        /* \"#utility.yul\":3529:3531   */\n      0x20\n        /* \"#utility.yul\":3524:3527   */\n      dup3\n        /* \"#utility.yul\":3520:3532   */\n      add\n        /* \"#utility.yul\":3513:3532   */\n      swap1\n      pop\n        /* \"#utility.yul\":3172:3538   */\n      swap2\n      swap1\n      pop\n      jump\t// out\n        /* \"#utility.yul\":3544:3910   */\n    tag_195:\n        /* \"#utility.yul\":3686:3689   */\n      0x00\n        /* \"#utility.yul\":3707:3774   */\n      tag_197\n        /* \"#utility.yul\":3771:3773   */\n      0x14\n        /* \"#utility.yul\":3766:3769   */\n      dup4\n        /* \"#utility.yul\":3707:3774   */\n      tag_166\n      jump\t// in\n    tag_197:\n        /* \"#utility.yul\":3700:3774   */\n      swap2\n      pop\n        /* \"#utility.yul\":3783:3876   */\n      tag_198\n        /* \"#utility.yul\":3872:3875   */\n      dup3\n        /* \"#utility.yul\":3783:3876   */\n      tag_199\n      jump\t// in\n    tag_198:\n        /* \"#utility.yul\":3901:3903   */\n      0x20\n        /* \"#utility.yul\":3896:3899   */\n      dup3\n        /* \"#utility.yul\":3892:3904   */\n      add\n        /* \"#utility.yul\":3885:3904   */\n      swap1\n      pop\n        /* \"#utility.yul\":3544:3910   */\n      swap2\n      swap1\n      pop\n      jump\t// out\n        /* \"#utility.yul\":3916:4282   */\n    tag_200:\n        /* \"#utility.yul\":4058:4061   */\n      0x00\n        /* \"#utility.yul\":4079:4146   */\n      tag_202\n        /* \"#utility.yul\":4143:4145   */\n      0x1b\n        /* \"#utility.yul\":4138:4141   */\n      dup4\n        /* \"#utility.yul\":4079:4146   */\n      tag_166\n      jump\t// in\n    tag_202:\n        /* \"#utility.yul\":4072:4146   */\n      swap2\n      pop\n        /* \"#utility.yul\":4155:4248   */\n      tag_203\n        /* \"#utility.yul\":4244:4247   */\n      dup3\n        /* \"#utility.yul\":4155:4248   */\n      tag_204\n      jump\t// in\n    tag_203:\n        /* \"#utility.yul\":4273:4275   */\n      0x20\n        /* \"#utility.yul\":4268:4271   */\n      dup3\n        /* \"#utility.yul\":4264:4276   */\n      add\n        /* \"#utility.yul\":4257:4276   */\n      swap1\n      pop\n        /* \"#utility.yul\":3916:4282   */\n      swap2\n      swap1\n      pop\n      jump\t// out\n        /* \"#utility.yul\":4288:4406   */\n    tag_205:\n        /* \"#utility.yul\":4375:4399   */\n      tag_207\n        /* \"#utility.yul\":4393:4398   */\n      dup2\n        /* \"#utility.yul\":4375:4399   */\n      tag_208\n      jump\t// in\n    tag_207:\n        /* \"#utility.yul\":4370:4373   */\n      dup3\n        /* \"#utility.yul\":4363:4400   */\n      mstore\n        /* \"#utility.yul\":4288:4406   */\n      pop\n      pop\n      jump\t// out\n        /* \"#utility.yul\":4412:4791   */\n    tag_105:\n        /* \"#utility.yul\":4596:4599   */\n      0x00\n        /* \"#utility.yul\":4618:4765   */\n      tag_210\n        /* \"#utility.yul\":4761:4764   */\n      dup3\n        /* \"#utility.yul\":4618:4765   */\n      tag_184\n      jump\t// in\n    tag_210:\n        /* \"#utility.yul\":4611:4765   */\n      swap2\n      pop\n        /* \"#utility.yul\":4782:4785   */\n      dup2\n        /* \"#utility.yul\":4775:4785   */\n      swap1\n      pop\n        /* \"#utility.yul\":4412:4791   */\n      swap2\n      swap1\n      pop\n      jump\t// out\n        /* \"#utility.yul\":4797:5019   */\n    tag_43:\n        /* \"#utility.yul\":4890:4894   */\n      0x00\n        /* \"#utility.yul\":4928:4930   */\n      0x20\n        /* \"#utility.yul\":4917:4926   */\n      dup3\n        /* \"#utility.yul\":4913:4931   */\n      add\n        /* \"#utility.yul\":4905:4931   */\n      swap1\n      pop\n        /* \"#utility.yul\":4941:5012   */\n      tag_212\n        /* \"#utility.yul\":5009:5010   */\n      0x00\n        /* \"#utility.yul\":4998:5007   */\n      dup4\n        /* \"#utility.yul\":4994:5011   */\n      add\n        /* \"#utility.yul\":4985:4991   */\n      dup5\n        /* \"#utility.yul\":4941:5012   */\n      tag_155\n      jump\t// in\n    tag_212:\n        /* \"#utility.yul\":4797:5019   */\n      swap3\n      swap2\n      pop\n      pop\n      jump\t// out\n        /* \"#utility.yul\":5025:5299   */\n    tag_56:\n        /* \"#utility.yul\":5144:5148   */\n      0x00\n        /* \"#utility.yul\":5182:5184   */\n      0x20\n        /* \"#utility.yul\":5171:5180   */\n      dup3\n        /* \"#utility.yul\":5167:5185   */\n      add\n        /* \"#utility.yul\":5159:5185   */\n      swap1\n      pop\n        /* \"#utility.yul\":5195:5292   */\n      tag_214\n        /* \"#utility.yul\":5289:5290   */\n      0x00\n        /* \"#utility.yul\":5278:5287   */\n      dup4\n        /* \"#utility.yul\":5274:5291   */\n      add\n        /* \"#utility.yul\":5265:5271   */\n      dup5\n        /* \"#utility.yul\":5195:5292   */\n      tag_159\n      jump\t// in\n    tag_214:\n        /* \"#utility.yul\":5025:5299   */\n      swap3\n      swap2\n      pop\n      pop\n      jump\t// out\n        /* \"#utility.yul\":5305:5724   */\n    tag_126:\n        /* \"#utility.yul\":5471:5475   */\n      0x00\n        /* \"#utility.yul\":5509:5511   */\n      0x20\n        /* \"#utility.yul\":5498:5507   */\n      dup3\n        /* \"#utility.yul\":5494:5512   */\n      add\n        /* \"#utility.yul\":5486:5512   */\n      swap1\n      pop\n        /* \"#utility.yul\":5558:5567   */\n      dup2\n        /* \"#utility.yul\":5552:5556   */\n      dup2\n        /* \"#utility.yul\":5548:5568   */\n      sub\n        /* \"#utility.yul\":5544:5545   */\n      0x00\n        /* \"#utility.yul\":5533:5542   */\n      dup4\n        /* \"#utility.yul\":5529:5546   */\n      add\n        /* \"#utility.yul\":5522:5569   */\n      mstore\n        /* \"#utility.yul\":5586:5717   */\n      tag_216\n        /* \"#utility.yul\":5712:5716   */\n      dup2\n        /* \"#utility.yul\":5586:5717   */\n      tag_163\n      jump\t// in\n    tag_216:\n        /* \"#utility.yul\":5578:5717   */\n      swap1\n      pop\n        /* \"#utility.yul\":5305:5724   */\n      swap2\n      swap1\n      pop\n      jump\t// out\n        /* \"#utility.yul\":5730:6149   */\n    tag_68:\n        /* \"#utility.yul\":5896:5900   */\n      0x00\n        /* \"#utility.yul\":5934:5936   */\n      0x20\n        /* \"#utility.yul\":5923:5932   */\n      dup3\n        /* \"#utility.yul\":5919:5937   */\n      add\n        /* \"#utility.yul\":5911:5937   */\n      swap1\n      pop\n        /* \"#utility.yul\":5983:5992   */\n      dup2\n        /* \"#utility.yul\":5977:5981   */\n      dup2\n        /* \"#utility.yul\":5973:5993   */\n      sub\n        /* \"#utility.yul\":5969:5970   */\n      0x00\n        /* \"#utility.yul\":5958:5967   */\n      dup4\n        /* \"#utility.yul\":5954:5971   */\n      add\n        /* \"#utility.yul\":5947:5994   */\n      mstore\n        /* \"#utility.yul\":6011:6142   */\n      tag_218\n        /* \"#utility.yul\":6137:6141   */\n      dup2\n        /* \"#utility.yul\":6011:6142   */\n      tag_169\n      jump\t// in\n    tag_218:\n        /* \"#utility.yul\":6003:6142   */\n      swap1\n      pop\n        /* \"#utility.yul\":5730:6149   */\n      swap2\n      swap1\n      pop\n      jump\t// out\n        /* \"#utility.yul\":6155:6574   */\n    tag_63:\n        /* \"#utility.yul\":6321:6325   */\n      0x00\n        /* \"#utility.yul\":6359:6361   */\n      0x20\n        /* \"#utility.yul\":6348:6357   */\n      dup3\n        /* \"#utility.yul\":6344:6362   */\n      add\n        /* \"#utility.yul\":6336:6362   */\n      swap1\n      pop\n        /* \"#utility.yul\":6408:6417   */\n      dup2\n        /* \"#utility.yul\":6402:6406   */\n      dup2\n        /* \"#utility.yul\":6398:6418   */\n      sub\n        /* \"#utility.yul\":6394:6395   */\n      0x00\n        /* \"#utility.yul\":6383:6392   */\n      dup4\n        /* \"#utility.yul\":6379:6396   */\n      add\n        /* \"#utility.yul\":6372:6419   */\n      mstore\n        /* \"#utility.yul\":6436:6567   */\n      tag_220\n        /* \"#utility.yul\":6562:6566   */\n      dup2\n        /* \"#utility.yul\":6436:6567   */\n      tag_174\n      jump\t// in\n    tag_220:\n        /* \"#utility.yul\":6428:6567   */\n      swap1\n      pop\n        /* \"#utility.yul\":6155:6574   */\n      swap2\n      swap1\n      pop\n      jump\t// out\n        /* \"#utility.yul\":6580:6999   */\n    tag_134:\n        /* \"#utility.yul\":6746:6750   */\n      0x00\n        /* \"#utility.yul\":6784:6786   */\n      0x20\n        /* \"#utility.yul\":6773:6782   */\n      dup3\n        /* \"#utility.yul\":6769:6787   */\n      add\n        /* \"#utility.yul\":6761:6787   */\n      swap1\n      pop\n        /* \"#utility.yul\":6833:6842   */\n      dup2\n        /* \"#utility.yul\":6827:6831   */\n      dup2\n        /* \"#utility.yul\":6823:6843   */\n      sub\n        /* \"#utility.yul\":6819:6820   */\n      0x00\n        /* \"#utility.yul\":6808:6817   */\n      dup4\n        /* \"#utility.yul\":6804:6821   */\n      add\n        /* \"#utility.yul\":6797:6844   */\n      mstore\n        /* \"#utility.yul\":6861:6992   */\n      tag_222\n        /* \"#utility.yul\":6987:6991   */\n      dup2\n        /* \"#utility.yul\":6861:6992   */\n      tag_179\n      jump\t// in\n    tag_222:\n        /* \"#utility.yul\":6853:6992   */\n      swap1\n      pop\n        /* \"#utility.yul\":6580:6999   */\n      swap2\n      swap1\n      pop\n      jump\t// out\n        /* \"#utility.yul\":7005:7424   */\n    tag_60:\n        /* \"#utility.yul\":7171:7175   */\n      0x00\n        /* \"#utility.yul\":7209:7211   */\n      0x20\n        /* \"#utility.yul\":7198:7207   */\n      dup3\n        /* \"#utility.yul\":7194:7212   */\n      add\n        /* \"#utility.yul\":7186:7212   */\n      swap1\n      pop\n        /* \"#utility.yul\":7258:7267   */\n      dup2\n        /* \"#utility.yul\":7252:7256   */\n      dup2\n        /* \"#utility.yul\":7248:7268   */\n      sub\n        /* \"#utility.yul\":7244:7245   */\n      0x00\n        /* \"#utility.yul\":7233:7242   */\n      dup4\n        /* \"#utility.yul\":7229:7246   */\n      add\n        /* \"#utility.yul\":7222:7269   */\n      mstore\n        /* \"#utility.yul\":7286:7417   */\n      tag_224\n        /* \"#utility.yul\":7412:7416   */\n      dup2\n        /* \"#utility.yul\":7286:7417   */\n      tag_190\n      jump\t// in\n    tag_224:\n        /* \"#utility.yul\":7278:7417   */\n      swap1\n      pop\n        /* \"#utility.yul\":7005:7424   */\n      swap2\n      swap1\n      pop\n      jump\t// out\n        /* \"#utility.yul\":7430:7849   */\n    tag_111:\n        /* \"#utility.yul\":7596:7600   */\n      0x00\n        /* \"#utility.yul\":7634:7636   */\n      0x20\n        /* \"#utility.yul\":7623:7632   */\n      dup3\n        /* \"#utility.yul\":7619:7637   */\n      add\n        /* \"#utility.yul\":7611:7637   */\n      swap1\n      pop\n        /* \"#utility.yul\":7683:7692   */\n      dup2\n        /* \"#utility.yul\":7677:7681   */\n      dup2\n        /* \"#utility.yul\":7673:7693   */\n      sub\n        /* \"#utility.yul\":7669:7670   */\n      0x00\n        /* \"#utility.yul\":7658:7667   */\n      dup4\n        /* \"#utility.yul\":7654:7671   */\n      add\n        /* \"#utility.yul\":7647:7694   */\n      mstore\n        /* \"#utility.yul\":7711:7842   */\n      tag_226\n        /* \"#utility.yul\":7837:7841   */\n      dup2\n        /* \"#utility.yul\":7711:7842   */\n      tag_195\n      jump\t// in\n    tag_226:\n        /* \"#utility.yul\":7703:7842   */\n      swap1\n      pop\n        /* \"#utility.yul\":7430:7849   */\n      swap2\n      swap1\n      pop\n      jump\t// out\n        /* \"#utility.yul\":7855:8274   */\n    tag_81:\n        /* \"#utility.yul\":8021:8025   */\n      0x00\n        /* \"#utility.yul\":8059:8061   */\n      0x20\n        /* \"#utility.yul\":8048:8057   */\n      dup3\n        /* \"#utility.yul\":8044:8062   */\n      add\n        /* \"#utility.yul\":8036:8062   */\n      swap1\n      pop\n        /* \"#utility.yul\":8108:8117   */\n      dup2\n        /* \"#utility.yul\":8102:8106   */\n      dup2\n        /* \"#utility.yul\":8098:8118   */\n      sub\n        /* \"#utility.yul\":8094:8095   */\n      0x00\n        /* \"#utility.yul\":8083:8092   */\n      dup4\n        /* \"#utility.yul\":8079:8096   */\n      add\n        /* \"#utility.yul\":8072:8119   */\n      mstore\n        /* \"#utility.yul\":8136:8267   */\n      tag_228\n        /* \"#utility.yul\":8262:8266   */\n      dup2\n        /* \"#utility.yul\":8136:8267   */\n      tag_200\n      jump\t// in\n    tag_228:\n        /* \"#utility.yul\":8128:8267   */\n      swap1\n      pop\n        /* \"#utility.yul\":7855:8274   */\n      swap2\n      swap1\n      pop\n      jump\t// out\n        /* \"#utility.yul\":8280:8502   */\n    tag_17:\n        /* \"#utility.yul\":8373:8377   */\n      0x00\n        /* \"#utility.yul\":8411:8413   */\n      0x20\n        /* \"#utility.yul\":8400:8409   */\n      dup3\n        /* \"#utility.yul\":8396:8414   */\n      add\n        /* \"#utility.yul\":8388:8414   */\n      swap1\n      pop\n        /* \"#utility.yul\":8424:8495   */\n      tag_230\n        /* \"#utility.yul\":8492:8493   */\n      0x00\n        /* \"#utility.yul\":8481:8490   */\n      dup4\n        /* \"#utility.yul\":8477:8494   */\n      add\n        /* \"#utility.yul\":8468:8474   */\n      dup5\n        /* \"#utility.yul\":8424:8495   */\n      tag_205\n      jump\t// in\n    tag_230:\n        /* \"#utility.yul\":8280:8502   */\n      swap3\n      swap2\n      pop\n      pop\n      jump\t// out\n        /* \"#utility.yul\":8589:8736   */\n    tag_187:\n        /* \"#utility.yul\":8690:8701   */\n      0x00\n        /* \"#utility.yul\":8727:8730   */\n      dup2\n        /* \"#utility.yul\":8712:8730   */\n      swap1\n      pop\n        /* \"#utility.yul\":8589:8736   */\n      swap3\n      swap2\n      pop\n      pop\n      jump\t// out\n        /* \"#utility.yul\":8742:8911   */\n    tag_166:\n        /* \"#utility.yul\":8826:8837   */\n      0x00\n        /* \"#utility.yul\":8860:8866   */\n      dup3\n        /* \"#utility.yul\":8855:8858   */\n      dup3\n        /* \"#utility.yul\":8848:8867   */\n      mstore\n        /* \"#utility.yul\":8900:8904   */\n      0x20\n        /* \"#utility.yul\":8895:8898   */\n      dup3\n        /* \"#utility.yul\":8891:8905   */\n      add\n        /* \"#utility.yul\":8876:8905   */\n      swap1\n      pop\n        /* \"#utility.yul\":8742:8911   */\n      swap3\n      swap2\n      pop\n      pop\n      jump\t// out\n        /* \"#utility.yul\":8917:9222   */\n    tag_65:\n        /* \"#utility.yul\":8957:8960   */\n      0x00\n        /* \"#utility.yul\":8976:8996   */\n      tag_236\n        /* \"#utility.yul\":8994:8995   */\n      dup3\n        /* \"#utility.yul\":8976:8996   */\n      tag_208\n      jump\t// in\n    tag_236:\n        /* \"#utility.yul\":8971:8996   */\n      swap2\n      pop\n        /* \"#utility.yul\":9010:9030   */\n      tag_237\n        /* \"#utility.yul\":9028:9029   */\n      dup4\n        /* \"#utility.yul\":9010:9030   */\n      tag_208\n      jump\t// in\n    tag_237:\n        /* \"#utility.yul\":9005:9030   */\n      swap3\n      pop\n        /* \"#utility.yul\":9164:9165   */\n      dup3\n        /* \"#utility.yul\":9096:9162   */\n      0xffffffffffffffffffffffffffffffffffffffffffffffffffffffffffffffff\n        /* \"#utility.yul\":9092:9166   */\n      sub\n        /* \"#utility.yul\":9089:9090   */\n      dup3\n        /* \"#utility.yul\":9086:9167   */\n      gt\n        /* \"#utility.yul\":9083:9190   */\n      iszero\n      tag_238\n      jumpi\n        /* \"#utility.yul\":9170:9188   */\n      tag_239\n      tag_240\n      jump\t// in\n    tag_239:\n        /* \"#utility.yul\":9083:9190   */\n    tag_238:\n        /* \"#utility.yul\":9214:9215   */\n      dup3\n        /* \"#utility.yul\":9211:9212   */\n      dup3\n        /* \"#utility.yul\":9207:9216   */\n      add\n        /* \"#utility.yul\":9200:9216   */\n      swap1\n      pop\n        /* \"#utility.yul\":8917:9222   */\n      swap3\n      swap2\n      pop\n      pop\n      jump\t// out\n        /* \"#utility.yul\":9228:9419   */\n    tag_92:\n        /* \"#utility.yul\":9268:9272   */\n      0x00\n        /* \"#utility.yul\":9288:9308   */\n      tag_242\n        /* \"#utility.yul\":9306:9307   */\n      dup3\n        /* \"#utility.yul\":9288:9308   */\n      tag_208\n      jump\t// in\n    tag_242:\n        /* \"#utility.yul\":9283:9308   */\n      swap2\n      pop\n        /* \"#utility.yul\":9322:9342   */\n      tag_243\n        /* \"#utility.yul\":9340:9341   */\n      dup4\n        /* \"#utility.yul\":9322:9342   */\n      tag_208\n      jump\t// in\n    tag_243:\n        /* \"#utility.yul\":9317:9342   */\n      swap3\n      pop\n        /* \"#utility.yul\":9361:9362   */\n      dup3\n        /* \"#utility.yul\":9358:9359   */\n      dup3\n        /* \"#utility.yul\":9355:9363   */\n      lt\n        /* \"#utility.yul\":9352:9386   */\n      iszero\n      tag_244\n      jumpi\n        /* \"#utility.yul\":9366:9384   */\n      tag_245\n      tag_240\n      jump\t// in\n    tag_245:\n        /* \"#utility.yul\":9352:9386   */\n    tag_244:\n        /* \"#utility.yul\":9411:9412   */\n      dup3\n        /* \"#utility.yul\":9408:9409   */\n      dup3\n        /* \"#utility.yul\":9404:9413   */\n      sub\n        /* \"#utility.yul\":9396:9413   */\n      swap1\n      pop\n        /* \"#utility.yul\":9228:9419   */\n      swap3\n      swap2\n      pop\n      pop\n      jump\t// out\n        /* \"#utility.yul\":9425:9521   */\n    tag_158:\n        /* \"#utility.yul\":9462:9469   */\n      0x00\n        /* \"#utility.yul\":9491:9515   */\n      tag_247\n        /* \"#utility.yul\":9509:9514   */\n      dup3\n        /* \"#utility.yul\":9491:9515   */\n      tag_248\n      jump\t// in\n    tag_247:\n        /* \"#utility.yul\":9480:9515   */\n      swap1\n      pop\n        /* \"#utility.yul\":9425:9521   */\n      swap2\n      swap1\n      pop\n      jump\t// out\n        /* \"#utility.yul\":9527:9653   */\n    tag_248:\n        /* \"#utility.yul\":9564:9571   */\n      0x00\n        /* \"#utility.yul\":9604:9646   */\n      0xffffffffffffffffffffffffffffffffffffffff\n        /* \"#utility.yul\":9597:9602   */\n      dup3\n        /* \"#utility.yul\":9593:9647   */\n      and\n        /* \"#utility.yul\":9582:9647   */\n      swap1\n      pop\n        /* \"#utility.yul\":9527:9653   */\n      swap2\n      swap1\n      pop\n      jump\t// out\n        /* \"#utility.yul\":9659:9736   */\n    tag_208:\n        /* \"#utility.yul\":9696:9703   */\n      0x00\n        /* \"#utility.yul\":9725:9730   */\n      dup2\n        /* \"#utility.yul\":9714:9730   */\n      swap1\n      pop\n        /* \"#utility.yul\":9659:9736   */\n      swap2\n      swap1\n      pop\n      jump\t// out\n        /* \"#utility.yul\":9742:9894   */\n    tag_162:\n        /* \"#utility.yul\":9818:9827   */\n      0x00\n        /* \"#utility.yul\":9851:9888   */\n      tag_252\n        /* \"#utility.yul\":9882:9887   */\n      dup3\n        /* \"#utility.yul\":9851:9888   */\n      tag_253\n      jump\t// in\n    tag_252:\n        /* \"#utility.yul\":9838:9888   */\n      swap1\n      pop\n        /* \"#utility.yul\":9742:9894   */\n      swap2\n      swap1\n      pop\n      jump\t// out\n        /* \"#utility.yul\":9900:10026   */\n    tag_253:\n        /* \"#utility.yul\":9950:9959   */\n      0x00\n        /* \"#utility.yul\":9983:10020   */\n      tag_255\n        /* \"#utility.yul\":10014:10019   */\n      dup3\n        /* \"#utility.yul\":9983:10020   */\n      tag_256\n      jump\t// in\n    tag_255:\n        /* \"#utility.yul\":9970:10020   */\n      swap1\n      pop\n        /* \"#utility.yul\":9900:10026   */\n      swap2\n      swap1\n      pop\n      jump\t// out\n        /* \"#utility.yul\":10032:10145   */\n    tag_256:\n        /* \"#utility.yul\":10082:10091   */\n      0x00\n        /* \"#utility.yul\":10115:10139   */\n      tag_258\n        /* \"#utility.yul\":10133:10138   */\n      dup3\n        /* \"#utility.yul\":10115:10139   */\n      tag_248\n      jump\t// in\n    tag_258:\n        /* \"#utility.yul\":10102:10139   */\n      swap1\n      pop\n        /* \"#utility.yul\":10032:10145   */\n      swap2\n      swap1\n      pop\n      jump\t// out\n        /* \"#utility.yul\":10151:10384   */\n    tag_78:\n        /* \"#utility.yul\":10190:10193   */\n      0x00\n        /* \"#utility.yul\":10213:10237   */\n      tag_260\n        /* \"#utility.yul\":10231:10236   */\n      dup3\n        /* \"#utility.yul\":10213:10237   */\n      tag_208\n      jump\t// in\n    tag_260:\n        /* \"#utility.yul\":10204:10237   */\n      swap2\n      pop\n        /* \"#utility.yul\":10259:10325   */\n      0xffffffffffffffffffffffffffffffffffffffffffffffffffffffffffffffff\n        /* \"#utility.yul\":10252:10257   */\n      dup3\n        /* \"#utility.yul\":10249:10326   */\n      eq\n        /* \"#utility.yul\":10246:10349   */\n      iszero\n      tag_261\n      jumpi\n        /* \"#utility.yul\":10329:10347   */\n      tag_262\n      tag_240\n      jump\t// in\n    tag_262:\n        /* \"#utility.yul\":10246:10349   */\n    tag_261:\n        /* \"#utility.yul\":10376:10377   */\n      0x01\n        /* \"#utility.yul\":10369:10374   */\n      dup3\n        /* \"#utility.yul\":10365:10378   */\n      add\n        /* \"#utility.yul\":10358:10378   */\n      swap1\n      pop\n        /* \"#utility.yul\":10151:10384   */\n      swap2\n      swap1\n      pop\n      jump\t// out\n        /* \"#utility.yul\":10390:10570   */\n    tag_240:\n        /* \"#utility.yul\":10438:10515   */\n      0x4e487b7100000000000000000000000000000000000000000000000000000000\n        /* \"#utility.yul\":10435:10436   */\n      0x00\n        /* \"#utility.yul\":10428:10516   */\n      mstore\n        /* \"#utility.yul\":10535:10539   */\n      0x11\n        /* \"#utility.yul\":10532:10533   */\n      0x04\n        /* \"#utility.yul\":10525:10540   */\n      mstore\n        /* \"#utility.yul\":10559:10563   */\n      0x24\n        /* \"#utility.yul\":10556:10557   */\n      0x00\n        /* \"#utility.yul\":10549:10564   */\n      revert\n        /* \"#utility.yul\":10576:10756   */\n    tag_101:\n        /* \"#utility.yul\":10624:10701   */\n      0x4e487b7100000000000000000000000000000000000000000000000000000000\n        /* \"#utility.yul\":10621:10622   */\n      0x00\n        /* \"#utility.yul\":10614:10702   */\n      mstore\n        /* \"#utility.yul\":10721:10725   */\n      0x31\n        /* \"#utility.yul\":10718:10719   */\n      0x04\n        /* \"#utility.yul\":10711:10726   */\n      mstore\n        /* \"#utility.yul\":10745:10749   */\n      0x24\n        /* \"#utility.yul\":10742:10743   */\n      0x00\n        /* \"#utility.yul\":10735:10750   */\n      revert\n        /* \"#utility.yul\":10762:10942   */\n    tag_74:\n        /* \"#utility.yul\":10810:10887   */\n      0x4e487b7100000000000000000000000000000000000000000000000000000000\n        /* \"#utility.yul\":10807:10808   */\n      0x00\n        /* \"#utility.yul\":10800:10888   */\n      mstore\n        /* \"#utility.yul\":10907:10911   */\n      0x32\n        /* \"#utility.yul\":10904:10905   */\n      0x04\n        /* \"#utility.yul\":10897:10912   */\n      mstore\n        /* \"#utility.yul\":10931:10935   */\n      0x24\n        /* \"#utility.yul\":10928:10929   */\n      0x00\n        /* \"#utility.yul\":10921:10936   */\n      revert\n        /* \"#utility.yul\":11071:11188   */\n    tag_149:\n        /* \"#utility.yul\":11180:11181   */\n      0x00\n        /* \"#utility.yul\":11177:11178   */\n      dup1\n        /* \"#utility.yul\":11170:11182   */\n      revert\n        /* \"#utility.yul\":11194:11419   */\n    tag_168:\n        /* \"#utility.yul\":11334:11368   */\n      0x4f776e61626c653a206e6577206f776e657220697320746865207a65726f2061\n        /* \"#utility.yul\":11330:11331   */\n      0x00\n        /* \"#utility.yul\":11322:11328   */\n      dup3\n        /* \"#utility.yul\":11318:11332   */\n      add\n        /* \"#utility.yul\":11311:11369   */\n      mstore\n        /* \"#utility.yul\":11403:11411   */\n      0x6464726573730000000000000000000000000000000000000000000000000000\n        /* \"#utility.yul\":11398:11400   */\n      0x20\n        /* \"#utility.yul\":11390:11396   */\n      dup3\n        /* \"#utility.yul\":11386:11401   */\n      add\n        /* \"#utility.yul\":11379:11412   */\n      mstore\n        /* \"#utility.yul\":11194:11419   */\n      pop\n      jump\t// out\n        /* \"#utility.yul\":11425:11591   */\n    tag_173:\n        /* \"#utility.yul\":11565:11583   */\n      0x49444f3a20636170207265616368656400000000000000000000000000000000\n        /* \"#utility.yul\":11561:11562   */\n      0x00\n        /* \"#utility.yul\":11553:11559   */\n      dup3\n        /* \"#utility.yul\":11549:11563   */\n      add\n        /* \"#utility.yul\":11542:11584   */\n      mstore\n        /* \"#utility.yul\":11425:11591   */\n      pop\n      jump\t// out\n        /* \"#utility.yul\":11597:11765   */\n    tag_178:\n        /* \"#utility.yul\":11737:11757   */\n      0x49444f3a20616c726561647920656e6465640000000000000000000000000000\n        /* \"#utility.yul\":11733:11734   */\n      0x00\n        /* \"#utility.yul\":11725:11731   */\n      dup3\n        /* \"#utility.yul\":11721:11735   */\n      add\n        /* \"#utility.yul\":11714:11758   */\n      mstore\n        /* \"#utility.yul\":11597:11765   */\n      pop\n      jump\t// out\n        /* \"#utility.yul\":11771:11953   */\n    tag_183:\n        /* \"#utility.yul\":11911:11945   */\n      0x4f776e61626c653a2063616c6c6572206973206e6f7420746865206f776e6572\n        /* \"#utility.yul\":11907:11908   */\n      0x00\n        /* \"#utility.yul\":11899:11905   */\n      dup3\n        /* \"#utility.yul\":11895:11909   */\n      add\n        /* \"#utility.yul\":11888:11946   */\n      mstore\n        /* \"#utility.yul\":11771:11953   */\n      pop\n      jump\t// out\n        /* \"#utility.yul\":11959:12073   */\n    tag_189:\n      pop\n      jump\t// out\n        /* \"#utility.yul\":12079:12249   */\n    tag_194:\n        /* \"#utility.yul\":12219:12241   */\n      0x49444f3a206e6f74207374617274656420796574000000000000000000000000\n        /* \"#utility.yul\":12215:12216   */\n      0x00\n        /* \"#utility.yul\":12207:12213   */\n      dup3\n        /* \"#utility.yul\":12203:12217   */\n      add\n        /* \"#utility.yul\":12196:12242   */\n      mstore\n        /* \"#utility.yul\":12079:12249   */\n      pop\n      jump\t// out\n        /* \"#utility.yul\":12255:12425   */\n    tag_199:\n        /* \"#utility.yul\":12395:12417   */\n      0x49444f3a207472616e73666572206661696c6564000000000000000000000000\n        /* \"#utility.yul\":12391:12392   */\n      0x00\n        /* \"#utility.yul\":12383:12389   */\n      dup3\n        /* \"#utility.yul\":12379:12393   */\n      add\n        /* \"#utility.yul\":12372:12418   */\n      mstore\n        /* \"#utility.yul\":12255:12425   */\n      pop\n      jump\t// out\n        /* \"#utility.yul\":12431:12608   */\n    tag_204:\n        /* \"#utility.yul\":12571:12600   */\n      0x49444f3a2073656e646572206e6f742077686974656c69737465640000000000\n        /* \"#utility.yul\":12567:12568   */\n      0x00\n        /* \"#utility.yul\":12559:12565   */\n      dup3\n        /* \"#utility.yul\":12555:12569   */\n      add\n        /* \"#utility.yul\":12548:12601   */\n      mstore\n        /* \"#utility.yul\":12431:12608   */\n      pop\n      jump\t// out\n        /* \"#utility.yul\":12614:12736   */\n    tag_141:\n        /* \"#utility.yul\":12687:12711   */\n      tag_278\n        /* \"#utility.yul\":12705:12710   */\n      dup2\n        /* \"#utility.yul\":12687:12711   */\n      tag_158\n      jump\t// in\n    tag_278:\n        /* \"#utility.yul\":12680:12685   */\n      dup2\n        /* \"#utility.yul\":12677:12712   */\n      eq\n        /* \"#utility.yul\":12667:12730   */\n      tag_279\n      jumpi\n        /* \"#utility.yul\":12726:12727   */\n      0x00\n        /* \"#utility.yul\":12723:12724   */\n      dup1\n        /* \"#utility.yul\":12716:12728   */\n      revert\n        /* \"#utility.yul\":12667:12730   */\n    tag_279:\n        /* \"#utility.yul\":12614:12736   */\n      pop\n      jump\t// out\n        /* \"#utility.yul\":12742:12864   */\n    tag_145:\n        /* \"#utility.yul\":12815:12839   */\n      tag_281\n        /* \"#utility.yul\":12833:12838   */\n      dup2\n        /* \"#utility.yul\":12815:12839   */\n      tag_208\n      jump\t// in\n    tag_281:\n        /* \"#utility.yul\":12808:12813   */\n      dup2\n        /* \"#utility.yul\":12805:12840   */\n      eq\n        /* \"#utility.yul\":12795:12858   */\n      tag_282\n      jumpi\n        /* \"#utility.yul\":12854:12855   */\n      0x00\n        /* \"#utility.yul\":12851:12852   */\n      dup1\n        /* \"#utility.yul\":12844:12856   */\n      revert\n        /* \"#utility.yul\":12795:12858   */\n    tag_282:\n        /* \"#utility.yul\":12742:12864   */\n      pop\n      jump\t// out\n\n    auxdata: 0xa264697066735822122010af870d911d724a5b6d800e183977c9c476fc0ed3df6355205539b6dac6885f64736f6c63430008070033\n}\n",
				"bytecode": {
					"linkReferences": {},
					"object": "60806040523480156200001157600080fd5b506040516200163e3803806200163e833981810160405281019062000037919062000380565b620000576200004b6200011360201b60201c565b6200011b60201b60201c565b856001819055508460028190555083600381905550826004908051906020019062000084929190620001df565b5081600660006101000a81548173ffffffffffffffffffffffffffffffffffffffff021916908373ffffffffffffffffffffffffffffffffffffffff16021790555080600760006101000a81548173ffffffffffffffffffffffffffffffffffffffff021916908373ffffffffffffffffffffffffffffffffffffffff160217905550505050505050620005bd565b600033905090565b60008060009054906101000a900473ffffffffffffffffffffffffffffffffffffffff169050816000806101000a81548173ffffffffffffffffffffffffffffffffffffffff021916908373ffffffffffffffffffffffffffffffffffffffff1602179055508173ffffffffffffffffffffffffffffffffffffffff168173ffffffffffffffffffffffffffffffffffffffff167f8be0079c531659141344cd1fd0a4f28419497f9722a3daafe3b4186f6b6457e060405160405180910390a35050565b8280548282559060005260206000209081019282156200025b579160200282015b828111156200025a5782518260006101000a81548173ffffffffffffffffffffffffffffffffffffffff021916908373ffffffffffffffffffffffffffffffffffffffff1602179055509160200191906001019062000200565b5b5090506200026a91906200026e565b5090565b5b80821115620002895760008160009055506001016200026f565b5090565b6000620002a46200029e8462000464565b6200043b565b90508083825260208201905082856020860282011115620002ca57620002c96200054f565b5b60005b85811015620002fe5781620002e3888262000308565b845260208401935060208301925050600181019050620002cd565b5050509392505050565b60008151905062000319816200056f565b92915050565b600081519050620003308162000589565b92915050565b600082601f8301126200034e576200034d6200054a565b5b8151620003608482602086016200028d565b91505092915050565b6000815190506200037a81620005a3565b92915050565b60008060008060008060c08789031215620003a0576200039f62000559565b5b6000620003b089828a0162000369565b9650506020620003c389828a0162000369565b9550506040620003d689828a0162000369565b945050606087015167ffffffffffffffff811115620003fa57620003f962000554565b5b6200040889828a0162000336565b93505060806200041b89828a016200031f565b92505060a06200042e89828a0162000308565b9150509295509295509295565b6000620004476200045a565b9050620004558282620004e5565b919050565b6000604051905090565b600067ffffffffffffffff8211156200048257620004816200051b565b5b602082029050602081019050919050565b6000620004a082620004bb565b9050919050565b6000620004b482620004bb565b9050919050565b600073ffffffffffffffffffffffffffffffffffffffff82169050919050565b6000819050919050565b620004f0826200055e565b810181811067ffffffffffffffff821117156200051257620005116200051b565b5b80604052505050565b7f4e487b7100000000000000000000000000000000000000000000000000000000600052604160045260246000fd5b600080fd5b600080fd5b600080fd5b600080fd5b6000601f19601f8301169050919050565b6200057a8162000493565b81146200058657600080fd5b50565b6200059481620004a7565b8114620005a057600080fd5b50565b620005ae81620004db565b8114620005ba57600080fd5b50565b61107180620005cd6000396000f3fe6080604052600436106100915760003560e01c8063775f75df11610059578063775f75df1461014a5780637ebd1b30146101755780638da5cb5b146101b2578063f2fde38b146101dd578063f887ea401461020657610091565b8063355274ea146100965780633c9177cd146100c157806342e94c90146100ec578063476aa36f14610129578063715018a614610133575b600080fd5b3480156100a257600080fd5b506100ab610231565b6040516100b89190610cb7565b60405180910390f35b3480156100cd57600080fd5b506100d6610237565b6040516100e39190610cb7565b60405180910390f35b3480156100f857600080fd5b50610113600480360381019061010e91906109ed565b61023d565b6040516101209190610cb7565b60405180910390f35b610131610255565b005b34801561013f57600080fd5b5061014861074d565b005b34801561015657600080fd5b5061015f610761565b60405161016c9190610cb7565b60405180910390f35b34801561018157600080fd5b5061019c60048036038101906101979190610a1a565b610767565b6040516101a99190610ba1565b60405180910390f35b3480156101be57600080fd5b506101c76107a6565b6040516101d49190610ba1565b60405180910390f35b3480156101e957600080fd5b5061020460048036038101906101ff91906109ed565b6107cf565b005b34801561021257600080fd5b5061021b610853565b6040516102289190610bbc565b60405180910390f35b60035481565b60025481565b60056020528060005260406000206000915090505481565b60015442101561029a576040517f08c379a000000000000000000000000000000000000000000000000000000000815260040161029190610c57565b60405180910390fd5b6002544211156102df576040517f08c379a00000000000000000000000000000000000000000000000000000000081526004016102d690610c17565b60405180910390fd5b60035434600560003373ffffffffffffffffffffffffffffffffffffffff1673ffffffffffffffffffffffffffffffffffffffff1681526020019081526020016000205461032d9190610cee565b111561036e576040517f08c379a000000000000000000000000000000000000000000000000000000000815260040161036590610bf7565b60405180910390fd5b6000805b60048054905081101561040d576004818154811061039357610392610e91565b5b9060005260206000200160009054906101000a900473ffffffffffffffffffffffffffffffffffffffff1673ffffffffffffffffffffffffffffffffffffffff163373ffffffffffffffffffffffffffffffffffffffff1614156103fa576001915061040d565b808061040590610dea565b915050610372565b508061044e576040517f08c379a000000000000000000000000000000000000000000000000000000000815260040161044590610c97565b60405180910390fd5b34600560003373ffffffffffffffffffffffffffffffffffffffff1673ffffffffffffffffffffffffffffffffffffffff168152602001908152602001600020600082825461049d9190610cee565b92505081905550600354600560003373ffffffffffffffffffffffffffffffffffffffff1673ffffffffffffffffffffffffffffffffffffffff168152602001908152602001600020541061067b5760005b60048054905081101561067957600481815481106105105761050f610e91565b5b9060005260206000200160009054906101000a900473ffffffffffffffffffffffffffffffffffffffff1673ffffffffffffffffffffffffffffffffffffffff163373ffffffffffffffffffffffffffffffffffffffff16141561066657600460016004805490506105829190610d44565b8154811061059357610592610e91565b5b9060005260206000200160009054906101000a900473ffffffffffffffffffffffffffffffffffffffff16600482815481106105d2576105d1610e91565b5b9060005260206000200160006101000a81548173ffffffffffffffffffffffffffffffffffffffff021916908373ffffffffffffffffffffffffffffffffffffffff160217905550600480548061062c5761062b610e62565b5b6001900381819060005260206000200160006101000a81549073ffffffffffffffffffffffffffffffffffffffff02191690559055610679565b808061067190610dea565b9150506104ef565b505b6000600660009054906101000a900473ffffffffffffffffffffffffffffffffffffffff1673ffffffffffffffffffffffffffffffffffffffff16346040516106c390610b8c565b60006040518083038185875af1925050503d8060008114610700576040519150601f19603f3d011682016040523d82523d6000602084013e610705565b606091505b5050905080610749576040517f08c379a000000000000000000000000000000000000000000000000000000000815260040161074090610c77565b60405180910390fd5b5050565b610755610879565b61075f60006108f7565b565b60015481565b6004818154811061077757600080fd5b906000526020600020016000915054906101000a900473ffffffffffffffffffffffffffffffffffffffff1681565b60008060009054906101000a900473ffffffffffffffffffffffffffffffffffffffff16905090565b6107d7610879565b600073ffffffffffffffffffffffffffffffffffffffff168173ffffffffffffffffffffffffffffffffffffffff161415610847576040517f08c379a000000000000000000000000000000000000000000000000000000000815260040161083e90610bd7565b60405180910390fd5b610850816108f7565b50565b600760009054906101000a900473ffffffffffffffffffffffffffffffffffffffff1681565b6108816109bb565b73ffffffffffffffffffffffffffffffffffffffff1661089f6107a6565b73ffffffffffffffffffffffffffffffffffffffff16146108f5576040517f08c379a00000000000000000000000000000000000000000000000000000000081526004016108ec90610c37565b60405180910390fd5b565b60008060009054906101000a900473ffffffffffffffffffffffffffffffffffffffff169050816000806101000a81548173ffffffffffffffffffffffffffffffffffffffff021916908373ffffffffffffffffffffffffffffffffffffffff1602179055508173ffffffffffffffffffffffffffffffffffffffff168173ffffffffffffffffffffffffffffffffffffffff167f8be0079c531659141344cd1fd0a4f28419497f9722a3daafe3b4186f6b6457e060405160405180910390a35050565b600033905090565b6000813590506109d28161100d565b92915050565b6000813590506109e781611024565b92915050565b600060208284031215610a0357610a02610ec0565b5b6000610a11848285016109c3565b91505092915050565b600060208284031215610a3057610a2f610ec0565b5b6000610a3e848285016109d8565b91505092915050565b610a5081610d78565b82525050565b610a5f81610db4565b82525050565b6000610a72602683610cdd565b9150610a7d82610ec5565b604082019050919050565b6000610a95601083610cdd565b9150610aa082610f14565b602082019050919050565b6000610ab8601283610cdd565b9150610ac382610f3d565b602082019050919050565b6000610adb602083610cdd565b9150610ae682610f66565b602082019050919050565b6000610afe600083610cd2565b9150610b0982610f8f565b600082019050919050565b6000610b21601483610cdd565b9150610b2c82610f92565b602082019050919050565b6000610b44601483610cdd565b9150610b4f82610fbb565b602082019050919050565b6000610b67601b83610cdd565b9150610b7282610fe4565b602082019050919050565b610b8681610daa565b82525050565b6000610b9782610af1565b9150819050919050565b6000602082019050610bb66000830184610a47565b92915050565b6000602082019050610bd16000830184610a56565b92915050565b60006020820190508181036000830152610bf081610a65565b9050919050565b60006020820190508181036000830152610c1081610a88565b9050919050565b60006020820190508181036000830152610c3081610aab565b9050919050565b60006020820190508181036000830152610c5081610ace565b9050919050565b60006020820190508181036000830152610c7081610b14565b9050919050565b60006020820190508181036000830152610c9081610b37565b9050919050565b60006020820190508181036000830152610cb081610b5a565b9050919050565b6000602082019050610ccc6000830184610b7d565b92915050565b600081905092915050565b600082825260208201905092915050565b6000610cf982610daa565b9150610d0483610daa565b9250827fffffffffffffffffffffffffffffffffffffffffffffffffffffffffffffffff03821115610d3957610d38610e33565b5b828201905092915050565b6000610d4f82610daa565b9150610d5a83610daa565b925082821015610d6d57610d6c610e33565b5b828203905092915050565b6000610d8382610d8a565b9050919050565b600073ffffffffffffffffffffffffffffffffffffffff82169050919050565b6000819050919050565b6000610dbf82610dc6565b9050919050565b6000610dd182610dd8565b9050919050565b6000610de382610d8a565b9050919050565b6000610df582610daa565b91507fffffffffffffffffffffffffffffffffffffffffffffffffffffffffffffffff821415610e2857610e27610e33565b5b600182019050919050565b7f4e487b7100000000000000000000000000000000000000000000000000000000600052601160045260246000fd5b7f4e487b7100000000000000000000000000000000000000000000000000000000600052603160045260246000fd5b7f4e487b7100000000000000000000000000000000000000000000000000000000600052603260045260246000fd5b600080fd5b7f4f776e61626c653a206e6577206f776e657220697320746865207a65726f206160008201527f6464726573730000000000000000000000000000000000000000000000000000602082015250565b7f49444f3a20636170207265616368656400000000000000000000000000000000600082015250565b7f49444f3a20616c726561647920656e6465640000000000000000000000000000600082015250565b7f4f776e61626c653a2063616c6c6572206973206e6f7420746865206f776e6572600082015250565b50565b7f49444f3a206e6f74207374617274656420796574000000000000000000000000600082015250565b7f49444f3a207472616e73666572206661696c6564000000000000000000000000600082015250565b7f49444f3a2073656e646572206e6f742077686974656c69737465640000000000600082015250565b61101681610d78565b811461102157600080fd5b50565b61102d81610daa565b811461103857600080fd5b5056fea264697066735822122010af870d911d724a5b6d800e183977c9c476fc0ed3df6355205539b6dac6885f64736f6c63430008070033",
					"opcodes": "PUSH1 0x80 PUSH1 0x40 MSTORE CALLVALUE DUP1 ISZERO PUSH3 0x11 JUMPI PUSH1 0x0 DUP1 REVERT JUMPDEST POP PUSH1 0x40 MLOAD PUSH3 0x163E CODESIZE SUB DUP1 PUSH3 0x163E DUP4 CODECOPY DUP2 DUP2 ADD PUSH1 0x40 MSTORE DUP2 ADD SWAP1 PUSH3 0x37 SWAP2 SWAP1 PUSH3 0x380 JUMP JUMPDEST PUSH3 0x57 PUSH3 0x4B PUSH3 0x113 PUSH1 0x20 SHL PUSH1 0x20 SHR JUMP JUMPDEST PUSH3 0x11B PUSH1 0x20 SHL PUSH1 0x20 SHR JUMP JUMPDEST DUP6 PUSH1 0x1 DUP2 SWAP1 SSTORE POP DUP5 PUSH1 0x2 DUP2 SWAP1 SSTORE POP DUP4 PUSH1 0x3 DUP2 SWAP1 SSTORE POP DUP3 PUSH1 0x4 SWAP1 DUP1 MLOAD SWAP1 PUSH1 0x20 ADD SWAP1 PUSH3 0x84 SWAP3 SWAP2 SWAP1 PUSH3 0x1DF JUMP JUMPDEST POP DUP2 PUSH1 0x6 PUSH1 0x0 PUSH2 0x100 EXP DUP2 SLOAD DUP2 PUSH20 0xFFFFFFFFFFFFFFFFFFFFFFFFFFFFFFFFFFFFFFFF MUL NOT AND SWAP1 DUP4 PUSH20 0xFFFFFFFFFFFFFFFFFFFFFFFFFFFFFFFFFFFFFFFF AND MUL OR SWAP1 SSTORE POP DUP1 PUSH1 0x7 PUSH1 0x0 PUSH2 0x100 EXP DUP2 SLOAD DUP2 PUSH20 0xFFFFFFFFFFFFFFFFFFFFFFFFFFFFFFFFFFFFFFFF MUL NOT AND SWAP1 DUP4 PUSH20 0xFFFFFFFFFFFFFFFFFFFFFFFFFFFFFFFFFFFFFFFF AND MUL OR SWAP1 SSTORE POP POP POP POP POP POP POP PUSH3 0x5BD JUMP JUMPDEST PUSH1 0x0 CALLER SWAP1 POP SWAP1 JUMP JUMPDEST PUSH1 0x0 DUP1 PUSH1 0x0 SWAP1 SLOAD SWAP1 PUSH2 0x100 EXP SWAP1 DIV PUSH20 0xFFFFFFFFFFFFFFFFFFFFFFFFFFFFFFFFFFFFFFFF AND SWAP1 POP DUP2 PUSH1 0x0 DUP1 PUSH2 0x100 EXP DUP2 SLOAD DUP2 PUSH20 0xFFFFFFFFFFFFFFFFFFFFFFFFFFFFFFFFFFFFFFFF MUL NOT AND SWAP1 DUP4 PUSH20 0xFFFFFFFFFFFFFFFFFFFFFFFFFFFFFFFFFFFFFFFF AND MUL OR SWAP1 SSTORE POP DUP2 PUSH20 0xFFFFFFFFFFFFFFFFFFFFFFFFFFFFFFFFFFFFFFFF AND DUP2 PUSH20 0xFFFFFFFFFFFFFFFFFFFFFFFFFFFFFFFFFFFFFFFF AND PUSH32 0x8BE0079C531659141344CD1FD0A4F28419497F9722A3DAAFE3B4186F6B6457E0 PUSH1 0x40 MLOAD PUSH1 0x40 MLOAD DUP1 SWAP2 SUB SWAP1 LOG3 POP POP JUMP JUMPDEST DUP3 DUP1 SLOAD DUP3 DUP3 SSTORE SWAP1 PUSH1 0x0 MSTORE PUSH1 0x20 PUSH1 0x0 KECCAK256 SWAP1 DUP2 ADD SWAP3 DUP3 ISZERO PUSH3 0x25B JUMPI SWAP2 PUSH1 0x20 MUL DUP3 ADD JUMPDEST DUP3 DUP2 GT ISZERO PUSH3 0x25A JUMPI DUP3 MLOAD DUP3 PUSH1 0x0 PUSH2 0x100 EXP DUP2 SLOAD DUP2 PUSH20 0xFFFFFFFFFFFFFFFFFFFFFFFFFFFFFFFFFFFFFFFF MUL NOT AND SWAP1 DUP4 PUSH20 0xFFFFFFFFFFFFFFFFFFFFFFFFFFFFFFFFFFFFFFFF AND MUL OR SWAP1 SSTORE POP SWAP2 PUSH1 0x20 ADD SWAP2 SWAP1 PUSH1 0x1 ADD SWAP1 PUSH3 0x200 JUMP JUMPDEST JUMPDEST POP SWAP1 POP PUSH3 0x26A SWAP2 SWAP1 PUSH3 0x26E JUMP JUMPDEST POP SWAP1 JUMP JUMPDEST JUMPDEST DUP1 DUP3 GT ISZERO PUSH3 0x289 JUMPI PUSH1 0x0 DUP2 PUSH1 0x0 SWAP1 SSTORE POP PUSH1 0x1 ADD PUSH3 0x26F JUMP JUMPDEST POP SWAP1 JUMP JUMPDEST PUSH1 0x0 PUSH3 0x2A4 PUSH3 0x29E DUP5 PUSH3 0x464 JUMP JUMPDEST PUSH3 0x43B JUMP JUMPDEST SWAP1 POP DUP1 DUP4 DUP3 MSTORE PUSH1 0x20 DUP3 ADD SWAP1 POP DUP3 DUP6 PUSH1 0x20 DUP7 MUL DUP3 ADD GT ISZERO PUSH3 0x2CA JUMPI PUSH3 0x2C9 PUSH3 0x54F JUMP JUMPDEST JUMPDEST PUSH1 0x0 JUMPDEST DUP6 DUP2 LT ISZERO PUSH3 0x2FE JUMPI DUP2 PUSH3 0x2E3 DUP9 DUP3 PUSH3 0x308 JUMP JUMPDEST DUP5 MSTORE PUSH1 0x20 DUP5 ADD SWAP4 POP PUSH1 0x20 DUP4 ADD SWAP3 POP POP PUSH1 0x1 DUP2 ADD SWAP1 POP PUSH3 0x2CD JUMP JUMPDEST POP POP POP SWAP4 SWAP3 POP POP POP JUMP JUMPDEST PUSH1 0x0 DUP2 MLOAD SWAP1 POP PUSH3 0x319 DUP2 PUSH3 0x56F JUMP JUMPDEST SWAP3 SWAP2 POP POP JUMP JUMPDEST PUSH1 0x0 DUP2 MLOAD SWAP1 POP PUSH3 0x330 DUP2 PUSH3 0x589 JUMP JUMPDEST SWAP3 SWAP2 POP POP JUMP JUMPDEST PUSH1 0x0 DUP3 PUSH1 0x1F DUP4 ADD SLT PUSH3 0x34E JUMPI PUSH3 0x34D PUSH3 0x54A JUMP JUMPDEST JUMPDEST DUP2 MLOAD PUSH3 0x360 DUP5 DUP3 PUSH1 0x20 DUP7 ADD PUSH3 0x28D JUMP JUMPDEST SWAP2 POP POP SWAP3 SWAP2 POP POP JUMP JUMPDEST PUSH1 0x0 DUP2 MLOAD SWAP1 POP PUSH3 0x37A DUP2 PUSH3 0x5A3 JUMP JUMPDEST SWAP3 SWAP2 POP POP JUMP JUMPDEST PUSH1 0x0 DUP1 PUSH1 0x0 DUP1 PUSH1 0x0 DUP1 PUSH1 0xC0 DUP8 DUP10 SUB SLT ISZERO PUSH3 0x3A0 JUMPI PUSH3 0x39F PUSH3 0x559 JUMP JUMPDEST JUMPDEST PUSH1 0x0 PUSH3 0x3B0 DUP10 DUP3 DUP11 ADD PUSH3 0x369 JUMP JUMPDEST SWAP7 POP POP PUSH1 0x20 PUSH3 0x3C3 DUP10 DUP3 DUP11 ADD PUSH3 0x369 JUMP JUMPDEST SWAP6 POP POP PUSH1 0x40 PUSH3 0x3D6 DUP10 DUP3 DUP11 ADD PUSH3 0x369 JUMP JUMPDEST SWAP5 POP POP PUSH1 0x60 DUP8 ADD MLOAD PUSH8 0xFFFFFFFFFFFFFFFF DUP2 GT ISZERO PUSH3 0x3FA JUMPI PUSH3 0x3F9 PUSH3 0x554 JUMP JUMPDEST JUMPDEST PUSH3 0x408 DUP10 DUP3 DUP11 ADD PUSH3 0x336 JUMP JUMPDEST SWAP4 POP POP PUSH1 0x80 PUSH3 0x41B DUP10 DUP3 DUP11 ADD PUSH3 0x31F JUMP JUMPDEST SWAP3 POP POP PUSH1 0xA0 PUSH3 0x42E DUP10 DUP3 DUP11 ADD PUSH3 0x308 JUMP JUMPDEST SWAP2 POP POP SWAP3 SWAP6 POP SWAP3 SWAP6 POP SWAP3 SWAP6 JUMP JUMPDEST PUSH1 0x0 PUSH3 0x447 PUSH3 0x45A JUMP JUMPDEST SWAP1 POP PUSH3 0x455 DUP3 DUP3 PUSH3 0x4E5 JUMP JUMPDEST SWAP2 SWAP1 POP JUMP JUMPDEST PUSH1 0x0 PUSH1 0x40 MLOAD SWAP1 POP SWAP1 JUMP JUMPDEST PUSH1 0x0 PUSH8 0xFFFFFFFFFFFFFFFF DUP3 GT ISZERO PUSH3 0x482 JUMPI PUSH3 0x481 PUSH3 0x51B JUMP JUMPDEST JUMPDEST PUSH1 0x20 DUP3 MUL SWAP1 POP PUSH1 0x20 DUP2 ADD SWAP1 POP SWAP2 SWAP1 POP JUMP JUMPDEST PUSH1 0x0 PUSH3 0x4A0 DUP3 PUSH3 0x4BB JUMP JUMPDEST SWAP1 POP SWAP2 SWAP1 POP JUMP JUMPDEST PUSH1 0x0 PUSH3 0x4B4 DUP3 PUSH3 0x4BB JUMP JUMPDEST SWAP1 POP SWAP2 SWAP1 POP JUMP JUMPDEST PUSH1 0x0 PUSH20 0xFFFFFFFFFFFFFFFFFFFFFFFFFFFFFFFFFFFFFFFF DUP3 AND SWAP1 POP SWAP2 SWAP1 POP JUMP JUMPDEST PUSH1 0x0 DUP2 SWAP1 POP SWAP2 SWAP1 POP JUMP JUMPDEST PUSH3 0x4F0 DUP3 PUSH3 0x55E JUMP JUMPDEST DUP2 ADD DUP2 DUP2 LT PUSH8 0xFFFFFFFFFFFFFFFF DUP3 GT OR ISZERO PUSH3 0x512 JUMPI PUSH3 0x511 PUSH3 0x51B JUMP JUMPDEST JUMPDEST DUP1 PUSH1 0x40 MSTORE POP POP POP JUMP JUMPDEST PUSH32 0x4E487B7100000000000000000000000000000000000000000000000000000000 PUSH1 0x0 MSTORE PUSH1 0x41 PUSH1 0x4 MSTORE PUSH1 0x24 PUSH1 0x0 REVERT JUMPDEST PUSH1 0x0 DUP1 REVERT JUMPDEST PUSH1 0x0 DUP1 REVERT JUMPDEST PUSH1 0x0 DUP1 REVERT JUMPDEST PUSH1 0x0 DUP1 REVERT JUMPDEST PUSH1 0x0 PUSH1 0x1F NOT PUSH1 0x1F DUP4 ADD AND SWAP1 POP SWAP2 SWAP1 POP JUMP JUMPDEST PUSH3 0x57A DUP2 PUSH3 0x493 JUMP JUMPDEST DUP2 EQ PUSH3 0x586 JUMPI PUSH1 0x0 DUP1 REVERT JUMPDEST POP JUMP JUMPDEST PUSH3 0x594 DUP2 PUSH3 0x4A7 JUMP JUMPDEST DUP2 EQ PUSH3 0x5A0 JUMPI PUSH1 0x0 DUP1 REVERT JUMPDEST POP JUMP JUMPDEST PUSH3 0x5AE DUP2 PUSH3 0x4DB JUMP JUMPDEST DUP2 EQ PUSH3 0x5BA JUMPI PUSH1 0x0 DUP1 REVERT JUMPDEST POP JUMP JUMPDEST PUSH2 0x1071 DUP1 PUSH3 0x5CD PUSH1 0x0 CODECOPY PUSH1 0x0 RETURN INVALID PUSH1 0x80 PUSH1 0x40 MSTORE PUSH1 0x4 CALLDATASIZE LT PUSH2 0x91 JUMPI PUSH1 0x0 CALLDATALOAD PUSH1 0xE0 SHR DUP1 PUSH4 0x775F75DF GT PUSH2 0x59 JUMPI DUP1 PUSH4 0x775F75DF EQ PUSH2 0x14A JUMPI DUP1 PUSH4 0x7EBD1B30 EQ PUSH2 0x175 JUMPI DUP1 PUSH4 0x8DA5CB5B EQ PUSH2 0x1B2 JUMPI DUP1 PUSH4 0xF2FDE38B EQ PUSH2 0x1DD JUMPI DUP1 PUSH4 0xF887EA40 EQ PUSH2 0x206 JUMPI PUSH2 0x91 JUMP JUMPDEST DUP1 PUSH4 0x355274EA EQ PUSH2 0x96 JUMPI DUP1 PUSH4 0x3C9177CD EQ PUSH2 0xC1 JUMPI DUP1 PUSH4 0x42E94C90 EQ PUSH2 0xEC JUMPI DUP1 PUSH4 0x476AA36F EQ PUSH2 0x129 JUMPI DUP1 PUSH4 0x715018A6 EQ PUSH2 0x133 JUMPI JUMPDEST PUSH1 0x0 DUP1 REVERT JUMPDEST CALLVALUE DUP1 ISZERO PUSH2 0xA2 JUMPI PUSH1 0x0 DUP1 REVERT JUMPDEST POP PUSH2 0xAB PUSH2 0x231 JUMP JUMPDEST PUSH1 0x40 MLOAD PUSH2 0xB8 SWAP2 SWAP1 PUSH2 0xCB7 JUMP JUMPDEST PUSH1 0x40 MLOAD DUP1 SWAP2 SUB SWAP1 RETURN JUMPDEST CALLVALUE DUP1 ISZERO PUSH2 0xCD JUMPI PUSH1 0x0 DUP1 REVERT JUMPDEST POP PUSH2 0xD6 PUSH2 0x237 JUMP JUMPDEST PUSH1 0x40 MLOAD PUSH2 0xE3 SWAP2 SWAP1 PUSH2 0xCB7 JUMP JUMPDEST PUSH1 0x40 MLOAD DUP1 SWAP2 SUB SWAP1 RETURN JUMPDEST CALLVALUE DUP1 ISZERO PUSH2 0xF8 JUMPI PUSH1 0x0 DUP1 REVERT JUMPDEST POP PUSH2 0x113 PUSH1 0x4 DUP1 CALLDATASIZE SUB DUP2 ADD SWAP1 PUSH2 0x10E SWAP2 SWAP1 PUSH2 0x9ED JUMP JUMPDEST PUSH2 0x23D JUMP JUMPDEST PUSH1 0x40 MLOAD PUSH2 0x120 SWAP2 SWAP1 PUSH2 0xCB7 JUMP JUMPDEST PUSH1 0x40 MLOAD DUP1 SWAP2 SUB SWAP1 RETURN JUMPDEST PUSH2 0x131 PUSH2 0x255 JUMP JUMPDEST STOP JUMPDEST CALLVALUE DUP1 ISZERO PUSH2 0x13F JUMPI PUSH1 0x0 DUP1 REVERT JUMPDEST POP PUSH2 0x148 PUSH2 0x74D JUMP JUMPDEST STOP JUMPDEST CALLVALUE DUP1 ISZERO PUSH2 0x156 JUMPI PUSH1 0x0 DUP1 REVERT JUMPDEST POP PUSH2 0x15F PUSH2 0x761 JUMP JUMPDEST PUSH1 0x40 MLOAD PUSH2 0x16C SWAP2 SWAP1 PUSH2 0xCB7 JUMP JUMPDEST PUSH1 0x40 MLOAD DUP1 SWAP2 SUB SWAP1 RETURN JUMPDEST CALLVALUE DUP1 ISZERO PUSH2 0x181 JUMPI PUSH1 0x0 DUP1 REVERT JUMPDEST POP PUSH2 0x19C PUSH1 0x4 DUP1 CALLDATASIZE SUB DUP2 ADD SWAP1 PUSH2 0x197 SWAP2 SWAP1 PUSH2 0xA1A JUMP JUMPDEST PUSH2 0x767 JUMP JUMPDEST PUSH1 0x40 MLOAD PUSH2 0x1A9 SWAP2 SWAP1 PUSH2 0xBA1 JUMP JUMPDEST PUSH1 0x40 MLOAD DUP1 SWAP2 SUB SWAP1 RETURN JUMPDEST CALLVALUE DUP1 ISZERO PUSH2 0x1BE JUMPI PUSH1 0x0 DUP1 REVERT JUMPDEST POP PUSH2 0x1C7 PUSH2 0x7A6 JUMP JUMPDEST PUSH1 0x40 MLOAD PUSH2 0x1D4 SWAP2 SWAP1 PUSH2 0xBA1 JUMP JUMPDEST PUSH1 0x40 MLOAD DUP1 SWAP2 SUB SWAP1 RETURN JUMPDEST CALLVALUE DUP1 ISZERO PUSH2 0x1E9 JUMPI PUSH1 0x0 DUP1 REVERT JUMPDEST POP PUSH2 0x204 PUSH1 0x4 DUP1 CALLDATASIZE SUB DUP2 ADD SWAP1 PUSH2 0x1FF SWAP2 SWAP1 PUSH2 0x9ED JUMP JUMPDEST PUSH2 0x7CF JUMP JUMPDEST STOP JUMPDEST CALLVALUE DUP1 ISZERO PUSH2 0x212 JUMPI PUSH1 0x0 DUP1 REVERT JUMPDEST POP PUSH2 0x21B PUSH2 0x853 JUMP JUMPDEST PUSH1 0x40 MLOAD PUSH2 0x228 SWAP2 SWAP1 PUSH2 0xBBC JUMP JUMPDEST PUSH1 0x40 MLOAD DUP1 SWAP2 SUB SWAP1 RETURN JUMPDEST PUSH1 0x3 SLOAD DUP2 JUMP JUMPDEST PUSH1 0x2 SLOAD DUP2 JUMP JUMPDEST PUSH1 0x5 PUSH1 0x20 MSTORE DUP1 PUSH1 0x0 MSTORE PUSH1 0x40 PUSH1 0x0 KECCAK256 PUSH1 0x0 SWAP2 POP SWAP1 POP SLOAD DUP2 JUMP JUMPDEST PUSH1 0x1 SLOAD TIMESTAMP LT ISZERO PUSH2 0x29A JUMPI PUSH1 0x40 MLOAD PUSH32 0x8C379A000000000000000000000000000000000000000000000000000000000 DUP2 MSTORE PUSH1 0x4 ADD PUSH2 0x291 SWAP1 PUSH2 0xC57 JUMP JUMPDEST PUSH1 0x40 MLOAD DUP1 SWAP2 SUB SWAP1 REVERT JUMPDEST PUSH1 0x2 SLOAD TIMESTAMP GT ISZERO PUSH2 0x2DF JUMPI PUSH1 0x40 MLOAD PUSH32 0x8C379A000000000000000000000000000000000000000000000000000000000 DUP2 MSTORE PUSH1 0x4 ADD PUSH2 0x2D6 SWAP1 PUSH2 0xC17 JUMP JUMPDEST PUSH1 0x40 MLOAD DUP1 SWAP2 SUB SWAP1 REVERT JUMPDEST PUSH1 0x3 SLOAD CALLVALUE PUSH1 0x5 PUSH1 0x0 CALLER PUSH20 0xFFFFFFFFFFFFFFFFFFFFFFFFFFFFFFFFFFFFFFFF AND PUSH20 0xFFFFFFFFFFFFFFFFFFFFFFFFFFFFFFFFFFFFFFFF AND DUP2 MSTORE PUSH1 0x20 ADD SWAP1 DUP2 MSTORE PUSH1 0x20 ADD PUSH1 0x0 KECCAK256 SLOAD PUSH2 0x32D SWAP2 SWAP1 PUSH2 0xCEE JUMP JUMPDEST GT ISZERO PUSH2 0x36E JUMPI PUSH1 0x40 MLOAD PUSH32 0x8C379A000000000000000000000000000000000000000000000000000000000 DUP2 MSTORE PUSH1 0x4 ADD PUSH2 0x365 SWAP1 PUSH2 0xBF7 JUMP JUMPDEST PUSH1 0x40 MLOAD DUP1 SWAP2 SUB SWAP1 REVERT JUMPDEST PUSH1 0x0 DUP1 JUMPDEST PUSH1 0x4 DUP1 SLOAD SWAP1 POP DUP2 LT ISZERO PUSH2 0x40D JUMPI PUSH1 0x4 DUP2 DUP2 SLOAD DUP2 LT PUSH2 0x393 JUMPI PUSH2 0x392 PUSH2 0xE91 JUMP JUMPDEST JUMPDEST SWAP1 PUSH1 0x0 MSTORE PUSH1 0x20 PUSH1 0x0 KECCAK256 ADD PUSH1 0x0 SWAP1 SLOAD SWAP1 PUSH2 0x100 EXP SWAP1 DIV PUSH20 0xFFFFFFFFFFFFFFFFFFFFFFFFFFFFFFFFFFFFFFFF AND PUSH20 0xFFFFFFFFFFFFFFFFFFFFFFFFFFFFFFFFFFFFFFFF AND CALLER PUSH20 0xFFFFFFFFFFFFFFFFFFFFFFFFFFFFFFFFFFFFFFFF AND EQ ISZERO PUSH2 0x3FA JUMPI PUSH1 0x1 SWAP2 POP PUSH2 0x40D JUMP JUMPDEST DUP1 DUP1 PUSH2 0x405 SWAP1 PUSH2 0xDEA JUMP JUMPDEST SWAP2 POP POP PUSH2 0x372 JUMP JUMPDEST POP DUP1 PUSH2 0x44E JUMPI PUSH1 0x40 MLOAD PUSH32 0x8C379A000000000000000000000000000000000000000000000000000000000 DUP2 MSTORE PUSH1 0x4 ADD PUSH2 0x445 SWAP1 PUSH2 0xC97 JUMP JUMPDEST PUSH1 0x40 MLOAD DUP1 SWAP2 SUB SWAP1 REVERT JUMPDEST CALLVALUE PUSH1 0x5 PUSH1 0x0 CALLER PUSH20 0xFFFFFFFFFFFFFFFFFFFFFFFFFFFFFFFFFFFFFFFF AND PUSH20 0xFFFFFFFFFFFFFFFFFFFFFFFFFFFFFFFFFFFFFFFF AND DUP2 MSTORE PUSH1 0x20 ADD SWAP1 DUP2 MSTORE PUSH1 0x20 ADD PUSH1 0x0 KECCAK256 PUSH1 0x0 DUP3 DUP3 SLOAD PUSH2 0x49D SWAP2 SWAP1 PUSH2 0xCEE JUMP JUMPDEST SWAP3 POP POP DUP2 SWAP1 SSTORE POP PUSH1 0x3 SLOAD PUSH1 0x5 PUSH1 0x0 CALLER PUSH20 0xFFFFFFFFFFFFFFFFFFFFFFFFFFFFFFFFFFFFFFFF AND PUSH20 0xFFFFFFFFFFFFFFFFFFFFFFFFFFFFFFFFFFFFFFFF AND DUP2 MSTORE PUSH1 0x20 ADD SWAP1 DUP2 MSTORE PUSH1 0x20 ADD PUSH1 0x0 KECCAK256 SLOAD LT PUSH2 0x67B JUMPI PUSH1 0x0 JUMPDEST PUSH1 0x4 DUP1 SLOAD SWAP1 POP DUP2 LT ISZERO PUSH2 0x679 JUMPI PUSH1 0x4 DUP2 DUP2 SLOAD DUP2 LT PUSH2 0x510 JUMPI PUSH2 0x50F PUSH2 0xE91 JUMP JUMPDEST JUMPDEST SWAP1 PUSH1 0x0 MSTORE PUSH1 0x20 PUSH1 0x0 KECCAK256 ADD PUSH1 0x0 SWAP1 SLOAD SWAP1 PUSH2 0x100 EXP SWAP1 DIV PUSH20 0xFFFFFFFFFFFFFFFFFFFFFFFFFFFFFFFFFFFFFFFF AND PUSH20 0xFFFFFFFFFFFFFFFFFFFFFFFFFFFFFFFFFFFFFFFF AND CALLER PUSH20 0xFFFFFFFFFFFFFFFFFFFFFFFFFFFFFFFFFFFFFFFF AND EQ ISZERO PUSH2 0x666 JUMPI PUSH1 0x4 PUSH1 0x1 PUSH1 0x4 DUP1 SLOAD SWAP1 POP PUSH2 0x582 SWAP2 SWAP1 PUSH2 0xD44 JUMP JUMPDEST DUP2 SLOAD DUP2 LT PUSH2 0x593 JUMPI PUSH2 0x592 PUSH2 0xE91 JUMP JUMPDEST JUMPDEST SWAP1 PUSH1 0x0 MSTORE PUSH1 0x20 PUSH1 0x0 KECCAK256 ADD PUSH1 0x0 SWAP1 SLOAD SWAP1 PUSH2 0x100 EXP SWAP1 DIV PUSH20 0xFFFFFFFFFFFFFFFFFFFFFFFFFFFFFFFFFFFFFFFF AND PUSH1 0x4 DUP3 DUP2 SLOAD DUP2 LT PUSH2 0x5D2 JUMPI PUSH2 0x5D1 PUSH2 0xE91 JUMP JUMPDEST JUMPDEST SWAP1 PUSH1 0x0 MSTORE PUSH1 0x20 PUSH1 0x0 KECCAK256 ADD PUSH1 0x0 PUSH2 0x100 EXP DUP2 SLOAD DUP2 PUSH20 0xFFFFFFFFFFFFFFFFFFFFFFFFFFFFFFFFFFFFFFFF MUL NOT AND SWAP1 DUP4 PUSH20 0xFFFFFFFFFFFFFFFFFFFFFFFFFFFFFFFFFFFFFFFF AND MUL OR SWAP1 SSTORE POP PUSH1 0x4 DUP1 SLOAD DUP1 PUSH2 0x62C JUMPI PUSH2 0x62B PUSH2 0xE62 JUMP JUMPDEST JUMPDEST PUSH1 0x1 SWAP1 SUB DUP2 DUP2 SWAP1 PUSH1 0x0 MSTORE PUSH1 0x20 PUSH1 0x0 KECCAK256 ADD PUSH1 0x0 PUSH2 0x100 EXP DUP2 SLOAD SWAP1 PUSH20 0xFFFFFFFFFFFFFFFFFFFFFFFFFFFFFFFFFFFFFFFF MUL NOT AND SWAP1 SSTORE SWAP1 SSTORE PUSH2 0x679 JUMP JUMPDEST DUP1 DUP1 PUSH2 0x671 SWAP1 PUSH2 0xDEA JUMP JUMPDEST SWAP2 POP POP PUSH2 0x4EF JUMP JUMPDEST POP JUMPDEST PUSH1 0x0 PUSH1 0x6 PUSH1 0x0 SWAP1 SLOAD SWAP1 PUSH2 0x100 EXP SWAP1 DIV PUSH20 0xFFFFFFFFFFFFFFFFFFFFFFFFFFFFFFFFFFFFFFFF AND PUSH20 0xFFFFFFFFFFFFFFFFFFFFFFFFFFFFFFFFFFFFFFFF AND CALLVALUE PUSH1 0x40 MLOAD PUSH2 0x6C3 SWAP1 PUSH2 0xB8C JUMP JUMPDEST PUSH1 0x0 PUSH1 0x40 MLOAD DUP1 DUP4 SUB DUP2 DUP6 DUP8 GAS CALL SWAP3 POP POP POP RETURNDATASIZE DUP1 PUSH1 0x0 DUP2 EQ PUSH2 0x700 JUMPI PUSH1 0x40 MLOAD SWAP2 POP PUSH1 0x1F NOT PUSH1 0x3F RETURNDATASIZE ADD AND DUP3 ADD PUSH1 0x40 MSTORE RETURNDATASIZE DUP3 MSTORE RETURNDATASIZE PUSH1 0x0 PUSH1 0x20 DUP5 ADD RETURNDATACOPY PUSH2 0x705 JUMP JUMPDEST PUSH1 0x60 SWAP2 POP JUMPDEST POP POP SWAP1 POP DUP1 PUSH2 0x749 JUMPI PUSH1 0x40 MLOAD PUSH32 0x8C379A000000000000000000000000000000000000000000000000000000000 DUP2 MSTORE PUSH1 0x4 ADD PUSH2 0x740 SWAP1 PUSH2 0xC77 JUMP JUMPDEST PUSH1 0x40 MLOAD DUP1 SWAP2 SUB SWAP1 REVERT JUMPDEST POP POP JUMP JUMPDEST PUSH2 0x755 PUSH2 0x879 JUMP JUMPDEST PUSH2 0x75F PUSH1 0x0 PUSH2 0x8F7 JUMP JUMPDEST JUMP JUMPDEST PUSH1 0x1 SLOAD DUP2 JUMP JUMPDEST PUSH1 0x4 DUP2 DUP2 SLOAD DUP2 LT PUSH2 0x777 JUMPI PUSH1 0x0 DUP1 REVERT JUMPDEST SWAP1 PUSH1 0x0 MSTORE PUSH1 0x20 PUSH1 0x0 KECCAK256 ADD PUSH1 0x0 SWAP2 POP SLOAD SWAP1 PUSH2 0x100 EXP SWAP1 DIV PUSH20 0xFFFFFFFFFFFFFFFFFFFFFFFFFFFFFFFFFFFFFFFF AND DUP2 JUMP JUMPDEST PUSH1 0x0 DUP1 PUSH1 0x0 SWAP1 SLOAD SWAP1 PUSH2 0x100 EXP SWAP1 DIV PUSH20 0xFFFFFFFFFFFFFFFFFFFFFFFFFFFFFFFFFFFFFFFF AND SWAP1 POP SWAP1 JUMP JUMPDEST PUSH2 0x7D7 PUSH2 0x879 JUMP JUMPDEST PUSH1 0x0 PUSH20 0xFFFFFFFFFFFFFFFFFFFFFFFFFFFFFFFFFFFFFFFF AND DUP2 PUSH20 0xFFFFFFFFFFFFFFFFFFFFFFFFFFFFFFFFFFFFFFFF AND EQ ISZERO PUSH2 0x847 JUMPI PUSH1 0x40 MLOAD PUSH32 0x8C379A000000000000000000000000000000000000000000000000000000000 DUP2 MSTORE PUSH1 0x4 ADD PUSH2 0x83E SWAP1 PUSH2 0xBD7 JUMP JUMPDEST PUSH1 0x40 MLOAD DUP1 SWAP2 SUB SWAP1 REVERT JUMPDEST PUSH2 0x850 DUP2 PUSH2 0x8F7 JUMP JUMPDEST POP JUMP JUMPDEST PUSH1 0x7 PUSH1 0x0 SWAP1 SLOAD SWAP1 PUSH2 0x100 EXP SWAP1 DIV PUSH20 0xFFFFFFFFFFFFFFFFFFFFFFFFFFFFFFFFFFFFFFFF AND DUP2 JUMP JUMPDEST PUSH2 0x881 PUSH2 0x9BB JUMP JUMPDEST PUSH20 0xFFFFFFFFFFFFFFFFFFFFFFFFFFFFFFFFFFFFFFFF AND PUSH2 0x89F PUSH2 0x7A6 JUMP JUMPDEST PUSH20 0xFFFFFFFFFFFFFFFFFFFFFFFFFFFFFFFFFFFFFFFF AND EQ PUSH2 0x8F5 JUMPI PUSH1 0x40 MLOAD PUSH32 0x8C379A000000000000000000000000000000000000000000000000000000000 DUP2 MSTORE PUSH1 0x4 ADD PUSH2 0x8EC SWAP1 PUSH2 0xC37 JUMP JUMPDEST PUSH1 0x40 MLOAD DUP1 SWAP2 SUB SWAP1 REVERT JUMPDEST JUMP JUMPDEST PUSH1 0x0 DUP1 PUSH1 0x0 SWAP1 SLOAD SWAP1 PUSH2 0x100 EXP SWAP1 DIV PUSH20 0xFFFFFFFFFFFFFFFFFFFFFFFFFFFFFFFFFFFFFFFF AND SWAP1 POP DUP2 PUSH1 0x0 DUP1 PUSH2 0x100 EXP DUP2 SLOAD DUP2 PUSH20 0xFFFFFFFFFFFFFFFFFFFFFFFFFFFFFFFFFFFFFFFF MUL NOT AND SWAP1 DUP4 PUSH20 0xFFFFFFFFFFFFFFFFFFFFFFFFFFFFFFFFFFFFFFFF AND MUL OR SWAP1 SSTORE POP DUP2 PUSH20 0xFFFFFFFFFFFFFFFFFFFFFFFFFFFFFFFFFFFFFFFF AND DUP2 PUSH20 0xFFFFFFFFFFFFFFFFFFFFFFFFFFFFFFFFFFFFFFFF AND PUSH32 0x8BE0079C531659141344CD1FD0A4F28419497F9722A3DAAFE3B4186F6B6457E0 PUSH1 0x40 MLOAD PUSH1 0x40 MLOAD DUP1 SWAP2 SUB SWAP1 LOG3 POP POP JUMP JUMPDEST PUSH1 0x0 CALLER SWAP1 POP SWAP1 JUMP JUMPDEST PUSH1 0x0 DUP2 CALLDATALOAD SWAP1 POP PUSH2 0x9D2 DUP2 PUSH2 0x100D JUMP JUMPDEST SWAP3 SWAP2 POP POP JUMP JUMPDEST PUSH1 0x0 DUP2 CALLDATALOAD SWAP1 POP PUSH2 0x9E7 DUP2 PUSH2 0x1024 JUMP JUMPDEST SWAP3 SWAP2 POP POP JUMP JUMPDEST PUSH1 0x0 PUSH1 0x20 DUP3 DUP5 SUB SLT ISZERO PUSH2 0xA03 JUMPI PUSH2 0xA02 PUSH2 0xEC0 JUMP JUMPDEST JUMPDEST PUSH1 0x0 PUSH2 0xA11 DUP5 DUP3 DUP6 ADD PUSH2 0x9C3 JUMP JUMPDEST SWAP2 POP POP SWAP3 SWAP2 POP POP JUMP JUMPDEST PUSH1 0x0 PUSH1 0x20 DUP3 DUP5 SUB SLT ISZERO PUSH2 0xA30 JUMPI PUSH2 0xA2F PUSH2 0xEC0 JUMP JUMPDEST JUMPDEST PUSH1 0x0 PUSH2 0xA3E DUP5 DUP3 DUP6 ADD PUSH2 0x9D8 JUMP JUMPDEST SWAP2 POP POP SWAP3 SWAP2 POP POP JUMP JUMPDEST PUSH2 0xA50 DUP2 PUSH2 0xD78 JUMP JUMPDEST DUP3 MSTORE POP POP JUMP JUMPDEST PUSH2 0xA5F DUP2 PUSH2 0xDB4 JUMP JUMPDEST DUP3 MSTORE POP POP JUMP JUMPDEST PUSH1 0x0 PUSH2 0xA72 PUSH1 0x26 DUP4 PUSH2 0xCDD JUMP JUMPDEST SWAP2 POP PUSH2 0xA7D DUP3 PUSH2 0xEC5 JUMP JUMPDEST PUSH1 0x40 DUP3 ADD SWAP1 POP SWAP2 SWAP1 POP JUMP JUMPDEST PUSH1 0x0 PUSH2 0xA95 PUSH1 0x10 DUP4 PUSH2 0xCDD JUMP JUMPDEST SWAP2 POP PUSH2 0xAA0 DUP3 PUSH2 0xF14 JUMP JUMPDEST PUSH1 0x20 DUP3 ADD SWAP1 POP SWAP2 SWAP1 POP JUMP JUMPDEST PUSH1 0x0 PUSH2 0xAB8 PUSH1 0x12 DUP4 PUSH2 0xCDD JUMP JUMPDEST SWAP2 POP PUSH2 0xAC3 DUP3 PUSH2 0xF3D JUMP JUMPDEST PUSH1 0x20 DUP3 ADD SWAP1 POP SWAP2 SWAP1 POP JUMP JUMPDEST PUSH1 0x0 PUSH2 0xADB PUSH1 0x20 DUP4 PUSH2 0xCDD JUMP JUMPDEST SWAP2 POP PUSH2 0xAE6 DUP3 PUSH2 0xF66 JUMP JUMPDEST PUSH1 0x20 DUP3 ADD SWAP1 POP SWAP2 SWAP1 POP JUMP JUMPDEST PUSH1 0x0 PUSH2 0xAFE PUSH1 0x0 DUP4 PUSH2 0xCD2 JUMP JUMPDEST SWAP2 POP PUSH2 0xB09 DUP3 PUSH2 0xF8F JUMP JUMPDEST PUSH1 0x0 DUP3 ADD SWAP1 POP SWAP2 SWAP1 POP JUMP JUMPDEST PUSH1 0x0 PUSH2 0xB21 PUSH1 0x14 DUP4 PUSH2 0xCDD JUMP JUMPDEST SWAP2 POP PUSH2 0xB2C DUP3 PUSH2 0xF92 JUMP JUMPDEST PUSH1 0x20 DUP3 ADD SWAP1 POP SWAP2 SWAP1 POP JUMP JUMPDEST PUSH1 0x0 PUSH2 0xB44 PUSH1 0x14 DUP4 PUSH2 0xCDD JUMP JUMPDEST SWAP2 POP PUSH2 0xB4F DUP3 PUSH2 0xFBB JUMP JUMPDEST PUSH1 0x20 DUP3 ADD SWAP1 POP SWAP2 SWAP1 POP JUMP JUMPDEST PUSH1 0x0 PUSH2 0xB67 PUSH1 0x1B DUP4 PUSH2 0xCDD JUMP JUMPDEST SWAP2 POP PUSH2 0xB72 DUP3 PUSH2 0xFE4 JUMP JUMPDEST PUSH1 0x20 DUP3 ADD SWAP1 POP SWAP2 SWAP1 POP JUMP JUMPDEST PUSH2 0xB86 DUP2 PUSH2 0xDAA JUMP JUMPDEST DUP3 MSTORE POP POP JUMP JUMPDEST PUSH1 0x0 PUSH2 0xB97 DUP3 PUSH2 0xAF1 JUMP JUMPDEST SWAP2 POP DUP2 SWAP1 POP SWAP2 SWAP1 POP JUMP JUMPDEST PUSH1 0x0 PUSH1 0x20 DUP3 ADD SWAP1 POP PUSH2 0xBB6 PUSH1 0x0 DUP4 ADD DUP5 PUSH2 0xA47 JUMP JUMPDEST SWAP3 SWAP2 POP POP JUMP JUMPDEST PUSH1 0x0 PUSH1 0x20 DUP3 ADD SWAP1 POP PUSH2 0xBD1 PUSH1 0x0 DUP4 ADD DUP5 PUSH2 0xA56 JUMP JUMPDEST SWAP3 SWAP2 POP POP JUMP JUMPDEST PUSH1 0x0 PUSH1 0x20 DUP3 ADD SWAP1 POP DUP2 DUP2 SUB PUSH1 0x0 DUP4 ADD MSTORE PUSH2 0xBF0 DUP2 PUSH2 0xA65 JUMP JUMPDEST SWAP1 POP SWAP2 SWAP1 POP JUMP JUMPDEST PUSH1 0x0 PUSH1 0x20 DUP3 ADD SWAP1 POP DUP2 DUP2 SUB PUSH1 0x0 DUP4 ADD MSTORE PUSH2 0xC10 DUP2 PUSH2 0xA88 JUMP JUMPDEST SWAP1 POP SWAP2 SWAP1 POP JUMP JUMPDEST PUSH1 0x0 PUSH1 0x20 DUP3 ADD SWAP1 POP DUP2 DUP2 SUB PUSH1 0x0 DUP4 ADD MSTORE PUSH2 0xC30 DUP2 PUSH2 0xAAB JUMP JUMPDEST SWAP1 POP SWAP2 SWAP1 POP JUMP JUMPDEST PUSH1 0x0 PUSH1 0x20 DUP3 ADD SWAP1 POP DUP2 DUP2 SUB PUSH1 0x0 DUP4 ADD MSTORE PUSH2 0xC50 DUP2 PUSH2 0xACE JUMP JUMPDEST SWAP1 POP SWAP2 SWAP1 POP JUMP JUMPDEST PUSH1 0x0 PUSH1 0x20 DUP3 ADD SWAP1 POP DUP2 DUP2 SUB PUSH1 0x0 DUP4 ADD MSTORE PUSH2 0xC70 DUP2 PUSH2 0xB14 JUMP JUMPDEST SWAP1 POP SWAP2 SWAP1 POP JUMP JUMPDEST PUSH1 0x0 PUSH1 0x20 DUP3 ADD SWAP1 POP DUP2 DUP2 SUB PUSH1 0x0 DUP4 ADD MSTORE PUSH2 0xC90 DUP2 PUSH2 0xB37 JUMP JUMPDEST SWAP1 POP SWAP2 SWAP1 POP JUMP JUMPDEST PUSH1 0x0 PUSH1 0x20 DUP3 ADD SWAP1 POP DUP2 DUP2 SUB PUSH1 0x0 DUP4 ADD MSTORE PUSH2 0xCB0 DUP2 PUSH2 0xB5A JUMP JUMPDEST SWAP1 POP SWAP2 SWAP1 POP JUMP JUMPDEST PUSH1 0x0 PUSH1 0x20 DUP3 ADD SWAP1 POP PUSH2 0xCCC PUSH1 0x0 DUP4 ADD DUP5 PUSH2 0xB7D JUMP JUMPDEST SWAP3 SWAP2 POP POP JUMP JUMPDEST PUSH1 0x0 DUP2 SWAP1 POP SWAP3 SWAP2 POP POP JUMP JUMPDEST PUSH1 0x0 DUP3 DUP3 MSTORE PUSH1 0x20 DUP3 ADD SWAP1 POP SWAP3 SWAP2 POP POP JUMP JUMPDEST PUSH1 0x0 PUSH2 0xCF9 DUP3 PUSH2 0xDAA JUMP JUMPDEST SWAP2 POP PUSH2 0xD04 DUP4 PUSH2 0xDAA JUMP JUMPDEST SWAP3 POP DUP3 PUSH32 0xFFFFFFFFFFFFFFFFFFFFFFFFFFFFFFFFFFFFFFFFFFFFFFFFFFFFFFFFFFFFFFFF SUB DUP3 GT ISZERO PUSH2 0xD39 JUMPI PUSH2 0xD38 PUSH2 0xE33 JUMP JUMPDEST JUMPDEST DUP3 DUP3 ADD SWAP1 POP SWAP3 SWAP2 POP POP JUMP JUMPDEST PUSH1 0x0 PUSH2 0xD4F DUP3 PUSH2 0xDAA JUMP JUMPDEST SWAP2 POP PUSH2 0xD5A DUP4 PUSH2 0xDAA JUMP JUMPDEST SWAP3 POP DUP3 DUP3 LT ISZERO PUSH2 0xD6D JUMPI PUSH2 0xD6C PUSH2 0xE33 JUMP JUMPDEST JUMPDEST DUP3 DUP3 SUB SWAP1 POP SWAP3 SWAP2 POP POP JUMP JUMPDEST PUSH1 0x0 PUSH2 0xD83 DUP3 PUSH2 0xD8A JUMP JUMPDEST SWAP1 POP SWAP2 SWAP1 POP JUMP JUMPDEST PUSH1 0x0 PUSH20 0xFFFFFFFFFFFFFFFFFFFFFFFFFFFFFFFFFFFFFFFF DUP3 AND SWAP1 POP SWAP2 SWAP1 POP JUMP JUMPDEST PUSH1 0x0 DUP2 SWAP1 POP SWAP2 SWAP1 POP JUMP JUMPDEST PUSH1 0x0 PUSH2 0xDBF DUP3 PUSH2 0xDC6 JUMP JUMPDEST SWAP1 POP SWAP2 SWAP1 POP JUMP JUMPDEST PUSH1 0x0 PUSH2 0xDD1 DUP3 PUSH2 0xDD8 JUMP JUMPDEST SWAP1 POP SWAP2 SWAP1 POP JUMP JUMPDEST PUSH1 0x0 PUSH2 0xDE3 DUP3 PUSH2 0xD8A JUMP JUMPDEST SWAP1 POP SWAP2 SWAP1 POP JUMP JUMPDEST PUSH1 0x0 PUSH2 0xDF5 DUP3 PUSH2 0xDAA JUMP JUMPDEST SWAP2 POP PUSH32 0xFFFFFFFFFFFFFFFFFFFFFFFFFFFFFFFFFFFFFFFFFFFFFFFFFFFFFFFFFFFFFFFF DUP3 EQ ISZERO PUSH2 0xE28 JUMPI PUSH2 0xE27 PUSH2 0xE33 JUMP JUMPDEST JUMPDEST PUSH1 0x1 DUP3 ADD SWAP1 POP SWAP2 SWAP1 POP JUMP JUMPDEST PUSH32 0x4E487B7100000000000000000000000000000000000000000000000000000000 PUSH1 0x0 MSTORE PUSH1 0x11 PUSH1 0x4 MSTORE PUSH1 0x24 PUSH1 0x0 REVERT JUMPDEST PUSH32 0x4E487B7100000000000000000000000000000000000000000000000000000000 PUSH1 0x0 MSTORE PUSH1 0x31 PUSH1 0x4 MSTORE PUSH1 0x24 PUSH1 0x0 REVERT JUMPDEST PUSH32 0x4E487B7100000000000000000000000000000000000000000000000000000000 PUSH1 0x0 MSTORE PUSH1 0x32 PUSH1 0x4 MSTORE PUSH1 0x24 PUSH1 0x0 REVERT JUMPDEST PUSH1 0x0 DUP1 REVERT JUMPDEST PUSH32 0x4F776E61626C653A206E6577206F776E657220697320746865207A65726F2061 PUSH1 0x0 DUP3 ADD MSTORE PUSH32 0x6464726573730000000000000000000000000000000000000000000000000000 PUSH1 0x20 DUP3 ADD MSTORE POP JUMP JUMPDEST PUSH32 0x49444F3A20636170207265616368656400000000000000000000000000000000 PUSH1 0x0 DUP3 ADD MSTORE POP JUMP JUMPDEST PUSH32 0x49444F3A20616C726561647920656E6465640000000000000000000000000000 PUSH1 0x0 DUP3 ADD MSTORE POP JUMP JUMPDEST PUSH32 0x4F776E61626C653A2063616C6C6572206973206E6F7420746865206F776E6572 PUSH1 0x0 DUP3 ADD MSTORE POP JUMP JUMPDEST POP JUMP JUMPDEST PUSH32 0x49444F3A206E6F74207374617274656420796574000000000000000000000000 PUSH1 0x0 DUP3 ADD MSTORE POP JUMP JUMPDEST PUSH32 0x49444F3A207472616E73666572206661696C6564000000000000000000000000 PUSH1 0x0 DUP3 ADD MSTORE POP JUMP JUMPDEST PUSH32 0x49444F3A2073656E646572206E6F742077686974656C69737465640000000000 PUSH1 0x0 DUP3 ADD MSTORE POP JUMP JUMPDEST PUSH2 0x1016 DUP2 PUSH2 0xD78 JUMP JUMPDEST DUP2 EQ PUSH2 0x1021 JUMPI PUSH1 0x0 DUP1 REVERT JUMPDEST POP JUMP JUMPDEST PUSH2 0x102D DUP2 PUSH2 0xDAA JUMP JUMPDEST DUP2 EQ PUSH2 0x1038 JUMPI PUSH1 0x0 DUP1 REVERT JUMPDEST POP JUMP INVALID LOG2 PUSH5 0x6970667358 0x22 SLT KECCAK256 LT 0xAF DUP8 0xD SWAP2 SAR PUSH19 0x4A5B6D800E183977C9C476FC0ED3DF63552055 CODECOPY 0xB6 0xDA 0xC6 DUP9 0x5F PUSH5 0x736F6C6343 STOP ADDMOD SMOD STOP CALLER "
				},
				"gasEstimates": {
					"creation": {
						"codeDepositCost": "841800",
						"executionCost": "infinite",
						"totalCost": "infinite"
					},
					"external": {
						"cap()": "2430",
						"contributions(address)": "2859",
						"endDateTime()": "2452",
						"fundIDO()": "infinite",
						"owner()": "2566",
						"renounceOwnership()": "30487",
						"router()": "2688",
						"startDateTime()": "2429",
						"transferOwnership(address)": "30813",
						"whitelist(uint256)": "4978"
					}
				},
				"methodIdentifiers": {
					"cap()": "355274ea",
					"contributions(address)": "42e94c90",
					"endDateTime()": "3c9177cd",
					"fundIDO()": "476aa36f",
					"owner()": "8da5cb5b",
					"renounceOwnership()": "715018a6",
					"router()": "f887ea40",
					"startDateTime()": "775f75df",
					"transferOwnership(address)": "f2fde38b",
					"whitelist(uint256)": "7ebd1b30"
				}
			},
			"storageLayout": {
				"storage": [
					{
						"astId": 7,
						"contract": "contracts/Fund_ido.sol:IDO",
						"label": "_owner",
						"offset": 0,
						"slot": "0",
						"type": "t_address"
					},
					{
						"astId": 538,
						"contract": "contracts/Fund_ido.sol:IDO",
						"label": "startDateTime",
						"offset": 0,
						"slot": "1",
						"type": "t_uint256"
					},
					{
						"astId": 540,
						"contract": "contracts/Fund_ido.sol:IDO",
						"label": "endDateTime",
						"offset": 0,
						"slot": "2",
						"type": "t_uint256"
					},
					{
						"astId": 542,
						"contract": "contracts/Fund_ido.sol:IDO",
						"label": "cap",
						"offset": 0,
						"slot": "3",
						"type": "t_uint256"
					},
					{
						"astId": 545,
						"contract": "contracts/Fund_ido.sol:IDO",
						"label": "whitelist",
						"offset": 0,
						"slot": "4",
						"type": "t_array(t_address)dyn_storage"
					},
					{
						"astId": 549,
						"contract": "contracts/Fund_ido.sol:IDO",
						"label": "contributions",
						"offset": 0,
						"slot": "5",
						"type": "t_mapping(t_address,t_uint256)"
					},
					{
						"astId": 551,
						"contract": "contracts/Fund_ido.sol:IDO",
						"label": "owner_",
						"offset": 0,
						"slot": "6",
						"type": "t_address_payable"
					},
					{
						"astId": 554,
						"contract": "contracts/Fund_ido.sol:IDO",
						"label": "router",
						"offset": 0,
						"slot": "7",
						"type": "t_contract(IUniswapV2Router02)530"
					}
				],
				"types": {
					"t_address": {
						"encoding": "inplace",
						"label": "address",
						"numberOfBytes": "20"
					},
					"t_address_payable": {
						"encoding": "inplace",
						"label": "address payable",
						"numberOfBytes": "20"
					},
					"t_array(t_address)dyn_storage": {
						"base": "t_address",
						"encoding": "dynamic_array",
						"label": "address[]",
						"numberOfBytes": "32"
					},
					"t_contract(IUniswapV2Router02)530": {
						"encoding": "inplace",
						"label": "contract IUniswapV2Router02",
						"numberOfBytes": "20"
					},
					"t_mapping(t_address,t_uint256)": {
						"encoding": "mapping",
						"key": "t_address",
						"label": "mapping(address => uint256)",
						"numberOfBytes": "32",
						"value": "t_uint256"
					},
					"t_uint256": {
						"encoding": "inplace",
						"label": "uint256",
						"numberOfBytes": "32"
					}
				}
			},
			"userdoc": {
				"kind": "user",
				"methods": {},
				"version": 1
			}
		}
	}
}