{
	"contracts/ido.sol": {
		"IDO": {
			"abi": [
				{
					"inputs": [
						{
							"internalType": "uint256",
							"name": "_startDateTime",
							"type": "uint256"
						},
						{
							"internalType": "uint256",
							"name": "_endDateTime",
							"type": "uint256"
						},
						{
							"internalType": "uint256",
							"name": "_cap",
							"type": "uint256"
						},
						{
							"internalType": "address[]",
							"name": "_whitelist",
							"type": "address[]"
						},
						{
							"internalType": "address",
							"name": "_owner",
							"type": "address"
						},
						{
							"internalType": "address",
							"name": "_routerAddress",
							"type": "address"
						}
					],
					"stateMutability": "nonpayable",
					"type": "constructor"
				},
				{
					"inputs": [],
					"name": "cap",
					"outputs": [
						{
							"internalType": "uint256",
							"name": "",
							"type": "uint256"
						}
					],
					"stateMutability": "view",
					"type": "function"
				},
				{
					"inputs": [],
					"name": "createIDO",
					"outputs": [],
					"stateMutability": "nonpayable",
					"type": "function"
				},
				{
					"inputs": [],
					"name": "endDateTime",
					"outputs": [
						{
							"internalType": "uint256",
							"name": "",
							"type": "uint256"
						}
					],
					"stateMutability": "view",
					"type": "function"
				},
				{
					"inputs": [
						{
							"internalType": "address",
							"name": "_participant",
							"type": "address"
						}
					],
					"name": "isAuthorized",
					"outputs": [
						{
							"internalType": "bool",
							"name": "",
							"type": "bool"
						}
					],
					"stateMutability": "view",
					"type": "function"
				},
				{
					"inputs": [],
					"name": "owner",
					"outputs": [
						{
							"internalType": "address",
							"name": "",
							"type": "address"
						}
					],
					"stateMutability": "view",
					"type": "function"
				},
				{
					"inputs": [],
					"name": "router",
					"outputs": [
						{
							"internalType": "contract IUniswapV2Router02",
							"name": "",
							"type": "address"
						}
					],
					"stateMutability": "view",
					"type": "function"
				},
				{
					"inputs": [],
					"name": "startDateTime",
					"outputs": [
						{
							"internalType": "uint256",
							"name": "",
							"type": "uint256"
						}
					],
					"stateMutability": "view",
					"type": "function"
				},
				{
					"inputs": [
						{
							"internalType": "uint256",
							"name": "_cap",
							"type": "uint256"
						}
					],
					"name": "updateCap",
					"outputs": [],
					"stateMutability": "nonpayable",
					"type": "function"
				},
				{
					"inputs": [
						{
							"internalType": "address[]",
							"name": "_whitelist",
							"type": "address[]"
						}
					],
					"name": "updateWhitelist",
					"outputs": [],
					"stateMutability": "nonpayable",
					"type": "function"
				},
				{
					"inputs": [
						{
							"internalType": "uint256",
							"name": "",
							"type": "uint256"
						}
					],
					"name": "whitelist",
					"outputs": [
						{
							"internalType": "address",
							"name": "",
							"type": "address"
						}
					],
					"stateMutability": "view",
					"type": "function"
				}
			],
			"devdoc": {
				"kind": "dev",
				"methods": {
					"createIDO()": {
						"details": "Creates the IDO and sells tokens to participants."
					},
					"isAuthorized(address)": {
						"details": "Checks whether a participant is authorized to participate in the IDO.",
						"params": {
							"_participant": "The address of the participant."
						}
					},
					"updateCap(uint256)": {
						"details": "Updates the cap of the IDO.",
						"params": {
							"_cap": "The new cap."
						}
					},
					"updateWhitelist(address[])": {
						"details": "Updates the whitelist of the IDO.",
						"params": {
							"_whitelist": "The new whitelist."
						}
					}
				},
				"version": 1
			},
			"evm": {
				"assembly": "    /* \"contracts/ido.sol\":138:2403  contract IDO {... */\n  mstore(0x40, 0x80)\n    /* \"contracts/ido.sol\":394:747  constructor(uint256 _startDateTime, uint256 _endDateTime, uint256 _cap, address[] memory _whitelist, address _owner, address _routerAddress) {... */\n  callvalue\n  dup1\n  iszero\n  tag_1\n  jumpi\n  0x00\n  dup1\n  revert\ntag_1:\n  pop\n  mload(0x40)\n  sub(codesize, bytecodeSize)\n  dup1\n  bytecodeSize\n  dup4\n  codecopy\n  dup2\n  dup2\n  add\n  0x40\n  mstore\n  dup2\n  add\n  swap1\n  tag_2\n  swap2\n  swap1\n  tag_3\n  jump\t// in\ntag_2:\n    /* \"contracts/ido.sol\":561:575  _startDateTime */\n  dup6\n    /* \"contracts/ido.sol\":545:558  startDateTime */\n  0x00\n    /* \"contracts/ido.sol\":545:575  startDateTime = _startDateTime */\n  dup2\n  swap1\n  sstore\n  pop\n    /* \"contracts/ido.sol\":599:611  _endDateTime */\n  dup5\n    /* \"contracts/ido.sol\":585:596  endDateTime */\n  0x01\n    /* \"contracts/ido.sol\":585:611  endDateTime = _endDateTime */\n  dup2\n  swap1\n  sstore\n  pop\n    /* \"contracts/ido.sol\":627:631  _cap */\n  dup4\n    /* \"contracts/ido.sol\":621:624  cap */\n  0x02\n    /* \"contracts/ido.sol\":621:631  cap = _cap */\n  dup2\n  swap1\n  sstore\n  pop\n    /* \"contracts/ido.sol\":653:663  _whitelist */\n  dup3\n    /* \"contracts/ido.sol\":641:650  whitelist */\n  0x03\n    /* \"contracts/ido.sol\":641:663  whitelist = _whitelist */\n  swap1\n  dup1\n  mload\n  swap1\n  0x20\n  add\n  swap1\n  tag_6\n  swap3\n  swap2\n  swap1\n  tag_7\n  jump\t// in\ntag_6:\n  pop\n    /* \"contracts/ido.sol\":681:687  _owner */\n  dup2\n    /* \"contracts/ido.sol\":673:678  owner */\n  0x04\n  0x00\n    /* \"contracts/ido.sol\":673:687  owner = _owner */\n  0x0100\n  exp\n  dup2\n  sload\n  dup2\n  0xffffffffffffffffffffffffffffffffffffffff\n  mul\n  not\n  and\n  swap1\n  dup4\n  0xffffffffffffffffffffffffffffffffffffffff\n  and\n  mul\n  or\n  swap1\n  sstore\n  pop\n    /* \"contracts/ido.sol\":725:739  _routerAddress */\n  dup1\n    /* \"contracts/ido.sol\":697:703  router */\n  0x05\n  0x00\n    /* \"contracts/ido.sol\":697:740  router = IUniswapV2Router02(_routerAddress) */\n  0x0100\n  exp\n  dup2\n  sload\n  dup2\n  0xffffffffffffffffffffffffffffffffffffffff\n  mul\n  not\n  and\n  swap1\n  dup4\n  0xffffffffffffffffffffffffffffffffffffffff\n  and\n  mul\n  or\n  swap1\n  sstore\n  pop\n    /* \"contracts/ido.sol\":394:747  constructor(uint256 _startDateTime, uint256 _endDateTime, uint256 _cap, address[] memory _whitelist, address _owner, address _routerAddress) {... */\n  pop\n  pop\n  pop\n  pop\n  pop\n  pop\n    /* \"contracts/ido.sol\":138:2403  contract IDO {... */\n  jump(tag_8)\ntag_7:\n  dup3\n  dup1\n  sload\n  dup3\n  dup3\n  sstore\n  swap1\n  0x00\n  mstore\n  keccak256(0x00, 0x20)\n  swap1\n  dup2\n  add\n  swap3\n  dup3\n  iszero\n  tag_9\n  jumpi\n  swap2\n  0x20\n  mul\n  dup3\n  add\ntag_10:\n  dup3\n  dup2\n  gt\n  iszero\n  tag_11\n  jumpi\n  dup3\n  mload\n  dup3\n  exp(0x0100, 0x00)\n  dup2\n  sload\n  dup2\n  0xffffffffffffffffffffffffffffffffffffffff\n  mul\n  not\n  and\n  swap1\n  dup4\n  0xffffffffffffffffffffffffffffffffffffffff\n  and\n  mul\n  or\n  swap1\n  sstore\n  pop\n  swap2\n  0x20\n  add\n  swap2\n  swap1\n  0x01\n  add\n  swap1\n  jump(tag_10)\ntag_11:\ntag_9:\n  pop\n  swap1\n  pop\n  tag_12\n  swap2\n  swap1\n  tag_13\n  jump\t// in\ntag_12:\n  pop\n  swap1\n  jump\t// out\ntag_13:\ntag_14:\n  dup1\n  dup3\n  gt\n  iszero\n  tag_15\n  jumpi\n  0x00\n  dup2\n  0x00\n  swap1\n  sstore\n  pop\n  0x01\n  add\n  jump(tag_14)\ntag_15:\n  pop\n  swap1\n  jump\t// out\n    /* \"#utility.yul\":24:768   */\ntag_17:\n    /* \"#utility.yul\":131:136   */\n  0x00\n    /* \"#utility.yul\":156:237   */\n  tag_19\n    /* \"#utility.yul\":172:236   */\n  tag_20\n    /* \"#utility.yul\":229:235   */\n  dup5\n    /* \"#utility.yul\":172:236   */\n  tag_21\n  jump\t// in\ntag_20:\n    /* \"#utility.yul\":156:237   */\n  tag_22\n  jump\t// in\ntag_19:\n    /* \"#utility.yul\":147:237   */\n  swap1\n  pop\n    /* \"#utility.yul\":257:262   */\n  dup1\n    /* \"#utility.yul\":286:292   */\n  dup4\n    /* \"#utility.yul\":279:284   */\n  dup3\n    /* \"#utility.yul\":272:293   */\n  mstore\n    /* \"#utility.yul\":320:324   */\n  0x20\n    /* \"#utility.yul\":313:318   */\n  dup3\n    /* \"#utility.yul\":309:325   */\n  add\n    /* \"#utility.yul\":302:325   */\n  swap1\n  pop\n    /* \"#utility.yul\":346:352   */\n  dup3\n    /* \"#utility.yul\":396:399   */\n  dup6\n    /* \"#utility.yul\":388:392   */\n  0x20\n    /* \"#utility.yul\":380:386   */\n  dup7\n    /* \"#utility.yul\":376:393   */\n  mul\n    /* \"#utility.yul\":371:374   */\n  dup3\n    /* \"#utility.yul\":367:394   */\n  add\n    /* \"#utility.yul\":364:400   */\n  gt\n    /* \"#utility.yul\":361:504   */\n  iszero\n  tag_23\n  jumpi\n    /* \"#utility.yul\":415:494   */\n  tag_24\n  tag_25\n  jump\t// in\ntag_24:\n    /* \"#utility.yul\":361:504   */\ntag_23:\n    /* \"#utility.yul\":528:529   */\n  0x00\n    /* \"#utility.yul\":513:762   */\ntag_26:\n    /* \"#utility.yul\":538:544   */\n  dup6\n    /* \"#utility.yul\":535:536   */\n  dup2\n    /* \"#utility.yul\":532:545   */\n  lt\n    /* \"#utility.yul\":513:762   */\n  iszero\n  tag_28\n  jumpi\n    /* \"#utility.yul\":606:609   */\n  dup2\n    /* \"#utility.yul\":635:683   */\n  tag_29\n    /* \"#utility.yul\":679:682   */\n  dup9\n    /* \"#utility.yul\":667:677   */\n  dup3\n    /* \"#utility.yul\":635:683   */\n  tag_30\n  jump\t// in\ntag_29:\n    /* \"#utility.yul\":630:633   */\n  dup5\n    /* \"#utility.yul\":623:684   */\n  mstore\n    /* \"#utility.yul\":713:717   */\n  0x20\n    /* \"#utility.yul\":708:711   */\n  dup5\n    /* \"#utility.yul\":704:718   */\n  add\n    /* \"#utility.yul\":697:718   */\n  swap4\n  pop\n    /* \"#utility.yul\":747:751   */\n  0x20\n    /* \"#utility.yul\":742:745   */\n  dup4\n    /* \"#utility.yul\":738:752   */\n  add\n    /* \"#utility.yul\":731:752   */\n  swap3\n  pop\n    /* \"#utility.yul\":573:762   */\n  pop\n    /* \"#utility.yul\":560:561   */\n  0x01\n    /* \"#utility.yul\":557:558   */\n  dup2\n    /* \"#utility.yul\":553:562   */\n  add\n    /* \"#utility.yul\":548:562   */\n  swap1\n  pop\n    /* \"#utility.yul\":513:762   */\n  jump(tag_26)\ntag_28:\n    /* \"#utility.yul\":517:531   */\n  pop\n    /* \"#utility.yul\":137:768   */\n  pop\n  pop\n    /* \"#utility.yul\":24:768   */\n  swap4\n  swap3\n  pop\n  pop\n  pop\n  jump\t// out\n    /* \"#utility.yul\":774:917   */\ntag_30:\n    /* \"#utility.yul\":831:836   */\n  0x00\n    /* \"#utility.yul\":862:868   */\n  dup2\n    /* \"#utility.yul\":856:869   */\n  mload\n    /* \"#utility.yul\":847:869   */\n  swap1\n  pop\n    /* \"#utility.yul\":878:911   */\n  tag_32\n    /* \"#utility.yul\":905:910   */\n  dup2\n    /* \"#utility.yul\":878:911   */\n  tag_33\n  jump\t// in\ntag_32:\n    /* \"#utility.yul\":774:917   */\n  swap3\n  swap2\n  pop\n  pop\n  jump\t// out\n    /* \"#utility.yul\":940:1325   */\ntag_34:\n    /* \"#utility.yul\":1022:1027   */\n  0x00\n    /* \"#utility.yul\":1071:1074   */\n  dup3\n    /* \"#utility.yul\":1064:1068   */\n  0x1f\n    /* \"#utility.yul\":1056:1062   */\n  dup4\n    /* \"#utility.yul\":1052:1069   */\n  add\n    /* \"#utility.yul\":1048:1075   */\n  slt\n    /* \"#utility.yul\":1038:1160   */\n  tag_36\n  jumpi\n    /* \"#utility.yul\":1079:1158   */\n  tag_37\n  tag_38\n  jump\t// in\ntag_37:\n    /* \"#utility.yul\":1038:1160   */\ntag_36:\n    /* \"#utility.yul\":1189:1195   */\n  dup2\n    /* \"#utility.yul\":1183:1196   */\n  mload\n    /* \"#utility.yul\":1214:1319   */\n  tag_39\n    /* \"#utility.yul\":1315:1318   */\n  dup5\n    /* \"#utility.yul\":1307:1313   */\n  dup3\n    /* \"#utility.yul\":1300:1304   */\n  0x20\n    /* \"#utility.yul\":1292:1298   */\n  dup7\n    /* \"#utility.yul\":1288:1305   */\n  add\n    /* \"#utility.yul\":1214:1319   */\n  tag_17\n  jump\t// in\ntag_39:\n    /* \"#utility.yul\":1205:1319   */\n  swap2\n  pop\n    /* \"#utility.yul\":1028:1325   */\n  pop\n    /* \"#utility.yul\":940:1325   */\n  swap3\n  swap2\n  pop\n  pop\n  jump\t// out\n    /* \"#utility.yul\":1331:1474   */\ntag_40:\n    /* \"#utility.yul\":1388:1393   */\n  0x00\n    /* \"#utility.yul\":1419:1425   */\n  dup2\n    /* \"#utility.yul\":1413:1426   */\n  mload\n    /* \"#utility.yul\":1404:1426   */\n  swap1\n  pop\n    /* \"#utility.yul\":1435:1468   */\n  tag_42\n    /* \"#utility.yul\":1462:1467   */\n  dup2\n    /* \"#utility.yul\":1435:1468   */\n  tag_43\n  jump\t// in\ntag_42:\n    /* \"#utility.yul\":1331:1474   */\n  swap3\n  swap2\n  pop\n  pop\n  jump\t// out\n    /* \"#utility.yul\":1480:2817   */\ntag_3:\n    /* \"#utility.yul\":1620:1626   */\n  0x00\n    /* \"#utility.yul\":1628:1634   */\n  dup1\n    /* \"#utility.yul\":1636:1642   */\n  0x00\n    /* \"#utility.yul\":1644:1650   */\n  dup1\n    /* \"#utility.yul\":1652:1658   */\n  0x00\n    /* \"#utility.yul\":1660:1666   */\n  dup1\n    /* \"#utility.yul\":1709:1712   */\n  0xc0\n    /* \"#utility.yul\":1697:1706   */\n  dup8\n    /* \"#utility.yul\":1688:1695   */\n  dup10\n    /* \"#utility.yul\":1684:1707   */\n  sub\n    /* \"#utility.yul\":1680:1713   */\n  slt\n    /* \"#utility.yul\":1677:1797   */\n  iszero\n  tag_45\n  jumpi\n    /* \"#utility.yul\":1716:1795   */\n  tag_46\n  tag_47\n  jump\t// in\ntag_46:\n    /* \"#utility.yul\":1677:1797   */\ntag_45:\n    /* \"#utility.yul\":1836:1837   */\n  0x00\n    /* \"#utility.yul\":1861:1925   */\n  tag_48\n    /* \"#utility.yul\":1917:1924   */\n  dup10\n    /* \"#utility.yul\":1908:1914   */\n  dup3\n    /* \"#utility.yul\":1897:1906   */\n  dup11\n    /* \"#utility.yul\":1893:1915   */\n  add\n    /* \"#utility.yul\":1861:1925   */\n  tag_40\n  jump\t// in\ntag_48:\n    /* \"#utility.yul\":1851:1925   */\n  swap7\n  pop\n    /* \"#utility.yul\":1807:1935   */\n  pop\n    /* \"#utility.yul\":1974:1976   */\n  0x20\n    /* \"#utility.yul\":2000:2064   */\n  tag_49\n    /* \"#utility.yul\":2056:2063   */\n  dup10\n    /* \"#utility.yul\":2047:2053   */\n  dup3\n    /* \"#utility.yul\":2036:2045   */\n  dup11\n    /* \"#utility.yul\":2032:2054   */\n  add\n    /* \"#utility.yul\":2000:2064   */\n  tag_40\n  jump\t// in\ntag_49:\n    /* \"#utility.yul\":1990:2064   */\n  swap6\n  pop\n    /* \"#utility.yul\":1945:2074   */\n  pop\n    /* \"#utility.yul\":2113:2115   */\n  0x40\n    /* \"#utility.yul\":2139:2203   */\n  tag_50\n    /* \"#utility.yul\":2195:2202   */\n  dup10\n    /* \"#utility.yul\":2186:2192   */\n  dup3\n    /* \"#utility.yul\":2175:2184   */\n  dup11\n    /* \"#utility.yul\":2171:2193   */\n  add\n    /* \"#utility.yul\":2139:2203   */\n  tag_40\n  jump\t// in\ntag_50:\n    /* \"#utility.yul\":2129:2203   */\n  swap5\n  pop\n    /* \"#utility.yul\":2084:2213   */\n  pop\n    /* \"#utility.yul\":2273:2275   */\n  0x60\n    /* \"#utility.yul\":2262:2271   */\n  dup8\n    /* \"#utility.yul\":2258:2276   */\n  add\n    /* \"#utility.yul\":2252:2277   */\n  mload\n    /* \"#utility.yul\":2304:2322   */\n  0xffffffffffffffff\n    /* \"#utility.yul\":2296:2302   */\n  dup2\n    /* \"#utility.yul\":2293:2323   */\n  gt\n    /* \"#utility.yul\":2290:2407   */\n  iszero\n  tag_51\n  jumpi\n    /* \"#utility.yul\":2326:2405   */\n  tag_52\n  tag_53\n  jump\t// in\ntag_52:\n    /* \"#utility.yul\":2290:2407   */\ntag_51:\n    /* \"#utility.yul\":2431:2520   */\n  tag_54\n    /* \"#utility.yul\":2512:2519   */\n  dup10\n    /* \"#utility.yul\":2503:2509   */\n  dup3\n    /* \"#utility.yul\":2492:2501   */\n  dup11\n    /* \"#utility.yul\":2488:2510   */\n  add\n    /* \"#utility.yul\":2431:2520   */\n  tag_34\n  jump\t// in\ntag_54:\n    /* \"#utility.yul\":2421:2520   */\n  swap4\n  pop\n    /* \"#utility.yul\":2223:2530   */\n  pop\n    /* \"#utility.yul\":2569:2572   */\n  0x80\n    /* \"#utility.yul\":2596:2660   */\n  tag_55\n    /* \"#utility.yul\":2652:2659   */\n  dup10\n    /* \"#utility.yul\":2643:2649   */\n  dup3\n    /* \"#utility.yul\":2632:2641   */\n  dup11\n    /* \"#utility.yul\":2628:2650   */\n  add\n    /* \"#utility.yul\":2596:2660   */\n  tag_30\n  jump\t// in\ntag_55:\n    /* \"#utility.yul\":2586:2660   */\n  swap3\n  pop\n    /* \"#utility.yul\":2540:2670   */\n  pop\n    /* \"#utility.yul\":2709:2712   */\n  0xa0\n    /* \"#utility.yul\":2736:2800   */\n  tag_56\n    /* \"#utility.yul\":2792:2799   */\n  dup10\n    /* \"#utility.yul\":2783:2789   */\n  dup3\n    /* \"#utility.yul\":2772:2781   */\n  dup11\n    /* \"#utility.yul\":2768:2790   */\n  add\n    /* \"#utility.yul\":2736:2800   */\n  tag_30\n  jump\t// in\ntag_56:\n    /* \"#utility.yul\":2726:2800   */\n  swap2\n  pop\n    /* \"#utility.yul\":2680:2810   */\n  pop\n    /* \"#utility.yul\":1480:2817   */\n  swap3\n  swap6\n  pop\n  swap3\n  swap6\n  pop\n  swap3\n  swap6\n  jump\t// out\n    /* \"#utility.yul\":2823:2952   */\ntag_22:\n    /* \"#utility.yul\":2857:2863   */\n  0x00\n    /* \"#utility.yul\":2884:2904   */\n  tag_58\n  tag_59\n  jump\t// in\ntag_58:\n    /* \"#utility.yul\":2874:2904   */\n  swap1\n  pop\n    /* \"#utility.yul\":2913:2946   */\n  tag_60\n    /* \"#utility.yul\":2941:2945   */\n  dup3\n    /* \"#utility.yul\":2933:2939   */\n  dup3\n    /* \"#utility.yul\":2913:2946   */\n  tag_61\n  jump\t// in\ntag_60:\n    /* \"#utility.yul\":2823:2952   */\n  swap2\n  swap1\n  pop\n  jump\t// out\n    /* \"#utility.yul\":2958:3033   */\ntag_59:\n    /* \"#utility.yul\":2991:2997   */\n  0x00\n    /* \"#utility.yul\":3024:3026   */\n  0x40\n    /* \"#utility.yul\":3018:3027   */\n  mload\n    /* \"#utility.yul\":3008:3027   */\n  swap1\n  pop\n    /* \"#utility.yul\":2958:3033   */\n  swap1\n  jump\t// out\n    /* \"#utility.yul\":3039:3350   */\ntag_21:\n    /* \"#utility.yul\":3116:3120   */\n  0x00\n    /* \"#utility.yul\":3206:3224   */\n  0xffffffffffffffff\n    /* \"#utility.yul\":3198:3204   */\n  dup3\n    /* \"#utility.yul\":3195:3225   */\n  gt\n    /* \"#utility.yul\":3192:3248   */\n  iszero\n  tag_64\n  jumpi\n    /* \"#utility.yul\":3228:3246   */\n  tag_65\n  tag_66\n  jump\t// in\ntag_65:\n    /* \"#utility.yul\":3192:3248   */\ntag_64:\n    /* \"#utility.yul\":3278:3282   */\n  0x20\n    /* \"#utility.yul\":3270:3276   */\n  dup3\n    /* \"#utility.yul\":3266:3283   */\n  mul\n    /* \"#utility.yul\":3258:3283   */\n  swap1\n  pop\n    /* \"#utility.yul\":3338:3342   */\n  0x20\n    /* \"#utility.yul\":3332:3336   */\n  dup2\n    /* \"#utility.yul\":3328:3343   */\n  add\n    /* \"#utility.yul\":3320:3343   */\n  swap1\n  pop\n    /* \"#utility.yul\":3039:3350   */\n  swap2\n  swap1\n  pop\n  jump\t// out\n    /* \"#utility.yul\":3356:3452   */\ntag_67:\n    /* \"#utility.yul\":3393:3400   */\n  0x00\n    /* \"#utility.yul\":3422:3446   */\n  tag_69\n    /* \"#utility.yul\":3440:3445   */\n  dup3\n    /* \"#utility.yul\":3422:3446   */\n  tag_70\n  jump\t// in\ntag_69:\n    /* \"#utility.yul\":3411:3446   */\n  swap1\n  pop\n    /* \"#utility.yul\":3356:3452   */\n  swap2\n  swap1\n  pop\n  jump\t// out\n    /* \"#utility.yul\":3458:3584   */\ntag_70:\n    /* \"#utility.yul\":3495:3502   */\n  0x00\n    /* \"#utility.yul\":3535:3577   */\n  0xffffffffffffffffffffffffffffffffffffffff\n    /* \"#utility.yul\":3528:3533   */\n  dup3\n    /* \"#utility.yul\":3524:3578   */\n  and\n    /* \"#utility.yul\":3513:3578   */\n  swap1\n  pop\n    /* \"#utility.yul\":3458:3584   */\n  swap2\n  swap1\n  pop\n  jump\t// out\n    /* \"#utility.yul\":3590:3667   */\ntag_72:\n    /* \"#utility.yul\":3627:3634   */\n  0x00\n    /* \"#utility.yul\":3656:3661   */\n  dup2\n    /* \"#utility.yul\":3645:3661   */\n  swap1\n  pop\n    /* \"#utility.yul\":3590:3667   */\n  swap2\n  swap1\n  pop\n  jump\t// out\n    /* \"#utility.yul\":3673:3954   */\ntag_61:\n    /* \"#utility.yul\":3756:3783   */\n  tag_75\n    /* \"#utility.yul\":3778:3782   */\n  dup3\n    /* \"#utility.yul\":3756:3783   */\n  tag_76\n  jump\t// in\ntag_75:\n    /* \"#utility.yul\":3748:3754   */\n  dup2\n    /* \"#utility.yul\":3744:3784   */\n  add\n    /* \"#utility.yul\":3886:3892   */\n  dup2\n    /* \"#utility.yul\":3874:3884   */\n  dup2\n    /* \"#utility.yul\":3871:3893   */\n  lt\n    /* \"#utility.yul\":3850:3868   */\n  0xffffffffffffffff\n    /* \"#utility.yul\":3838:3848   */\n  dup3\n    /* \"#utility.yul\":3835:3869   */\n  gt\n    /* \"#utility.yul\":3832:3894   */\n  or\n    /* \"#utility.yul\":3829:3917   */\n  iszero\n  tag_77\n  jumpi\n    /* \"#utility.yul\":3897:3915   */\n  tag_78\n  tag_66\n  jump\t// in\ntag_78:\n    /* \"#utility.yul\":3829:3917   */\ntag_77:\n    /* \"#utility.yul\":3937:3947   */\n  dup1\n    /* \"#utility.yul\":3933:3935   */\n  0x40\n    /* \"#utility.yul\":3926:3948   */\n  mstore\n    /* \"#utility.yul\":3716:3954   */\n  pop\n    /* \"#utility.yul\":3673:3954   */\n  pop\n  pop\n  jump\t// out\n    /* \"#utility.yul\":3960:4140   */\ntag_66:\n    /* \"#utility.yul\":4008:4085   */\n  0x4e487b7100000000000000000000000000000000000000000000000000000000\n    /* \"#utility.yul\":4005:4006   */\n  0x00\n    /* \"#utility.yul\":3998:4086   */\n  mstore\n    /* \"#utility.yul\":4105:4109   */\n  0x41\n    /* \"#utility.yul\":4102:4103   */\n  0x04\n    /* \"#utility.yul\":4095:4110   */\n  mstore\n    /* \"#utility.yul\":4129:4133   */\n  0x24\n    /* \"#utility.yul\":4126:4127   */\n  0x00\n    /* \"#utility.yul\":4119:4134   */\n  revert\n    /* \"#utility.yul\":4146:4263   */\ntag_38:\n    /* \"#utility.yul\":4255:4256   */\n  0x00\n    /* \"#utility.yul\":4252:4253   */\n  dup1\n    /* \"#utility.yul\":4245:4257   */\n  revert\n    /* \"#utility.yul\":4269:4386   */\ntag_25:\n    /* \"#utility.yul\":4378:4379   */\n  0x00\n    /* \"#utility.yul\":4375:4376   */\n  dup1\n    /* \"#utility.yul\":4368:4380   */\n  revert\n    /* \"#utility.yul\":4392:4509   */\ntag_53:\n    /* \"#utility.yul\":4501:4502   */\n  0x00\n    /* \"#utility.yul\":4498:4499   */\n  dup1\n    /* \"#utility.yul\":4491:4503   */\n  revert\n    /* \"#utility.yul\":4515:4632   */\ntag_47:\n    /* \"#utility.yul\":4624:4625   */\n  0x00\n    /* \"#utility.yul\":4621:4622   */\n  dup1\n    /* \"#utility.yul\":4614:4626   */\n  revert\n    /* \"#utility.yul\":4638:4740   */\ntag_76:\n    /* \"#utility.yul\":4679:4685   */\n  0x00\n    /* \"#utility.yul\":4730:4732   */\n  0x1f\n    /* \"#utility.yul\":4726:4733   */\n  not\n    /* \"#utility.yul\":4721:4723   */\n  0x1f\n    /* \"#utility.yul\":4714:4719   */\n  dup4\n    /* \"#utility.yul\":4710:4724   */\n  add\n    /* \"#utility.yul\":4706:4734   */\n  and\n    /* \"#utility.yul\":4696:4734   */\n  swap1\n  pop\n    /* \"#utility.yul\":4638:4740   */\n  swap2\n  swap1\n  pop\n  jump\t// out\n    /* \"#utility.yul\":4746:4868   */\ntag_33:\n    /* \"#utility.yul\":4819:4843   */\n  tag_86\n    /* \"#utility.yul\":4837:4842   */\n  dup2\n    /* \"#utility.yul\":4819:4843   */\n  tag_67\n  jump\t// in\ntag_86:\n    /* \"#utility.yul\":4812:4817   */\n  dup2\n    /* \"#utility.yul\":4809:4844   */\n  eq\n    /* \"#utility.yul\":4799:4862   */\n  tag_87\n  jumpi\n    /* \"#utility.yul\":4858:4859   */\n  0x00\n    /* \"#utility.yul\":4855:4856   */\n  dup1\n    /* \"#utility.yul\":4848:4860   */\n  revert\n    /* \"#utility.yul\":4799:4862   */\ntag_87:\n    /* \"#utility.yul\":4746:4868   */\n  pop\n  jump\t// out\n    /* \"#utility.yul\":4874:4996   */\ntag_43:\n    /* \"#utility.yul\":4947:4971   */\n  tag_89\n    /* \"#utility.yul\":4965:4970   */\n  dup2\n    /* \"#utility.yul\":4947:4971   */\n  tag_72\n  jump\t// in\ntag_89:\n    /* \"#utility.yul\":4940:4945   */\n  dup2\n    /* \"#utility.yul\":4937:4972   */\n  eq\n    /* \"#utility.yul\":4927:4990   */\n  tag_90\n  jumpi\n    /* \"#utility.yul\":4986:4987   */\n  0x00\n    /* \"#utility.yul\":4983:4984   */\n  dup1\n    /* \"#utility.yul\":4976:4988   */\n  revert\n    /* \"#utility.yul\":4927:4990   */\ntag_90:\n    /* \"#utility.yul\":4874:4996   */\n  pop\n  jump\t// out\n    /* \"contracts/ido.sol\":138:2403  contract IDO {... */\ntag_8:\n  dataSize(sub_0)\n  dup1\n  dataOffset(sub_0)\n  0x00\n  codecopy\n  0x00\n  return\nstop\n\nsub_0: assembly {\n        /* \"contracts/ido.sol\":138:2403  contract IDO {... */\n      mstore(0x40, 0x80)\n      callvalue\n      dup1\n      iszero\n      tag_1\n      jumpi\n      0x00\n      dup1\n      revert\n    tag_1:\n      pop\n      jumpi(tag_2, lt(calldatasize, 0x04))\n      shr(0xe0, calldataload(0x00))\n      dup1\n      0x7ebd1b30\n      gt\n      tag_13\n      jumpi\n      dup1\n      0x7ebd1b30\n      eq\n      tag_8\n      jumpi\n      dup1\n      0x8da5cb5b\n      eq\n      tag_9\n      jumpi\n      dup1\n      0xa7d68896\n      eq\n      tag_10\n      jumpi\n      dup1\n      0xf887ea40\n      eq\n      tag_11\n      jumpi\n      dup1\n      0xfe9fbb80\n      eq\n      tag_12\n      jumpi\n      jump(tag_2)\n    tag_13:\n      dup1\n      0x35377214\n      eq\n      tag_3\n      jumpi\n      dup1\n      0x355274ea\n      eq\n      tag_4\n      jumpi\n      dup1\n      0x3c9177cd\n      eq\n      tag_5\n      jumpi\n      dup1\n      0x6ad25869\n      eq\n      tag_6\n      jumpi\n      dup1\n      0x775f75df\n      eq\n      tag_7\n      jumpi\n    tag_2:\n      0x00\n      dup1\n      revert\n        /* \"contracts/ido.sol\":2238:2401  function updateWhitelist(address[] memory _whitelist) external {... */\n    tag_3:\n      tag_14\n      0x04\n      dup1\n      calldatasize\n      sub\n      dup2\n      add\n      swap1\n      tag_15\n      swap2\n      swap1\n      tag_16\n      jump\t// in\n    tag_15:\n      tag_17\n      jump\t// in\n    tag_14:\n      stop\n        /* \"contracts/ido.sol\":243:261  uint256 public cap */\n    tag_4:\n      tag_18\n      tag_19\n      jump\t// in\n    tag_18:\n      mload(0x40)\n      tag_20\n      swap2\n      swap1\n      tag_21\n      jump\t// in\n    tag_20:\n      mload(0x40)\n      dup1\n      swap2\n      sub\n      swap1\n      return\n        /* \"contracts/ido.sol\":211:237  uint256 public endDateTime */\n    tag_5:\n      tag_22\n      tag_23\n      jump\t// in\n    tag_22:\n      mload(0x40)\n      tag_24\n      swap2\n      swap1\n      tag_21\n      jump\t// in\n    tag_24:\n      mload(0x40)\n      dup1\n      swap2\n      sub\n      swap1\n      return\n        /* \"contracts/ido.sol\":831:1481  function createIDO() external {... */\n    tag_6:\n      tag_25\n      tag_26\n      jump\t// in\n    tag_25:\n      stop\n        /* \"contracts/ido.sol\":176:204  uint256 public startDateTime */\n    tag_7:\n      tag_27\n      tag_28\n      jump\t// in\n    tag_27:\n      mload(0x40)\n      tag_29\n      swap2\n      swap1\n      tag_21\n      jump\t// in\n    tag_29:\n      mload(0x40)\n      dup1\n      swap2\n      sub\n      swap1\n      return\n        /* \"contracts/ido.sol\":268:294  address[] public whitelist */\n    tag_8:\n      tag_30\n      0x04\n      dup1\n      calldatasize\n      sub\n      dup2\n      add\n      swap1\n      tag_31\n      swap2\n      swap1\n      tag_32\n      jump\t// in\n    tag_31:\n      tag_33\n      jump\t// in\n    tag_30:\n      mload(0x40)\n      tag_34\n      swap2\n      swap1\n      tag_35\n      jump\t// in\n    tag_34:\n      mload(0x40)\n      dup1\n      swap2\n      sub\n      swap1\n      return\n        /* \"contracts/ido.sol\":301:321  address public owner */\n    tag_9:\n      tag_36\n      tag_37\n      jump\t// in\n    tag_36:\n      mload(0x40)\n      tag_38\n      swap2\n      swap1\n      tag_35\n      jump\t// in\n    tag_38:\n      mload(0x40)\n      dup1\n      swap2\n      sub\n      swap1\n      return\n        /* \"contracts/ido.sol\":1996:2126  function updateCap(uint256 _cap) external {... */\n    tag_10:\n      tag_39\n      0x04\n      dup1\n      calldatasize\n      sub\n      dup2\n      add\n      swap1\n      tag_40\n      swap2\n      swap1\n      tag_32\n      jump\t// in\n    tag_40:\n      tag_41\n      jump\t// in\n    tag_39:\n      stop\n        /* \"contracts/ido.sol\":355:387  IUniswapV2Router02 public router */\n    tag_11:\n      tag_42\n      tag_43\n      jump\t// in\n    tag_42:\n      mload(0x40)\n      tag_44\n      swap2\n      swap1\n      tag_45\n      jump\t// in\n    tag_44:\n      mload(0x40)\n      dup1\n      swap2\n      sub\n      swap1\n      return\n        /* \"contracts/ido.sol\":1644:1902  function isAuthorized(address _participant) public view returns (bool) {... */\n    tag_12:\n      tag_46\n      0x04\n      dup1\n      calldatasize\n      sub\n      dup2\n      add\n      swap1\n      tag_47\n      swap2\n      swap1\n      tag_48\n      jump\t// in\n    tag_47:\n      tag_49\n      jump\t// in\n    tag_46:\n      mload(0x40)\n      tag_50\n      swap2\n      swap1\n      tag_51\n      jump\t// in\n    tag_50:\n      mload(0x40)\n      dup1\n      swap2\n      sub\n      swap1\n      return\n        /* \"contracts/ido.sol\":2238:2401  function updateWhitelist(address[] memory _whitelist) external {... */\n    tag_17:\n        /* \"contracts/ido.sol\":2333:2338  owner */\n      0x04\n      0x00\n      swap1\n      sload\n      swap1\n      0x0100\n      exp\n      swap1\n      div\n      0xffffffffffffffffffffffffffffffffffffffff\n      and\n        /* \"contracts/ido.sol\":2319:2338  msg.sender == owner */\n      0xffffffffffffffffffffffffffffffffffffffff\n      and\n        /* \"contracts/ido.sol\":2319:2329  msg.sender */\n      caller\n        /* \"contracts/ido.sol\":2319:2338  msg.sender == owner */\n      0xffffffffffffffffffffffffffffffffffffffff\n      and\n      eq\n        /* \"contracts/ido.sol\":2311:2362  require(msg.sender == owner, \"IDO: not authorized\") */\n      tag_53\n      jumpi\n      mload(0x40)\n      0x08c379a000000000000000000000000000000000000000000000000000000000\n      dup2\n      mstore\n      0x04\n      add\n      tag_54\n      swap1\n      tag_55\n      jump\t// in\n    tag_54:\n      mload(0x40)\n      dup1\n      swap2\n      sub\n      swap1\n      revert\n    tag_53:\n        /* \"contracts/ido.sol\":2384:2394  _whitelist */\n      dup1\n        /* \"contracts/ido.sol\":2372:2381  whitelist */\n      0x03\n        /* \"contracts/ido.sol\":2372:2394  whitelist = _whitelist */\n      swap1\n      dup1\n      mload\n      swap1\n      0x20\n      add\n      swap1\n      tag_56\n      swap3\n      swap2\n      swap1\n      tag_57\n      jump\t// in\n    tag_56:\n      pop\n        /* \"contracts/ido.sol\":2238:2401  function updateWhitelist(address[] memory _whitelist) external {... */\n      pop\n      jump\t// out\n        /* \"contracts/ido.sol\":243:261  uint256 public cap */\n    tag_19:\n      sload(0x02)\n      dup2\n      jump\t// out\n        /* \"contracts/ido.sol\":211:237  uint256 public endDateTime */\n    tag_23:\n      sload(0x01)\n      dup2\n      jump\t// out\n        /* \"contracts/ido.sol\":831:1481  function createIDO() external {... */\n    tag_26:\n        /* \"contracts/ido.sol\":934:947  startDateTime */\n      sload(0x00)\n        /* \"contracts/ido.sol\":915:930  block.timestamp */\n      timestamp\n        /* \"contracts/ido.sol\":915:947  block.timestamp >= startDateTime */\n      lt\n      iszero\n        /* \"contracts/ido.sol\":907:972  require(block.timestamp >= startDateTime, \"IDO: not started yet\") */\n      tag_59\n      jumpi\n      mload(0x40)\n      0x08c379a000000000000000000000000000000000000000000000000000000000\n      dup2\n      mstore\n      0x04\n      add\n      tag_60\n      swap1\n      tag_61\n      jump\t// in\n    tag_60:\n      mload(0x40)\n      dup1\n      swap2\n      sub\n      swap1\n      revert\n    tag_59:\n        /* \"contracts/ido.sol\":1044:1055  endDateTime */\n      sload(0x01)\n        /* \"contracts/ido.sol\":1025:1040  block.timestamp */\n      timestamp\n        /* \"contracts/ido.sol\":1025:1055  block.timestamp <= endDateTime */\n      gt\n      iszero\n        /* \"contracts/ido.sol\":1017:1078  require(block.timestamp <= endDateTime, \"IDO: already ended\") */\n      tag_62\n      jumpi\n      mload(0x40)\n      0x08c379a000000000000000000000000000000000000000000000000000000000\n      dup2\n      mstore\n      0x04\n      add\n      tag_63\n      swap1\n      tag_64\n      jump\t// in\n    tag_63:\n      mload(0x40)\n      dup1\n      swap2\n      sub\n      swap1\n      revert\n    tag_62:\n        /* \"contracts/ido.sol\":1167:1170  cap */\n      sload(0x02)\n        /* \"contracts/ido.sol\":1142:1163  address(this).balance */\n      selfbalance\n        /* \"contracts/ido.sol\":1142:1170  address(this).balance <= cap */\n      gt\n      iszero\n        /* \"contracts/ido.sol\":1134:1191  require(address(this).balance <= cap, \"IDO: cap reached\") */\n      tag_65\n      jumpi\n      mload(0x40)\n      0x08c379a000000000000000000000000000000000000000000000000000000000\n      dup2\n      mstore\n      0x04\n      add\n      tag_66\n      swap1\n      tag_67\n      jump\t// in\n    tag_66:\n      mload(0x40)\n      dup1\n      swap2\n      sub\n      swap1\n      revert\n    tag_65:\n        /* \"contracts/ido.sol\":1282:1306  isAuthorized(msg.sender) */\n      tag_68\n        /* \"contracts/ido.sol\":1295:1305  msg.sender */\n      caller\n        /* \"contracts/ido.sol\":1282:1294  isAuthorized */\n      tag_49\n        /* \"contracts/ido.sol\":1282:1306  isAuthorized(msg.sender) */\n      jump\t// in\n    tag_68:\n        /* \"contracts/ido.sol\":1274:1330  require(isAuthorized(msg.sender), \"IDO: not authorized\") */\n      tag_69\n      jumpi\n      mload(0x40)\n      0x08c379a000000000000000000000000000000000000000000000000000000000\n      dup2\n      mstore\n      0x04\n      add\n      tag_70\n      swap1\n      tag_55\n      jump\t// in\n    tag_70:\n      mload(0x40)\n      dup1\n      swap2\n      sub\n      swap1\n      revert\n    tag_69:\n        /* \"contracts/ido.sol\":1467:1472  owner */\n      0x04\n      0x00\n      swap1\n      sload\n      swap1\n      0x0100\n      exp\n      swap1\n      div\n      0xffffffffffffffffffffffffffffffffffffffff\n      and\n        /* \"contracts/ido.sol\":1446:1474  selfdestruct(payable(owner)) */\n      0xffffffffffffffffffffffffffffffffffffffff\n      and\n      selfdestruct\n        /* \"contracts/ido.sol\":176:204  uint256 public startDateTime */\n    tag_28:\n      sload(0x00)\n      dup2\n      jump\t// out\n        /* \"contracts/ido.sol\":268:294  address[] public whitelist */\n    tag_33:\n      0x03\n      dup2\n      dup2\n      sload\n      dup2\n      lt\n      tag_71\n      jumpi\n      0x00\n      dup1\n      revert\n    tag_71:\n      swap1\n      0x00\n      mstore\n      keccak256(0x00, 0x20)\n      add\n      0x00\n      swap2\n      pop\n      sload\n      swap1\n      0x0100\n      exp\n      swap1\n      div\n      0xffffffffffffffffffffffffffffffffffffffff\n      and\n      dup2\n      jump\t// out\n        /* \"contracts/ido.sol\":301:321  address public owner */\n    tag_37:\n      0x04\n      0x00\n      swap1\n      sload\n      swap1\n      0x0100\n      exp\n      swap1\n      div\n      0xffffffffffffffffffffffffffffffffffffffff\n      and\n      dup2\n      jump\t// out\n        /* \"contracts/ido.sol\":1996:2126  function updateCap(uint256 _cap) external {... */\n    tag_41:\n        /* \"contracts/ido.sol\":2070:2075  owner */\n      0x04\n      0x00\n      swap1\n      sload\n      swap1\n      0x0100\n      exp\n      swap1\n      div\n      0xffffffffffffffffffffffffffffffffffffffff\n      and\n        /* \"contracts/ido.sol\":2056:2075  msg.sender == owner */\n      0xffffffffffffffffffffffffffffffffffffffff\n      and\n        /* \"contracts/ido.sol\":2056:2066  msg.sender */\n      caller\n        /* \"contracts/ido.sol\":2056:2075  msg.sender == owner */\n      0xffffffffffffffffffffffffffffffffffffffff\n      and\n      eq\n        /* \"contracts/ido.sol\":2048:2099  require(msg.sender == owner, \"IDO: not authorized\") */\n      tag_74\n      jumpi\n      mload(0x40)\n      0x08c379a000000000000000000000000000000000000000000000000000000000\n      dup2\n      mstore\n      0x04\n      add\n      tag_75\n      swap1\n      tag_55\n      jump\t// in\n    tag_75:\n      mload(0x40)\n      dup1\n      swap2\n      sub\n      swap1\n      revert\n    tag_74:\n        /* \"contracts/ido.sol\":2115:2119  _cap */\n      dup1\n        /* \"contracts/ido.sol\":2109:2112  cap */\n      0x02\n        /* \"contracts/ido.sol\":2109:2119  cap = _cap */\n      dup2\n      swap1\n      sstore\n      pop\n        /* \"contracts/ido.sol\":1996:2126  function updateCap(uint256 _cap) external {... */\n      pop\n      jump\t// out\n        /* \"contracts/ido.sol\":355:387  IUniswapV2Router02 public router */\n    tag_43:\n      0x05\n      0x00\n      swap1\n      sload\n      swap1\n      0x0100\n      exp\n      swap1\n      div\n      0xffffffffffffffffffffffffffffffffffffffff\n      and\n      dup2\n      jump\t// out\n        /* \"contracts/ido.sol\":1644:1902  function isAuthorized(address _participant) public view returns (bool) {... */\n    tag_49:\n        /* \"contracts/ido.sol\":1709:1713  bool */\n      0x00\n        /* \"contracts/ido.sol\":1730:1739  uint256 i */\n      dup1\n        /* \"contracts/ido.sol\":1742:1743  0 */\n      0x00\n        /* \"contracts/ido.sol\":1730:1743  uint256 i = 0 */\n      swap1\n      pop\n        /* \"contracts/ido.sol\":1725:1874  for (uint256 i = 0; i < whitelist.length; i++) {... */\n    tag_77:\n        /* \"contracts/ido.sol\":1749:1758  whitelist */\n      0x03\n        /* \"contracts/ido.sol\":1749:1765  whitelist.length */\n      dup1\n      sload\n      swap1\n      pop\n        /* \"contracts/ido.sol\":1745:1746  i */\n      dup2\n        /* \"contracts/ido.sol\":1745:1765  i < whitelist.length */\n      lt\n        /* \"contracts/ido.sol\":1725:1874  for (uint256 i = 0; i < whitelist.length; i++) {... */\n      iszero\n      tag_78\n      jumpi\n        /* \"contracts/ido.sol\":1806:1818  _participant */\n      dup3\n        /* \"contracts/ido.sol\":1790:1818  whitelist[i] == _participant */\n      0xffffffffffffffffffffffffffffffffffffffff\n      and\n        /* \"contracts/ido.sol\":1790:1799  whitelist */\n      0x03\n        /* \"contracts/ido.sol\":1800:1801  i */\n      dup3\n        /* \"contracts/ido.sol\":1790:1802  whitelist[i] */\n      dup2\n      sload\n      dup2\n      lt\n      tag_80\n      jumpi\n      tag_81\n      tag_82\n      jump\t// in\n    tag_81:\n    tag_80:\n      swap1\n      0x00\n      mstore\n      keccak256(0x00, 0x20)\n      add\n      0x00\n      swap1\n      sload\n      swap1\n      0x0100\n      exp\n      swap1\n      div\n      0xffffffffffffffffffffffffffffffffffffffff\n      and\n        /* \"contracts/ido.sol\":1790:1818  whitelist[i] == _participant */\n      0xffffffffffffffffffffffffffffffffffffffff\n      and\n      eq\n        /* \"contracts/ido.sol\":1786:1864  if (whitelist[i] == _participant) {... */\n      iszero\n      tag_84\n      jumpi\n        /* \"contracts/ido.sol\":1845:1849  true */\n      0x01\n        /* \"contracts/ido.sol\":1838:1849  return true */\n      swap2\n      pop\n      pop\n      jump(tag_76)\n        /* \"contracts/ido.sol\":1786:1864  if (whitelist[i] == _participant) {... */\n    tag_84:\n        /* \"contracts/ido.sol\":1767:1770  i++ */\n      dup1\n      dup1\n      tag_85\n      swap1\n      tag_86\n      jump\t// in\n    tag_85:\n      swap2\n      pop\n      pop\n        /* \"contracts/ido.sol\":1725:1874  for (uint256 i = 0; i < whitelist.length; i++) {... */\n      jump(tag_77)\n    tag_78:\n      pop\n        /* \"contracts/ido.sol\":1890:1895  false */\n      0x00\n        /* \"contracts/ido.sol\":1883:1895  return false */\n      swap1\n      pop\n        /* \"contracts/ido.sol\":1644:1902  function isAuthorized(address _participant) public view returns (bool) {... */\n    tag_76:\n      swap2\n      swap1\n      pop\n      jump\t// out\n    tag_57:\n      dup3\n      dup1\n      sload\n      dup3\n      dup3\n      sstore\n      swap1\n      0x00\n      mstore\n      keccak256(0x00, 0x20)\n      swap1\n      dup2\n      add\n      swap3\n      dup3\n      iszero\n      tag_87\n      jumpi\n      swap2\n      0x20\n      mul\n      dup3\n      add\n    tag_88:\n      dup3\n      dup2\n      gt\n      iszero\n      tag_89\n      jumpi\n      dup3\n      mload\n      dup3\n      exp(0x0100, 0x00)\n      dup2\n      sload\n      dup2\n      0xffffffffffffffffffffffffffffffffffffffff\n      mul\n      not\n      and\n      swap1\n      dup4\n      0xffffffffffffffffffffffffffffffffffffffff\n      and\n      mul\n      or\n      swap1\n      sstore\n      pop\n      swap2\n      0x20\n      add\n      swap2\n      swap1\n      0x01\n      add\n      swap1\n      jump(tag_88)\n    tag_89:\n    tag_87:\n      pop\n      swap1\n      pop\n      tag_90\n      swap2\n      swap1\n      tag_91\n      jump\t// in\n    tag_90:\n      pop\n      swap1\n      jump\t// out\n    tag_91:\n    tag_92:\n      dup1\n      dup3\n      gt\n      iszero\n      tag_93\n      jumpi\n      0x00\n      dup2\n      0x00\n      swap1\n      sstore\n      pop\n      0x01\n      add\n      jump(tag_92)\n    tag_93:\n      pop\n      swap1\n      jump\t// out\n        /* \"#utility.yul\":24:746   */\n    tag_95:\n        /* \"#utility.yul\":120:125   */\n      0x00\n        /* \"#utility.yul\":145:226   */\n      tag_97\n        /* \"#utility.yul\":161:225   */\n      tag_98\n        /* \"#utility.yul\":218:224   */\n      dup5\n        /* \"#utility.yul\":161:225   */\n      tag_99\n      jump\t// in\n    tag_98:\n        /* \"#utility.yul\":145:226   */\n      tag_100\n      jump\t// in\n    tag_97:\n        /* \"#utility.yul\":136:226   */\n      swap1\n      pop\n        /* \"#utility.yul\":246:251   */\n      dup1\n        /* \"#utility.yul\":275:281   */\n      dup4\n        /* \"#utility.yul\":268:273   */\n      dup3\n        /* \"#utility.yul\":261:282   */\n      mstore\n        /* \"#utility.yul\":309:313   */\n      0x20\n        /* \"#utility.yul\":302:307   */\n      dup3\n        /* \"#utility.yul\":298:314   */\n      add\n        /* \"#utility.yul\":291:314   */\n      swap1\n      pop\n        /* \"#utility.yul\":335:341   */\n      dup3\n        /* \"#utility.yul\":385:388   */\n      dup6\n        /* \"#utility.yul\":377:381   */\n      0x20\n        /* \"#utility.yul\":369:375   */\n      dup7\n        /* \"#utility.yul\":365:382   */\n      mul\n        /* \"#utility.yul\":360:363   */\n      dup3\n        /* \"#utility.yul\":356:383   */\n      add\n        /* \"#utility.yul\":353:389   */\n      gt\n        /* \"#utility.yul\":350:493   */\n      iszero\n      tag_101\n      jumpi\n        /* \"#utility.yul\":404:483   */\n      tag_102\n      tag_103\n      jump\t// in\n    tag_102:\n        /* \"#utility.yul\":350:493   */\n    tag_101:\n        /* \"#utility.yul\":517:518   */\n      0x00\n        /* \"#utility.yul\":502:740   */\n    tag_104:\n        /* \"#utility.yul\":527:533   */\n      dup6\n        /* \"#utility.yul\":524:525   */\n      dup2\n        /* \"#utility.yul\":521:534   */\n      lt\n        /* \"#utility.yul\":502:740   */\n      iszero\n      tag_106\n      jumpi\n        /* \"#utility.yul\":595:598   */\n      dup2\n        /* \"#utility.yul\":624:661   */\n      tag_107\n        /* \"#utility.yul\":657:660   */\n      dup9\n        /* \"#utility.yul\":645:655   */\n      dup3\n        /* \"#utility.yul\":624:661   */\n      tag_108\n      jump\t// in\n    tag_107:\n        /* \"#utility.yul\":619:622   */\n      dup5\n        /* \"#utility.yul\":612:662   */\n      mstore\n        /* \"#utility.yul\":691:695   */\n      0x20\n        /* \"#utility.yul\":686:689   */\n      dup5\n        /* \"#utility.yul\":682:696   */\n      add\n        /* \"#utility.yul\":675:696   */\n      swap4\n      pop\n        /* \"#utility.yul\":725:729   */\n      0x20\n        /* \"#utility.yul\":720:723   */\n      dup4\n        /* \"#utility.yul\":716:730   */\n      add\n        /* \"#utility.yul\":709:730   */\n      swap3\n      pop\n        /* \"#utility.yul\":562:740   */\n      pop\n        /* \"#utility.yul\":549:550   */\n      0x01\n        /* \"#utility.yul\":546:547   */\n      dup2\n        /* \"#utility.yul\":542:551   */\n      add\n        /* \"#utility.yul\":537:551   */\n      swap1\n      pop\n        /* \"#utility.yul\":502:740   */\n      jump(tag_104)\n    tag_106:\n        /* \"#utility.yul\":506:520   */\n      pop\n        /* \"#utility.yul\":126:746   */\n      pop\n      pop\n        /* \"#utility.yul\":24:746   */\n      swap4\n      swap3\n      pop\n      pop\n      pop\n      jump\t// out\n        /* \"#utility.yul\":752:891   */\n    tag_108:\n        /* \"#utility.yul\":798:803   */\n      0x00\n        /* \"#utility.yul\":836:842   */\n      dup2\n        /* \"#utility.yul\":823:843   */\n      calldataload\n        /* \"#utility.yul\":814:843   */\n      swap1\n      pop\n        /* \"#utility.yul\":852:885   */\n      tag_110\n        /* \"#utility.yul\":879:884   */\n      dup2\n        /* \"#utility.yul\":852:885   */\n      tag_111\n      jump\t// in\n    tag_110:\n        /* \"#utility.yul\":752:891   */\n      swap3\n      swap2\n      pop\n      pop\n      jump\t// out\n        /* \"#utility.yul\":914:1284   */\n    tag_112:\n        /* \"#utility.yul\":985:990   */\n      0x00\n        /* \"#utility.yul\":1034:1037   */\n      dup3\n        /* \"#utility.yul\":1027:1031   */\n      0x1f\n        /* \"#utility.yul\":1019:1025   */\n      dup4\n        /* \"#utility.yul\":1015:1032   */\n      add\n        /* \"#utility.yul\":1011:1038   */\n      slt\n        /* \"#utility.yul\":1001:1123   */\n      tag_114\n      jumpi\n        /* \"#utility.yul\":1042:1121   */\n      tag_115\n      tag_116\n      jump\t// in\n    tag_115:\n        /* \"#utility.yul\":1001:1123   */\n    tag_114:\n        /* \"#utility.yul\":1159:1165   */\n      dup2\n        /* \"#utility.yul\":1146:1166   */\n      calldataload\n        /* \"#utility.yul\":1184:1278   */\n      tag_117\n        /* \"#utility.yul\":1274:1277   */\n      dup5\n        /* \"#utility.yul\":1266:1272   */\n      dup3\n        /* \"#utility.yul\":1259:1263   */\n      0x20\n        /* \"#utility.yul\":1251:1257   */\n      dup7\n        /* \"#utility.yul\":1247:1264   */\n      add\n        /* \"#utility.yul\":1184:1278   */\n      tag_95\n      jump\t// in\n    tag_117:\n        /* \"#utility.yul\":1175:1278   */\n      swap2\n      pop\n        /* \"#utility.yul\":991:1284   */\n      pop\n        /* \"#utility.yul\":914:1284   */\n      swap3\n      swap2\n      pop\n      pop\n      jump\t// out\n        /* \"#utility.yul\":1290:1429   */\n    tag_118:\n        /* \"#utility.yul\":1336:1341   */\n      0x00\n        /* \"#utility.yul\":1374:1380   */\n      dup2\n        /* \"#utility.yul\":1361:1381   */\n      calldataload\n        /* \"#utility.yul\":1352:1381   */\n      swap1\n      pop\n        /* \"#utility.yul\":1390:1423   */\n      tag_120\n        /* \"#utility.yul\":1417:1422   */\n      dup2\n        /* \"#utility.yul\":1390:1423   */\n      tag_121\n      jump\t// in\n    tag_120:\n        /* \"#utility.yul\":1290:1429   */\n      swap3\n      swap2\n      pop\n      pop\n      jump\t// out\n        /* \"#utility.yul\":1435:1764   */\n    tag_48:\n        /* \"#utility.yul\":1494:1500   */\n      0x00\n        /* \"#utility.yul\":1543:1545   */\n      0x20\n        /* \"#utility.yul\":1531:1540   */\n      dup3\n        /* \"#utility.yul\":1522:1529   */\n      dup5\n        /* \"#utility.yul\":1518:1541   */\n      sub\n        /* \"#utility.yul\":1514:1546   */\n      slt\n        /* \"#utility.yul\":1511:1630   */\n      iszero\n      tag_123\n      jumpi\n        /* \"#utility.yul\":1549:1628   */\n      tag_124\n      tag_125\n      jump\t// in\n    tag_124:\n        /* \"#utility.yul\":1511:1630   */\n    tag_123:\n        /* \"#utility.yul\":1669:1670   */\n      0x00\n        /* \"#utility.yul\":1694:1747   */\n      tag_126\n        /* \"#utility.yul\":1739:1746   */\n      dup5\n        /* \"#utility.yul\":1730:1736   */\n      dup3\n        /* \"#utility.yul\":1719:1728   */\n      dup6\n        /* \"#utility.yul\":1715:1737   */\n      add\n        /* \"#utility.yul\":1694:1747   */\n      tag_108\n      jump\t// in\n    tag_126:\n        /* \"#utility.yul\":1684:1747   */\n      swap2\n      pop\n        /* \"#utility.yul\":1640:1757   */\n      pop\n        /* \"#utility.yul\":1435:1764   */\n      swap3\n      swap2\n      pop\n      pop\n      jump\t// out\n        /* \"#utility.yul\":1770:2309   */\n    tag_16:\n        /* \"#utility.yul\":1854:1860   */\n      0x00\n        /* \"#utility.yul\":1903:1905   */\n      0x20\n        /* \"#utility.yul\":1891:1900   */\n      dup3\n        /* \"#utility.yul\":1882:1889   */\n      dup5\n        /* \"#utility.yul\":1878:1901   */\n      sub\n        /* \"#utility.yul\":1874:1906   */\n      slt\n        /* \"#utility.yul\":1871:1990   */\n      iszero\n      tag_128\n      jumpi\n        /* \"#utility.yul\":1909:1988   */\n      tag_129\n      tag_125\n      jump\t// in\n    tag_129:\n        /* \"#utility.yul\":1871:1990   */\n    tag_128:\n        /* \"#utility.yul\":2057:2058   */\n      0x00\n        /* \"#utility.yul\":2046:2055   */\n      dup3\n        /* \"#utility.yul\":2042:2059   */\n      add\n        /* \"#utility.yul\":2029:2060   */\n      calldataload\n        /* \"#utility.yul\":2087:2105   */\n      0xffffffffffffffff\n        /* \"#utility.yul\":2079:2085   */\n      dup2\n        /* \"#utility.yul\":2076:2106   */\n      gt\n        /* \"#utility.yul\":2073:2190   */\n      iszero\n      tag_130\n      jumpi\n        /* \"#utility.yul\":2109:2188   */\n      tag_131\n      tag_132\n      jump\t// in\n    tag_131:\n        /* \"#utility.yul\":2073:2190   */\n    tag_130:\n        /* \"#utility.yul\":2214:2292   */\n      tag_133\n        /* \"#utility.yul\":2284:2291   */\n      dup5\n        /* \"#utility.yul\":2275:2281   */\n      dup3\n        /* \"#utility.yul\":2264:2273   */\n      dup6\n        /* \"#utility.yul\":2260:2282   */\n      add\n        /* \"#utility.yul\":2214:2292   */\n      tag_112\n      jump\t// in\n    tag_133:\n        /* \"#utility.yul\":2204:2292   */\n      swap2\n      pop\n        /* \"#utility.yul\":2000:2302   */\n      pop\n        /* \"#utility.yul\":1770:2309   */\n      swap3\n      swap2\n      pop\n      pop\n      jump\t// out\n        /* \"#utility.yul\":2315:2644   */\n    tag_32:\n        /* \"#utility.yul\":2374:2380   */\n      0x00\n        /* \"#utility.yul\":2423:2425   */\n      0x20\n        /* \"#utility.yul\":2411:2420   */\n      dup3\n        /* \"#utility.yul\":2402:2409   */\n      dup5\n        /* \"#utility.yul\":2398:2421   */\n      sub\n        /* \"#utility.yul\":2394:2426   */\n      slt\n        /* \"#utility.yul\":2391:2510   */\n      iszero\n      tag_135\n      jumpi\n        /* \"#utility.yul\":2429:2508   */\n      tag_136\n      tag_125\n      jump\t// in\n    tag_136:\n        /* \"#utility.yul\":2391:2510   */\n    tag_135:\n        /* \"#utility.yul\":2549:2550   */\n      0x00\n        /* \"#utility.yul\":2574:2627   */\n      tag_137\n        /* \"#utility.yul\":2619:2626   */\n      dup5\n        /* \"#utility.yul\":2610:2616   */\n      dup3\n        /* \"#utility.yul\":2599:2608   */\n      dup6\n        /* \"#utility.yul\":2595:2617   */\n      add\n        /* \"#utility.yul\":2574:2627   */\n      tag_118\n      jump\t// in\n    tag_137:\n        /* \"#utility.yul\":2564:2627   */\n      swap2\n      pop\n        /* \"#utility.yul\":2520:2637   */\n      pop\n        /* \"#utility.yul\":2315:2644   */\n      swap3\n      swap2\n      pop\n      pop\n      jump\t// out\n        /* \"#utility.yul\":2650:2768   */\n    tag_138:\n        /* \"#utility.yul\":2737:2761   */\n      tag_140\n        /* \"#utility.yul\":2755:2760   */\n      dup2\n        /* \"#utility.yul\":2737:2761   */\n      tag_141\n      jump\t// in\n    tag_140:\n        /* \"#utility.yul\":2732:2735   */\n      dup3\n        /* \"#utility.yul\":2725:2762   */\n      mstore\n        /* \"#utility.yul\":2650:2768   */\n      pop\n      pop\n      jump\t// out\n        /* \"#utility.yul\":2774:2883   */\n    tag_142:\n        /* \"#utility.yul\":2855:2876   */\n      tag_144\n        /* \"#utility.yul\":2870:2875   */\n      dup2\n        /* \"#utility.yul\":2855:2876   */\n      tag_145\n      jump\t// in\n    tag_144:\n        /* \"#utility.yul\":2850:2853   */\n      dup3\n        /* \"#utility.yul\":2843:2877   */\n      mstore\n        /* \"#utility.yul\":2774:2883   */\n      pop\n      pop\n      jump\t// out\n        /* \"#utility.yul\":2889:3072   */\n    tag_146:\n        /* \"#utility.yul\":3002:3065   */\n      tag_148\n        /* \"#utility.yul\":3059:3064   */\n      dup2\n        /* \"#utility.yul\":3002:3065   */\n      tag_149\n      jump\t// in\n    tag_148:\n        /* \"#utility.yul\":2997:3000   */\n      dup3\n        /* \"#utility.yul\":2990:3066   */\n      mstore\n        /* \"#utility.yul\":2889:3072   */\n      pop\n      pop\n      jump\t// out\n        /* \"#utility.yul\":3078:3444   */\n    tag_150:\n        /* \"#utility.yul\":3220:3223   */\n      0x00\n        /* \"#utility.yul\":3241:3308   */\n      tag_152\n        /* \"#utility.yul\":3305:3307   */\n      0x10\n        /* \"#utility.yul\":3300:3303   */\n      dup4\n        /* \"#utility.yul\":3241:3308   */\n      tag_153\n      jump\t// in\n    tag_152:\n        /* \"#utility.yul\":3234:3308   */\n      swap2\n      pop\n        /* \"#utility.yul\":3317:3410   */\n      tag_154\n        /* \"#utility.yul\":3406:3409   */\n      dup3\n        /* \"#utility.yul\":3317:3410   */\n      tag_155\n      jump\t// in\n    tag_154:\n        /* \"#utility.yul\":3435:3437   */\n      0x20\n        /* \"#utility.yul\":3430:3433   */\n      dup3\n        /* \"#utility.yul\":3426:3438   */\n      add\n        /* \"#utility.yul\":3419:3438   */\n      swap1\n      pop\n        /* \"#utility.yul\":3078:3444   */\n      swap2\n      swap1\n      pop\n      jump\t// out\n        /* \"#utility.yul\":3450:3816   */\n    tag_156:\n        /* \"#utility.yul\":3592:3595   */\n      0x00\n        /* \"#utility.yul\":3613:3680   */\n      tag_158\n        /* \"#utility.yul\":3677:3679   */\n      0x12\n        /* \"#utility.yul\":3672:3675   */\n      dup4\n        /* \"#utility.yul\":3613:3680   */\n      tag_153\n      jump\t// in\n    tag_158:\n        /* \"#utility.yul\":3606:3680   */\n      swap2\n      pop\n        /* \"#utility.yul\":3689:3782   */\n      tag_159\n        /* \"#utility.yul\":3778:3781   */\n      dup3\n        /* \"#utility.yul\":3689:3782   */\n      tag_160\n      jump\t// in\n    tag_159:\n        /* \"#utility.yul\":3807:3809   */\n      0x20\n        /* \"#utility.yul\":3802:3805   */\n      dup3\n        /* \"#utility.yul\":3798:3810   */\n      add\n        /* \"#utility.yul\":3791:3810   */\n      swap1\n      pop\n        /* \"#utility.yul\":3450:3816   */\n      swap2\n      swap1\n      pop\n      jump\t// out\n        /* \"#utility.yul\":3822:4188   */\n    tag_161:\n        /* \"#utility.yul\":3964:3967   */\n      0x00\n        /* \"#utility.yul\":3985:4052   */\n      tag_163\n        /* \"#utility.yul\":4049:4051   */\n      0x13\n        /* \"#utility.yul\":4044:4047   */\n      dup4\n        /* \"#utility.yul\":3985:4052   */\n      tag_153\n      jump\t// in\n    tag_163:\n        /* \"#utility.yul\":3978:4052   */\n      swap2\n      pop\n        /* \"#utility.yul\":4061:4154   */\n      tag_164\n        /* \"#utility.yul\":4150:4153   */\n      dup3\n        /* \"#utility.yul\":4061:4154   */\n      tag_165\n      jump\t// in\n    tag_164:\n        /* \"#utility.yul\":4179:4181   */\n      0x20\n        /* \"#utility.yul\":4174:4177   */\n      dup3\n        /* \"#utility.yul\":4170:4182   */\n      add\n        /* \"#utility.yul\":4163:4182   */\n      swap1\n      pop\n        /* \"#utility.yul\":3822:4188   */\n      swap2\n      swap1\n      pop\n      jump\t// out\n        /* \"#utility.yul\":4194:4560   */\n    tag_166:\n        /* \"#utility.yul\":4336:4339   */\n      0x00\n        /* \"#utility.yul\":4357:4424   */\n      tag_168\n        /* \"#utility.yul\":4421:4423   */\n      0x14\n        /* \"#utility.yul\":4416:4419   */\n      dup4\n        /* \"#utility.yul\":4357:4424   */\n      tag_153\n      jump\t// in\n    tag_168:\n        /* \"#utility.yul\":4350:4424   */\n      swap2\n      pop\n        /* \"#utility.yul\":4433:4526   */\n      tag_169\n        /* \"#utility.yul\":4522:4525   */\n      dup3\n        /* \"#utility.yul\":4433:4526   */\n      tag_170\n      jump\t// in\n    tag_169:\n        /* \"#utility.yul\":4551:4553   */\n      0x20\n        /* \"#utility.yul\":4546:4549   */\n      dup3\n        /* \"#utility.yul\":4542:4554   */\n      add\n        /* \"#utility.yul\":4535:4554   */\n      swap1\n      pop\n        /* \"#utility.yul\":4194:4560   */\n      swap2\n      swap1\n      pop\n      jump\t// out\n        /* \"#utility.yul\":4566:4684   */\n    tag_171:\n        /* \"#utility.yul\":4653:4677   */\n      tag_173\n        /* \"#utility.yul\":4671:4676   */\n      dup2\n        /* \"#utility.yul\":4653:4677   */\n      tag_174\n      jump\t// in\n    tag_173:\n        /* \"#utility.yul\":4648:4651   */\n      dup3\n        /* \"#utility.yul\":4641:4678   */\n      mstore\n        /* \"#utility.yul\":4566:4684   */\n      pop\n      pop\n      jump\t// out\n        /* \"#utility.yul\":4690:4912   */\n    tag_35:\n        /* \"#utility.yul\":4783:4787   */\n      0x00\n        /* \"#utility.yul\":4821:4823   */\n      0x20\n        /* \"#utility.yul\":4810:4819   */\n      dup3\n        /* \"#utility.yul\":4806:4824   */\n      add\n        /* \"#utility.yul\":4798:4824   */\n      swap1\n      pop\n        /* \"#utility.yul\":4834:4905   */\n      tag_176\n        /* \"#utility.yul\":4902:4903   */\n      0x00\n        /* \"#utility.yul\":4891:4900   */\n      dup4\n        /* \"#utility.yul\":4887:4904   */\n      add\n        /* \"#utility.yul\":4878:4884   */\n      dup5\n        /* \"#utility.yul\":4834:4905   */\n      tag_138\n      jump\t// in\n    tag_176:\n        /* \"#utility.yul\":4690:4912   */\n      swap3\n      swap2\n      pop\n      pop\n      jump\t// out\n        /* \"#utility.yul\":4918:5128   */\n    tag_51:\n        /* \"#utility.yul\":5005:5009   */\n      0x00\n        /* \"#utility.yul\":5043:5045   */\n      0x20\n        /* \"#utility.yul\":5032:5041   */\n      dup3\n        /* \"#utility.yul\":5028:5046   */\n      add\n        /* \"#utility.yul\":5020:5046   */\n      swap1\n      pop\n        /* \"#utility.yul\":5056:5121   */\n      tag_178\n        /* \"#utility.yul\":5118:5119   */\n      0x00\n        /* \"#utility.yul\":5107:5116   */\n      dup4\n        /* \"#utility.yul\":5103:5120   */\n      add\n        /* \"#utility.yul\":5094:5100   */\n      dup5\n        /* \"#utility.yul\":5056:5121   */\n      tag_142\n      jump\t// in\n    tag_178:\n        /* \"#utility.yul\":4918:5128   */\n      swap3\n      swap2\n      pop\n      pop\n      jump\t// out\n        /* \"#utility.yul\":5134:5408   */\n    tag_45:\n        /* \"#utility.yul\":5253:5257   */\n      0x00\n        /* \"#utility.yul\":5291:5293   */\n      0x20\n        /* \"#utility.yul\":5280:5289   */\n      dup3\n        /* \"#utility.yul\":5276:5294   */\n      add\n        /* \"#utility.yul\":5268:5294   */\n      swap1\n      pop\n        /* \"#utility.yul\":5304:5401   */\n      tag_180\n        /* \"#utility.yul\":5398:5399   */\n      0x00\n        /* \"#utility.yul\":5387:5396   */\n      dup4\n        /* \"#utility.yul\":5383:5400   */\n      add\n        /* \"#utility.yul\":5374:5380   */\n      dup5\n        /* \"#utility.yul\":5304:5401   */\n      tag_146\n      jump\t// in\n    tag_180:\n        /* \"#utility.yul\":5134:5408   */\n      swap3\n      swap2\n      pop\n      pop\n      jump\t// out\n        /* \"#utility.yul\":5414:5833   */\n    tag_67:\n        /* \"#utility.yul\":5580:5584   */\n      0x00\n        /* \"#utility.yul\":5618:5620   */\n      0x20\n        /* \"#utility.yul\":5607:5616   */\n      dup3\n        /* \"#utility.yul\":5603:5621   */\n      add\n        /* \"#utility.yul\":5595:5621   */\n      swap1\n      pop\n        /* \"#utility.yul\":5667:5676   */\n      dup2\n        /* \"#utility.yul\":5661:5665   */\n      dup2\n        /* \"#utility.yul\":5657:5677   */\n      sub\n        /* \"#utility.yul\":5653:5654   */\n      0x00\n        /* \"#utility.yul\":5642:5651   */\n      dup4\n        /* \"#utility.yul\":5638:5655   */\n      add\n        /* \"#utility.yul\":5631:5678   */\n      mstore\n        /* \"#utility.yul\":5695:5826   */\n      tag_182\n        /* \"#utility.yul\":5821:5825   */\n      dup2\n        /* \"#utility.yul\":5695:5826   */\n      tag_150\n      jump\t// in\n    tag_182:\n        /* \"#utility.yul\":5687:5826   */\n      swap1\n      pop\n        /* \"#utility.yul\":5414:5833   */\n      swap2\n      swap1\n      pop\n      jump\t// out\n        /* \"#utility.yul\":5839:6258   */\n    tag_64:\n        /* \"#utility.yul\":6005:6009   */\n      0x00\n        /* \"#utility.yul\":6043:6045   */\n      0x20\n        /* \"#utility.yul\":6032:6041   */\n      dup3\n        /* \"#utility.yul\":6028:6046   */\n      add\n        /* \"#utility.yul\":6020:6046   */\n      swap1\n      pop\n        /* \"#utility.yul\":6092:6101   */\n      dup2\n        /* \"#utility.yul\":6086:6090   */\n      dup2\n        /* \"#utility.yul\":6082:6102   */\n      sub\n        /* \"#utility.yul\":6078:6079   */\n      0x00\n        /* \"#utility.yul\":6067:6076   */\n      dup4\n        /* \"#utility.yul\":6063:6080   */\n      add\n        /* \"#utility.yul\":6056:6103   */\n      mstore\n        /* \"#utility.yul\":6120:6251   */\n      tag_184\n        /* \"#utility.yul\":6246:6250   */\n      dup2\n        /* \"#utility.yul\":6120:6251   */\n      tag_156\n      jump\t// in\n    tag_184:\n        /* \"#utility.yul\":6112:6251   */\n      swap1\n      pop\n        /* \"#utility.yul\":5839:6258   */\n      swap2\n      swap1\n      pop\n      jump\t// out\n        /* \"#utility.yul\":6264:6683   */\n    tag_55:\n        /* \"#utility.yul\":6430:6434   */\n      0x00\n        /* \"#utility.yul\":6468:6470   */\n      0x20\n        /* \"#utility.yul\":6457:6466   */\n      dup3\n        /* \"#utility.yul\":6453:6471   */\n      add\n        /* \"#utility.yul\":6445:6471   */\n      swap1\n      pop\n        /* \"#utility.yul\":6517:6526   */\n      dup2\n        /* \"#utility.yul\":6511:6515   */\n      dup2\n        /* \"#utility.yul\":6507:6527   */\n      sub\n        /* \"#utility.yul\":6503:6504   */\n      0x00\n        /* \"#utility.yul\":6492:6501   */\n      dup4\n        /* \"#utility.yul\":6488:6505   */\n      add\n        /* \"#utility.yul\":6481:6528   */\n      mstore\n        /* \"#utility.yul\":6545:6676   */\n      tag_186\n        /* \"#utility.yul\":6671:6675   */\n      dup2\n        /* \"#utility.yul\":6545:6676   */\n      tag_161\n      jump\t// in\n    tag_186:\n        /* \"#utility.yul\":6537:6676   */\n      swap1\n      pop\n        /* \"#utility.yul\":6264:6683   */\n      swap2\n      swap1\n      pop\n      jump\t// out\n        /* \"#utility.yul\":6689:7108   */\n    tag_61:\n        /* \"#utility.yul\":6855:6859   */\n      0x00\n        /* \"#utility.yul\":6893:6895   */\n      0x20\n        /* \"#utility.yul\":6882:6891   */\n      dup3\n        /* \"#utility.yul\":6878:6896   */\n      add\n        /* \"#utility.yul\":6870:6896   */\n      swap1\n      pop\n        /* \"#utility.yul\":6942:6951   */\n      dup2\n        /* \"#utility.yul\":6936:6940   */\n      dup2\n        /* \"#utility.yul\":6932:6952   */\n      sub\n        /* \"#utility.yul\":6928:6929   */\n      0x00\n        /* \"#utility.yul\":6917:6926   */\n      dup4\n        /* \"#utility.yul\":6913:6930   */\n      add\n        /* \"#utility.yul\":6906:6953   */\n      mstore\n        /* \"#utility.yul\":6970:7101   */\n      tag_188\n        /* \"#utility.yul\":7096:7100   */\n      dup2\n        /* \"#utility.yul\":6970:7101   */\n      tag_166\n      jump\t// in\n    tag_188:\n        /* \"#utility.yul\":6962:7101   */\n      swap1\n      pop\n        /* \"#utility.yul\":6689:7108   */\n      swap2\n      swap1\n      pop\n      jump\t// out\n        /* \"#utility.yul\":7114:7336   */\n    tag_21:\n        /* \"#utility.yul\":7207:7211   */\n      0x00\n        /* \"#utility.yul\":7245:7247   */\n      0x20\n        /* \"#utility.yul\":7234:7243   */\n      dup3\n        /* \"#utility.yul\":7230:7248   */\n      add\n        /* \"#utility.yul\":7222:7248   */\n      swap1\n      pop\n        /* \"#utility.yul\":7258:7329   */\n      tag_190\n        /* \"#utility.yul\":7326:7327   */\n      0x00\n        /* \"#utility.yul\":7315:7324   */\n      dup4\n        /* \"#utility.yul\":7311:7328   */\n      add\n        /* \"#utility.yul\":7302:7308   */\n      dup5\n        /* \"#utility.yul\":7258:7329   */\n      tag_171\n      jump\t// in\n    tag_190:\n        /* \"#utility.yul\":7114:7336   */\n      swap3\n      swap2\n      pop\n      pop\n      jump\t// out\n        /* \"#utility.yul\":7342:7471   */\n    tag_100:\n        /* \"#utility.yul\":7376:7382   */\n      0x00\n        /* \"#utility.yul\":7403:7423   */\n      tag_192\n      tag_193\n      jump\t// in\n    tag_192:\n        /* \"#utility.yul\":7393:7423   */\n      swap1\n      pop\n        /* \"#utility.yul\":7432:7465   */\n      tag_194\n        /* \"#utility.yul\":7460:7464   */\n      dup3\n        /* \"#utility.yul\":7452:7458   */\n      dup3\n        /* \"#utility.yul\":7432:7465   */\n      tag_195\n      jump\t// in\n    tag_194:\n        /* \"#utility.yul\":7342:7471   */\n      swap2\n      swap1\n      pop\n      jump\t// out\n        /* \"#utility.yul\":7477:7552   */\n    tag_193:\n        /* \"#utility.yul\":7510:7516   */\n      0x00\n        /* \"#utility.yul\":7543:7545   */\n      0x40\n        /* \"#utility.yul\":7537:7546   */\n      mload\n        /* \"#utility.yul\":7527:7546   */\n      swap1\n      pop\n        /* \"#utility.yul\":7477:7552   */\n      swap1\n      jump\t// out\n        /* \"#utility.yul\":7558:7869   */\n    tag_99:\n        /* \"#utility.yul\":7635:7639   */\n      0x00\n        /* \"#utility.yul\":7725:7743   */\n      0xffffffffffffffff\n        /* \"#utility.yul\":7717:7723   */\n      dup3\n        /* \"#utility.yul\":7714:7744   */\n      gt\n        /* \"#utility.yul\":7711:7767   */\n      iszero\n      tag_198\n      jumpi\n        /* \"#utility.yul\":7747:7765   */\n      tag_199\n      tag_200\n      jump\t// in\n    tag_199:\n        /* \"#utility.yul\":7711:7767   */\n    tag_198:\n        /* \"#utility.yul\":7797:7801   */\n      0x20\n        /* \"#utility.yul\":7789:7795   */\n      dup3\n        /* \"#utility.yul\":7785:7802   */\n      mul\n        /* \"#utility.yul\":7777:7802   */\n      swap1\n      pop\n        /* \"#utility.yul\":7857:7861   */\n      0x20\n        /* \"#utility.yul\":7851:7855   */\n      dup2\n        /* \"#utility.yul\":7847:7862   */\n      add\n        /* \"#utility.yul\":7839:7862   */\n      swap1\n      pop\n        /* \"#utility.yul\":7558:7869   */\n      swap2\n      swap1\n      pop\n      jump\t// out\n        /* \"#utility.yul\":7875:8044   */\n    tag_153:\n        /* \"#utility.yul\":7959:7970   */\n      0x00\n        /* \"#utility.yul\":7993:7999   */\n      dup3\n        /* \"#utility.yul\":7988:7991   */\n      dup3\n        /* \"#utility.yul\":7981:8000   */\n      mstore\n        /* \"#utility.yul\":8033:8037   */\n      0x20\n        /* \"#utility.yul\":8028:8031   */\n      dup3\n        /* \"#utility.yul\":8024:8038   */\n      add\n        /* \"#utility.yul\":8009:8038   */\n      swap1\n      pop\n        /* \"#utility.yul\":7875:8044   */\n      swap3\n      swap2\n      pop\n      pop\n      jump\t// out\n        /* \"#utility.yul\":8050:8146   */\n    tag_141:\n        /* \"#utility.yul\":8087:8094   */\n      0x00\n        /* \"#utility.yul\":8116:8140   */\n      tag_203\n        /* \"#utility.yul\":8134:8139   */\n      dup3\n        /* \"#utility.yul\":8116:8140   */\n      tag_204\n      jump\t// in\n    tag_203:\n        /* \"#utility.yul\":8105:8140   */\n      swap1\n      pop\n        /* \"#utility.yul\":8050:8146   */\n      swap2\n      swap1\n      pop\n      jump\t// out\n        /* \"#utility.yul\":8152:8242   */\n    tag_145:\n        /* \"#utility.yul\":8186:8193   */\n      0x00\n        /* \"#utility.yul\":8229:8234   */\n      dup2\n        /* \"#utility.yul\":8222:8235   */\n      iszero\n        /* \"#utility.yul\":8215:8236   */\n      iszero\n        /* \"#utility.yul\":8204:8236   */\n      swap1\n      pop\n        /* \"#utility.yul\":8152:8242   */\n      swap2\n      swap1\n      pop\n      jump\t// out\n        /* \"#utility.yul\":8248:8374   */\n    tag_204:\n        /* \"#utility.yul\":8285:8292   */\n      0x00\n        /* \"#utility.yul\":8325:8367   */\n      0xffffffffffffffffffffffffffffffffffffffff\n        /* \"#utility.yul\":8318:8323   */\n      dup3\n        /* \"#utility.yul\":8314:8368   */\n      and\n        /* \"#utility.yul\":8303:8368   */\n      swap1\n      pop\n        /* \"#utility.yul\":8248:8374   */\n      swap2\n      swap1\n      pop\n      jump\t// out\n        /* \"#utility.yul\":8380:8457   */\n    tag_174:\n        /* \"#utility.yul\":8417:8424   */\n      0x00\n        /* \"#utility.yul\":8446:8451   */\n      dup2\n        /* \"#utility.yul\":8435:8451   */\n      swap1\n      pop\n        /* \"#utility.yul\":8380:8457   */\n      swap2\n      swap1\n      pop\n      jump\t// out\n        /* \"#utility.yul\":8463:8615   */\n    tag_149:\n        /* \"#utility.yul\":8539:8548   */\n      0x00\n        /* \"#utility.yul\":8572:8609   */\n      tag_209\n        /* \"#utility.yul\":8603:8608   */\n      dup3\n        /* \"#utility.yul\":8572:8609   */\n      tag_210\n      jump\t// in\n    tag_209:\n        /* \"#utility.yul\":8559:8609   */\n      swap1\n      pop\n        /* \"#utility.yul\":8463:8615   */\n      swap2\n      swap1\n      pop\n      jump\t// out\n        /* \"#utility.yul\":8621:8747   */\n    tag_210:\n        /* \"#utility.yul\":8671:8680   */\n      0x00\n        /* \"#utility.yul\":8704:8741   */\n      tag_212\n        /* \"#utility.yul\":8735:8740   */\n      dup3\n        /* \"#utility.yul\":8704:8741   */\n      tag_213\n      jump\t// in\n    tag_212:\n        /* \"#utility.yul\":8691:8741   */\n      swap1\n      pop\n        /* \"#utility.yul\":8621:8747   */\n      swap2\n      swap1\n      pop\n      jump\t// out\n        /* \"#utility.yul\":8753:8866   */\n    tag_213:\n        /* \"#utility.yul\":8803:8812   */\n      0x00\n        /* \"#utility.yul\":8836:8860   */\n      tag_215\n        /* \"#utility.yul\":8854:8859   */\n      dup3\n        /* \"#utility.yul\":8836:8860   */\n      tag_204\n      jump\t// in\n    tag_215:\n        /* \"#utility.yul\":8823:8860   */\n      swap1\n      pop\n        /* \"#utility.yul\":8753:8866   */\n      swap2\n      swap1\n      pop\n      jump\t// out\n        /* \"#utility.yul\":8872:9153   */\n    tag_195:\n        /* \"#utility.yul\":8955:8982   */\n      tag_217\n        /* \"#utility.yul\":8977:8981   */\n      dup3\n        /* \"#utility.yul\":8955:8982   */\n      tag_218\n      jump\t// in\n    tag_217:\n        /* \"#utility.yul\":8947:8953   */\n      dup2\n        /* \"#utility.yul\":8943:8983   */\n      add\n        /* \"#utility.yul\":9085:9091   */\n      dup2\n        /* \"#utility.yul\":9073:9083   */\n      dup2\n        /* \"#utility.yul\":9070:9092   */\n      lt\n        /* \"#utility.yul\":9049:9067   */\n      0xffffffffffffffff\n        /* \"#utility.yul\":9037:9047   */\n      dup3\n        /* \"#utility.yul\":9034:9068   */\n      gt\n        /* \"#utility.yul\":9031:9093   */\n      or\n        /* \"#utility.yul\":9028:9116   */\n      iszero\n      tag_219\n      jumpi\n        /* \"#utility.yul\":9096:9114   */\n      tag_220\n      tag_200\n      jump\t// in\n    tag_220:\n        /* \"#utility.yul\":9028:9116   */\n    tag_219:\n        /* \"#utility.yul\":9136:9146   */\n      dup1\n        /* \"#utility.yul\":9132:9134   */\n      0x40\n        /* \"#utility.yul\":9125:9147   */\n      mstore\n        /* \"#utility.yul\":8915:9153   */\n      pop\n        /* \"#utility.yul\":8872:9153   */\n      pop\n      pop\n      jump\t// out\n        /* \"#utility.yul\":9159:9392   */\n    tag_86:\n        /* \"#utility.yul\":9198:9201   */\n      0x00\n        /* \"#utility.yul\":9221:9245   */\n      tag_222\n        /* \"#utility.yul\":9239:9244   */\n      dup3\n        /* \"#utility.yul\":9221:9245   */\n      tag_174\n      jump\t// in\n    tag_222:\n        /* \"#utility.yul\":9212:9245   */\n      swap2\n      pop\n        /* \"#utility.yul\":9267:9333   */\n      0xffffffffffffffffffffffffffffffffffffffffffffffffffffffffffffffff\n        /* \"#utility.yul\":9260:9265   */\n      dup3\n        /* \"#utility.yul\":9257:9334   */\n      eq\n        /* \"#utility.yul\":9254:9357   */\n      iszero\n      tag_223\n      jumpi\n        /* \"#utility.yul\":9337:9355   */\n      tag_224\n      tag_225\n      jump\t// in\n    tag_224:\n        /* \"#utility.yul\":9254:9357   */\n    tag_223:\n        /* \"#utility.yul\":9384:9385   */\n      0x01\n        /* \"#utility.yul\":9377:9382   */\n      dup3\n        /* \"#utility.yul\":9373:9386   */\n      add\n        /* \"#utility.yul\":9366:9386   */\n      swap1\n      pop\n        /* \"#utility.yul\":9159:9392   */\n      swap2\n      swap1\n      pop\n      jump\t// out\n        /* \"#utility.yul\":9398:9578   */\n    tag_225:\n        /* \"#utility.yul\":9446:9523   */\n      0x4e487b7100000000000000000000000000000000000000000000000000000000\n        /* \"#utility.yul\":9443:9444   */\n      0x00\n        /* \"#utility.yul\":9436:9524   */\n      mstore\n        /* \"#utility.yul\":9543:9547   */\n      0x11\n        /* \"#utility.yul\":9540:9541   */\n      0x04\n        /* \"#utility.yul\":9533:9548   */\n      mstore\n        /* \"#utility.yul\":9567:9571   */\n      0x24\n        /* \"#utility.yul\":9564:9565   */\n      0x00\n        /* \"#utility.yul\":9557:9572   */\n      revert\n        /* \"#utility.yul\":9584:9764   */\n    tag_82:\n        /* \"#utility.yul\":9632:9709   */\n      0x4e487b7100000000000000000000000000000000000000000000000000000000\n        /* \"#utility.yul\":9629:9630   */\n      0x00\n        /* \"#utility.yul\":9622:9710   */\n      mstore\n        /* \"#utility.yul\":9729:9733   */\n      0x32\n        /* \"#utility.yul\":9726:9727   */\n      0x04\n        /* \"#utility.yul\":9719:9734   */\n      mstore\n        /* \"#utility.yul\":9753:9757   */\n      0x24\n        /* \"#utility.yul\":9750:9751   */\n      0x00\n        /* \"#utility.yul\":9743:9758   */\n      revert\n        /* \"#utility.yul\":9770:9950   */\n    tag_200:\n        /* \"#utility.yul\":9818:9895   */\n      0x4e487b7100000000000000000000000000000000000000000000000000000000\n        /* \"#utility.yul\":9815:9816   */\n      0x00\n        /* \"#utility.yul\":9808:9896   */\n      mstore\n        /* \"#utility.yul\":9915:9919   */\n      0x41\n        /* \"#utility.yul\":9912:9913   */\n      0x04\n        /* \"#utility.yul\":9905:9920   */\n      mstore\n        /* \"#utility.yul\":9939:9943   */\n      0x24\n        /* \"#utility.yul\":9936:9937   */\n      0x00\n        /* \"#utility.yul\":9929:9944   */\n      revert\n        /* \"#utility.yul\":9956:10073   */\n    tag_116:\n        /* \"#utility.yul\":10065:10066   */\n      0x00\n        /* \"#utility.yul\":10062:10063   */\n      dup1\n        /* \"#utility.yul\":10055:10067   */\n      revert\n        /* \"#utility.yul\":10079:10196   */\n    tag_103:\n        /* \"#utility.yul\":10188:10189   */\n      0x00\n        /* \"#utility.yul\":10185:10186   */\n      dup1\n        /* \"#utility.yul\":10178:10190   */\n      revert\n        /* \"#utility.yul\":10202:10319   */\n    tag_132:\n        /* \"#utility.yul\":10311:10312   */\n      0x00\n        /* \"#utility.yul\":10308:10309   */\n      dup1\n        /* \"#utility.yul\":10301:10313   */\n      revert\n        /* \"#utility.yul\":10325:10442   */\n    tag_125:\n        /* \"#utility.yul\":10434:10435   */\n      0x00\n        /* \"#utility.yul\":10431:10432   */\n      dup1\n        /* \"#utility.yul\":10424:10436   */\n      revert\n        /* \"#utility.yul\":10448:10550   */\n    tag_218:\n        /* \"#utility.yul\":10489:10495   */\n      0x00\n        /* \"#utility.yul\":10540:10542   */\n      0x1f\n        /* \"#utility.yul\":10536:10543   */\n      not\n        /* \"#utility.yul\":10531:10533   */\n      0x1f\n        /* \"#utility.yul\":10524:10529   */\n      dup4\n        /* \"#utility.yul\":10520:10534   */\n      add\n        /* \"#utility.yul\":10516:10544   */\n      and\n        /* \"#utility.yul\":10506:10544   */\n      swap1\n      pop\n        /* \"#utility.yul\":10448:10550   */\n      swap2\n      swap1\n      pop\n      jump\t// out\n        /* \"#utility.yul\":10556:10722   */\n    tag_155:\n        /* \"#utility.yul\":10696:10714   */\n      0x49444f3a20636170207265616368656400000000000000000000000000000000\n        /* \"#utility.yul\":10692:10693   */\n      0x00\n        /* \"#utility.yul\":10684:10690   */\n      dup3\n        /* \"#utility.yul\":10680:10694   */\n      add\n        /* \"#utility.yul\":10673:10715   */\n      mstore\n        /* \"#utility.yul\":10556:10722   */\n      pop\n      jump\t// out\n        /* \"#utility.yul\":10728:10896   */\n    tag_160:\n        /* \"#utility.yul\":10868:10888   */\n      0x49444f3a20616c726561647920656e6465640000000000000000000000000000\n        /* \"#utility.yul\":10864:10865   */\n      0x00\n        /* \"#utility.yul\":10856:10862   */\n      dup3\n        /* \"#utility.yul\":10852:10866   */\n      add\n        /* \"#utility.yul\":10845:10889   */\n      mstore\n        /* \"#utility.yul\":10728:10896   */\n      pop\n      jump\t// out\n        /* \"#utility.yul\":10902:11071   */\n    tag_165:\n        /* \"#utility.yul\":11042:11063   */\n      0x49444f3a206e6f7420617574686f72697a656400000000000000000000000000\n        /* \"#utility.yul\":11038:11039   */\n      0x00\n        /* \"#utility.yul\":11030:11036   */\n      dup3\n        /* \"#utility.yul\":11026:11040   */\n      add\n        /* \"#utility.yul\":11019:11064   */\n      mstore\n        /* \"#utility.yul\":10902:11071   */\n      pop\n      jump\t// out\n        /* \"#utility.yul\":11077:11247   */\n    tag_170:\n        /* \"#utility.yul\":11217:11239   */\n      0x49444f3a206e6f74207374617274656420796574000000000000000000000000\n        /* \"#utility.yul\":11213:11214   */\n      0x00\n        /* \"#utility.yul\":11205:11211   */\n      dup3\n        /* \"#utility.yul\":11201:11215   */\n      add\n        /* \"#utility.yul\":11194:11240   */\n      mstore\n        /* \"#utility.yul\":11077:11247   */\n      pop\n      jump\t// out\n        /* \"#utility.yul\":11253:11375   */\n    tag_111:\n        /* \"#utility.yul\":11326:11350   */\n      tag_239\n        /* \"#utility.yul\":11344:11349   */\n      dup2\n        /* \"#utility.yul\":11326:11350   */\n      tag_141\n      jump\t// in\n    tag_239:\n        /* \"#utility.yul\":11319:11324   */\n      dup2\n        /* \"#utility.yul\":11316:11351   */\n      eq\n        /* \"#utility.yul\":11306:11369   */\n      tag_240\n      jumpi\n        /* \"#utility.yul\":11365:11366   */\n      0x00\n        /* \"#utility.yul\":11362:11363   */\n      dup1\n        /* \"#utility.yul\":11355:11367   */\n      revert\n        /* \"#utility.yul\":11306:11369   */\n    tag_240:\n        /* \"#utility.yul\":11253:11375   */\n      pop\n      jump\t// out\n        /* \"#utility.yul\":11381:11503   */\n    tag_121:\n        /* \"#utility.yul\":11454:11478   */\n      tag_242\n        /* \"#utility.yul\":11472:11477   */\n      dup2\n        /* \"#utility.yul\":11454:11478   */\n      tag_174\n      jump\t// in\n    tag_242:\n        /* \"#utility.yul\":11447:11452   */\n      dup2\n        /* \"#utility.yul\":11444:11479   */\n      eq\n        /* \"#utility.yul\":11434:11497   */\n      tag_243\n      jumpi\n        /* \"#utility.yul\":11493:11494   */\n      0x00\n        /* \"#utility.yul\":11490:11491   */\n      dup1\n        /* \"#utility.yul\":11483:11495   */\n      revert\n        /* \"#utility.yul\":11434:11497   */\n    tag_243:\n        /* \"#utility.yul\":11381:11503   */\n      pop\n      jump\t// out\n\n    auxdata: 0xa2646970667358221220462e2ce719b1a5fdeca20e0554dcfeee6fbe6395764eb57aaabcbe3d47bf165f64736f6c63430008070033\n}\n",
				"bytecode": {
					"linkReferences": {},
					"object": "60806040523480156200001157600080fd5b50604051620011333803806200113383398181016040528101906200003791906200027d565b856000819055508460018190555083600281905550826003908051906020019062000064929190620000f3565b5081600460006101000a81548173ffffffffffffffffffffffffffffffffffffffff021916908373ffffffffffffffffffffffffffffffffffffffff16021790555080600560006101000a81548173ffffffffffffffffffffffffffffffffffffffff021916908373ffffffffffffffffffffffffffffffffffffffff1602179055505050505050506200048c565b8280548282559060005260206000209081019282156200016f579160200282015b828111156200016e5782518260006101000a81548173ffffffffffffffffffffffffffffffffffffffff021916908373ffffffffffffffffffffffffffffffffffffffff1602179055509160200191906001019062000114565b5b5090506200017e919062000182565b5090565b5b808211156200019d57600081600090555060010162000183565b5090565b6000620001b8620001b28462000361565b62000338565b90508083825260208201905082856020860282011115620001de57620001dd62000438565b5b60005b85811015620002125781620001f788826200021c565b845260208401935060208301925050600181019050620001e1565b5050509392505050565b6000815190506200022d8162000458565b92915050565b600082601f8301126200024b576200024a62000433565b5b81516200025d848260208601620001a1565b91505092915050565b600081519050620002778162000472565b92915050565b60008060008060008060c087890312156200029d576200029c62000442565b5b6000620002ad89828a0162000266565b9650506020620002c089828a0162000266565b9550506040620002d389828a0162000266565b945050606087015167ffffffffffffffff811115620002f757620002f66200043d565b5b6200030589828a0162000233565b93505060806200031889828a016200021c565b92505060a06200032b89828a016200021c565b9150509295509295509295565b60006200034462000357565b9050620003528282620003ce565b919050565b6000604051905090565b600067ffffffffffffffff8211156200037f576200037e62000404565b5b602082029050602081019050919050565b60006200039d82620003a4565b9050919050565b600073ffffffffffffffffffffffffffffffffffffffff82169050919050565b6000819050919050565b620003d98262000447565b810181811067ffffffffffffffff82111715620003fb57620003fa62000404565b5b80604052505050565b7f4e487b7100000000000000000000000000000000000000000000000000000000600052604160045260246000fd5b600080fd5b600080fd5b600080fd5b600080fd5b6000601f19601f8301169050919050565b620004638162000390565b81146200046f57600080fd5b50565b6200047d81620003c4565b81146200048957600080fd5b50565b610c97806200049c6000396000f3fe608060405234801561001057600080fd5b506004361061009e5760003560e01c80637ebd1b30116100665780637ebd1b30146101235780638da5cb5b14610153578063a7d6889614610171578063f887ea401461018d578063fe9fbb80146101ab5761009e565b806335377214146100a3578063355274ea146100bf5780633c9177cd146100dd5780636ad25869146100fb578063775f75df14610105575b600080fd5b6100bd60048036038101906100b89190610759565b6101db565b005b6100c7610285565b6040516100d49190610968565b60405180910390f35b6100e561028b565b6040516100f29190610968565b60405180910390f35b610103610291565b005b61010d6103e3565b60405161011a9190610968565b60405180910390f35b61013d600480360381019061013891906107a2565b6103e9565b60405161014a9190610897565b60405180910390f35b61015b610428565b6040516101689190610897565b60405180910390f35b61018b600480360381019061018691906107a2565b61044e565b005b6101956104e8565b6040516101a291906108cd565b60405180910390f35b6101c560048036038101906101c0919061072c565b61050e565b6040516101d291906108b2565b60405180910390f35b600460009054906101000a900473ffffffffffffffffffffffffffffffffffffffff1673ffffffffffffffffffffffffffffffffffffffff163373ffffffffffffffffffffffffffffffffffffffff161461026b576040517f08c379a000000000000000000000000000000000000000000000000000000000815260040161026290610928565b60405180910390fd5b80600390805190602001906102819291906105bd565b5050565b60025481565b60015481565b6000544210156102d6576040517f08c379a00000000000000000000000000000000000000000000000000000000081526004016102cd90610948565b60405180910390fd5b60015442111561031b576040517f08c379a000000000000000000000000000000000000000000000000000000000815260040161031290610908565b60405180910390fd5b600254471115610360576040517f08c379a0000000000000000000000000000000000000000000000000000000008152600401610357906108e8565b60405180910390fd5b6103693361050e565b6103a8576040517f08c379a000000000000000000000000000000000000000000000000000000000815260040161039f90610928565b60405180910390fd5b600460009054906101000a900473ffffffffffffffffffffffffffffffffffffffff1673ffffffffffffffffffffffffffffffffffffffff16ff5b60005481565b600381815481106103f957600080fd5b906000526020600020016000915054906101000a900473ffffffffffffffffffffffffffffffffffffffff1681565b600460009054906101000a900473ffffffffffffffffffffffffffffffffffffffff1681565b600460009054906101000a900473ffffffffffffffffffffffffffffffffffffffff1673ffffffffffffffffffffffffffffffffffffffff163373ffffffffffffffffffffffffffffffffffffffff16146104de576040517f08c379a00000000000000000000000000000000000000000000000000000000081526004016104d590610928565b60405180910390fd5b8060028190555050565b600560009054906101000a900473ffffffffffffffffffffffffffffffffffffffff1681565b600080600090505b6003805490508110156105b2578273ffffffffffffffffffffffffffffffffffffffff166003828154811061054e5761054d610b0c565b5b9060005260206000200160009054906101000a900473ffffffffffffffffffffffffffffffffffffffff1673ffffffffffffffffffffffffffffffffffffffff16141561059f5760019150506105b8565b80806105aa90610a94565b915050610516565b50600090505b919050565b828054828255906000526020600020908101928215610636579160200282015b828111156106355782518260006101000a81548173ffffffffffffffffffffffffffffffffffffffff021916908373ffffffffffffffffffffffffffffffffffffffff160217905550916020019190600101906105dd565b5b5090506106439190610647565b5090565b5b80821115610660576000816000905550600101610648565b5090565b6000610677610672846109a8565b610983565b9050808382526020820190508285602086028201111561069a57610699610b6f565b5b60005b858110156106ca57816106b088826106d4565b84526020840193506020830192505060018101905061069d565b5050509392505050565b6000813590506106e381610c33565b92915050565b600082601f8301126106fe576106fd610b6a565b5b813561070e848260208601610664565b91505092915050565b60008135905061072681610c4a565b92915050565b60006020828403121561074257610741610b79565b5b6000610750848285016106d4565b91505092915050565b60006020828403121561076f5761076e610b79565b5b600082013567ffffffffffffffff81111561078d5761078c610b74565b5b610799848285016106e9565b91505092915050565b6000602082840312156107b8576107b7610b79565b5b60006107c684828501610717565b91505092915050565b6107d8816109e5565b82525050565b6107e7816109f7565b82525050565b6107f681610a2d565b82525050565b60006108096010836109d4565b915061081482610b8f565b602082019050919050565b600061082c6012836109d4565b915061083782610bb8565b602082019050919050565b600061084f6013836109d4565b915061085a82610be1565b602082019050919050565b60006108726014836109d4565b915061087d82610c0a565b602082019050919050565b61089181610a23565b82525050565b60006020820190506108ac60008301846107cf565b92915050565b60006020820190506108c760008301846107de565b92915050565b60006020820190506108e260008301846107ed565b92915050565b60006020820190508181036000830152610901816107fc565b9050919050565b600060208201905081810360008301526109218161081f565b9050919050565b6000602082019050818103600083015261094181610842565b9050919050565b6000602082019050818103600083015261096181610865565b9050919050565b600060208201905061097d6000830184610888565b92915050565b600061098d61099e565b90506109998282610a63565b919050565b6000604051905090565b600067ffffffffffffffff8211156109c3576109c2610b3b565b5b602082029050602081019050919050565b600082825260208201905092915050565b60006109f082610a03565b9050919050565b60008115159050919050565b600073ffffffffffffffffffffffffffffffffffffffff82169050919050565b6000819050919050565b6000610a3882610a3f565b9050919050565b6000610a4a82610a51565b9050919050565b6000610a5c82610a03565b9050919050565b610a6c82610b7e565b810181811067ffffffffffffffff82111715610a8b57610a8a610b3b565b5b80604052505050565b6000610a9f82610a23565b91507fffffffffffffffffffffffffffffffffffffffffffffffffffffffffffffffff821415610ad257610ad1610add565b5b600182019050919050565b7f4e487b7100000000000000000000000000000000000000000000000000000000600052601160045260246000fd5b7f4e487b7100000000000000000000000000000000000000000000000000000000600052603260045260246000fd5b7f4e487b7100000000000000000000000000000000000000000000000000000000600052604160045260246000fd5b600080fd5b600080fd5b600080fd5b600080fd5b6000601f19601f8301169050919050565b7f49444f3a20636170207265616368656400000000000000000000000000000000600082015250565b7f49444f3a20616c726561647920656e6465640000000000000000000000000000600082015250565b7f49444f3a206e6f7420617574686f72697a656400000000000000000000000000600082015250565b7f49444f3a206e6f74207374617274656420796574000000000000000000000000600082015250565b610c3c816109e5565b8114610c4757600080fd5b50565b610c5381610a23565b8114610c5e57600080fd5b5056fea2646970667358221220462e2ce719b1a5fdeca20e0554dcfeee6fbe6395764eb57aaabcbe3d47bf165f64736f6c63430008070033",
					"opcodes": "PUSH1 0x80 PUSH1 0x40 MSTORE CALLVALUE DUP1 ISZERO PUSH3 0x11 JUMPI PUSH1 0x0 DUP1 REVERT JUMPDEST POP PUSH1 0x40 MLOAD PUSH3 0x1133 CODESIZE SUB DUP1 PUSH3 0x1133 DUP4 CODECOPY DUP2 DUP2 ADD PUSH1 0x40 MSTORE DUP2 ADD SWAP1 PUSH3 0x37 SWAP2 SWAP1 PUSH3 0x27D JUMP JUMPDEST DUP6 PUSH1 0x0 DUP2 SWAP1 SSTORE POP DUP5 PUSH1 0x1 DUP2 SWAP1 SSTORE POP DUP4 PUSH1 0x2 DUP2 SWAP1 SSTORE POP DUP3 PUSH1 0x3 SWAP1 DUP1 MLOAD SWAP1 PUSH1 0x20 ADD SWAP1 PUSH3 0x64 SWAP3 SWAP2 SWAP1 PUSH3 0xF3 JUMP JUMPDEST POP DUP2 PUSH1 0x4 PUSH1 0x0 PUSH2 0x100 EXP DUP2 SLOAD DUP2 PUSH20 0xFFFFFFFFFFFFFFFFFFFFFFFFFFFFFFFFFFFFFFFF MUL NOT AND SWAP1 DUP4 PUSH20 0xFFFFFFFFFFFFFFFFFFFFFFFFFFFFFFFFFFFFFFFF AND MUL OR SWAP1 SSTORE POP DUP1 PUSH1 0x5 PUSH1 0x0 PUSH2 0x100 EXP DUP2 SLOAD DUP2 PUSH20 0xFFFFFFFFFFFFFFFFFFFFFFFFFFFFFFFFFFFFFFFF MUL NOT AND SWAP1 DUP4 PUSH20 0xFFFFFFFFFFFFFFFFFFFFFFFFFFFFFFFFFFFFFFFF AND MUL OR SWAP1 SSTORE POP POP POP POP POP POP POP PUSH3 0x48C JUMP JUMPDEST DUP3 DUP1 SLOAD DUP3 DUP3 SSTORE SWAP1 PUSH1 0x0 MSTORE PUSH1 0x20 PUSH1 0x0 KECCAK256 SWAP1 DUP2 ADD SWAP3 DUP3 ISZERO PUSH3 0x16F JUMPI SWAP2 PUSH1 0x20 MUL DUP3 ADD JUMPDEST DUP3 DUP2 GT ISZERO PUSH3 0x16E JUMPI DUP3 MLOAD DUP3 PUSH1 0x0 PUSH2 0x100 EXP DUP2 SLOAD DUP2 PUSH20 0xFFFFFFFFFFFFFFFFFFFFFFFFFFFFFFFFFFFFFFFF MUL NOT AND SWAP1 DUP4 PUSH20 0xFFFFFFFFFFFFFFFFFFFFFFFFFFFFFFFFFFFFFFFF AND MUL OR SWAP1 SSTORE POP SWAP2 PUSH1 0x20 ADD SWAP2 SWAP1 PUSH1 0x1 ADD SWAP1 PUSH3 0x114 JUMP JUMPDEST JUMPDEST POP SWAP1 POP PUSH3 0x17E SWAP2 SWAP1 PUSH3 0x182 JUMP JUMPDEST POP SWAP1 JUMP JUMPDEST JUMPDEST DUP1 DUP3 GT ISZERO PUSH3 0x19D JUMPI PUSH1 0x0 DUP2 PUSH1 0x0 SWAP1 SSTORE POP PUSH1 0x1 ADD PUSH3 0x183 JUMP JUMPDEST POP SWAP1 JUMP JUMPDEST PUSH1 0x0 PUSH3 0x1B8 PUSH3 0x1B2 DUP5 PUSH3 0x361 JUMP JUMPDEST PUSH3 0x338 JUMP JUMPDEST SWAP1 POP DUP1 DUP4 DUP3 MSTORE PUSH1 0x20 DUP3 ADD SWAP1 POP DUP3 DUP6 PUSH1 0x20 DUP7 MUL DUP3 ADD GT ISZERO PUSH3 0x1DE JUMPI PUSH3 0x1DD PUSH3 0x438 JUMP JUMPDEST JUMPDEST PUSH1 0x0 JUMPDEST DUP6 DUP2 LT ISZERO PUSH3 0x212 JUMPI DUP2 PUSH3 0x1F7 DUP9 DUP3 PUSH3 0x21C JUMP JUMPDEST DUP5 MSTORE PUSH1 0x20 DUP5 ADD SWAP4 POP PUSH1 0x20 DUP4 ADD SWAP3 POP POP PUSH1 0x1 DUP2 ADD SWAP1 POP PUSH3 0x1E1 JUMP JUMPDEST POP POP POP SWAP4 SWAP3 POP POP POP JUMP JUMPDEST PUSH1 0x0 DUP2 MLOAD SWAP1 POP PUSH3 0x22D DUP2 PUSH3 0x458 JUMP JUMPDEST SWAP3 SWAP2 POP POP JUMP JUMPDEST PUSH1 0x0 DUP3 PUSH1 0x1F DUP4 ADD SLT PUSH3 0x24B JUMPI PUSH3 0x24A PUSH3 0x433 JUMP JUMPDEST JUMPDEST DUP2 MLOAD PUSH3 0x25D DUP5 DUP3 PUSH1 0x20 DUP7 ADD PUSH3 0x1A1 JUMP JUMPDEST SWAP2 POP POP SWAP3 SWAP2 POP POP JUMP JUMPDEST PUSH1 0x0 DUP2 MLOAD SWAP1 POP PUSH3 0x277 DUP2 PUSH3 0x472 JUMP JUMPDEST SWAP3 SWAP2 POP POP JUMP JUMPDEST PUSH1 0x0 DUP1 PUSH1 0x0 DUP1 PUSH1 0x0 DUP1 PUSH1 0xC0 DUP8 DUP10 SUB SLT ISZERO PUSH3 0x29D JUMPI PUSH3 0x29C PUSH3 0x442 JUMP JUMPDEST JUMPDEST PUSH1 0x0 PUSH3 0x2AD DUP10 DUP3 DUP11 ADD PUSH3 0x266 JUMP JUMPDEST SWAP7 POP POP PUSH1 0x20 PUSH3 0x2C0 DUP10 DUP3 DUP11 ADD PUSH3 0x266 JUMP JUMPDEST SWAP6 POP POP PUSH1 0x40 PUSH3 0x2D3 DUP10 DUP3 DUP11 ADD PUSH3 0x266 JUMP JUMPDEST SWAP5 POP POP PUSH1 0x60 DUP8 ADD MLOAD PUSH8 0xFFFFFFFFFFFFFFFF DUP2 GT ISZERO PUSH3 0x2F7 JUMPI PUSH3 0x2F6 PUSH3 0x43D JUMP JUMPDEST JUMPDEST PUSH3 0x305 DUP10 DUP3 DUP11 ADD PUSH3 0x233 JUMP JUMPDEST SWAP4 POP POP PUSH1 0x80 PUSH3 0x318 DUP10 DUP3 DUP11 ADD PUSH3 0x21C JUMP JUMPDEST SWAP3 POP POP PUSH1 0xA0 PUSH3 0x32B DUP10 DUP3 DUP11 ADD PUSH3 0x21C JUMP JUMPDEST SWAP2 POP POP SWAP3 SWAP6 POP SWAP3 SWAP6 POP SWAP3 SWAP6 JUMP JUMPDEST PUSH1 0x0 PUSH3 0x344 PUSH3 0x357 JUMP JUMPDEST SWAP1 POP PUSH3 0x352 DUP3 DUP3 PUSH3 0x3CE JUMP JUMPDEST SWAP2 SWAP1 POP JUMP JUMPDEST PUSH1 0x0 PUSH1 0x40 MLOAD SWAP1 POP SWAP1 JUMP JUMPDEST PUSH1 0x0 PUSH8 0xFFFFFFFFFFFFFFFF DUP3 GT ISZERO PUSH3 0x37F JUMPI PUSH3 0x37E PUSH3 0x404 JUMP JUMPDEST JUMPDEST PUSH1 0x20 DUP3 MUL SWAP1 POP PUSH1 0x20 DUP2 ADD SWAP1 POP SWAP2 SWAP1 POP JUMP JUMPDEST PUSH1 0x0 PUSH3 0x39D DUP3 PUSH3 0x3A4 JUMP JUMPDEST SWAP1 POP SWAP2 SWAP1 POP JUMP JUMPDEST PUSH1 0x0 PUSH20 0xFFFFFFFFFFFFFFFFFFFFFFFFFFFFFFFFFFFFFFFF DUP3 AND SWAP1 POP SWAP2 SWAP1 POP JUMP JUMPDEST PUSH1 0x0 DUP2 SWAP1 POP SWAP2 SWAP1 POP JUMP JUMPDEST PUSH3 0x3D9 DUP3 PUSH3 0x447 JUMP JUMPDEST DUP2 ADD DUP2 DUP2 LT PUSH8 0xFFFFFFFFFFFFFFFF DUP3 GT OR ISZERO PUSH3 0x3FB JUMPI PUSH3 0x3FA PUSH3 0x404 JUMP JUMPDEST JUMPDEST DUP1 PUSH1 0x40 MSTORE POP POP POP JUMP JUMPDEST PUSH32 0x4E487B7100000000000000000000000000000000000000000000000000000000 PUSH1 0x0 MSTORE PUSH1 0x41 PUSH1 0x4 MSTORE PUSH1 0x24 PUSH1 0x0 REVERT JUMPDEST PUSH1 0x0 DUP1 REVERT JUMPDEST PUSH1 0x0 DUP1 REVERT JUMPDEST PUSH1 0x0 DUP1 REVERT JUMPDEST PUSH1 0x0 DUP1 REVERT JUMPDEST PUSH1 0x0 PUSH1 0x1F NOT PUSH1 0x1F DUP4 ADD AND SWAP1 POP SWAP2 SWAP1 POP JUMP JUMPDEST PUSH3 0x463 DUP2 PUSH3 0x390 JUMP JUMPDEST DUP2 EQ PUSH3 0x46F JUMPI PUSH1 0x0 DUP1 REVERT JUMPDEST POP JUMP JUMPDEST PUSH3 0x47D DUP2 PUSH3 0x3C4 JUMP JUMPDEST DUP2 EQ PUSH3 0x489 JUMPI PUSH1 0x0 DUP1 REVERT JUMPDEST POP JUMP JUMPDEST PUSH2 0xC97 DUP1 PUSH3 0x49C PUSH1 0x0 CODECOPY PUSH1 0x0 RETURN INVALID PUSH1 0x80 PUSH1 0x40 MSTORE CALLVALUE DUP1 ISZERO PUSH2 0x10 JUMPI PUSH1 0x0 DUP1 REVERT JUMPDEST POP PUSH1 0x4 CALLDATASIZE LT PUSH2 0x9E JUMPI PUSH1 0x0 CALLDATALOAD PUSH1 0xE0 SHR DUP1 PUSH4 0x7EBD1B30 GT PUSH2 0x66 JUMPI DUP1 PUSH4 0x7EBD1B30 EQ PUSH2 0x123 JUMPI DUP1 PUSH4 0x8DA5CB5B EQ PUSH2 0x153 JUMPI DUP1 PUSH4 0xA7D68896 EQ PUSH2 0x171 JUMPI DUP1 PUSH4 0xF887EA40 EQ PUSH2 0x18D JUMPI DUP1 PUSH4 0xFE9FBB80 EQ PUSH2 0x1AB JUMPI PUSH2 0x9E JUMP JUMPDEST DUP1 PUSH4 0x35377214 EQ PUSH2 0xA3 JUMPI DUP1 PUSH4 0x355274EA EQ PUSH2 0xBF JUMPI DUP1 PUSH4 0x3C9177CD EQ PUSH2 0xDD JUMPI DUP1 PUSH4 0x6AD25869 EQ PUSH2 0xFB JUMPI DUP1 PUSH4 0x775F75DF EQ PUSH2 0x105 JUMPI JUMPDEST PUSH1 0x0 DUP1 REVERT JUMPDEST PUSH2 0xBD PUSH1 0x4 DUP1 CALLDATASIZE SUB DUP2 ADD SWAP1 PUSH2 0xB8 SWAP2 SWAP1 PUSH2 0x759 JUMP JUMPDEST PUSH2 0x1DB JUMP JUMPDEST STOP JUMPDEST PUSH2 0xC7 PUSH2 0x285 JUMP JUMPDEST PUSH1 0x40 MLOAD PUSH2 0xD4 SWAP2 SWAP1 PUSH2 0x968 JUMP JUMPDEST PUSH1 0x40 MLOAD DUP1 SWAP2 SUB SWAP1 RETURN JUMPDEST PUSH2 0xE5 PUSH2 0x28B JUMP JUMPDEST PUSH1 0x40 MLOAD PUSH2 0xF2 SWAP2 SWAP1 PUSH2 0x968 JUMP JUMPDEST PUSH1 0x40 MLOAD DUP1 SWAP2 SUB SWAP1 RETURN JUMPDEST PUSH2 0x103 PUSH2 0x291 JUMP JUMPDEST STOP JUMPDEST PUSH2 0x10D PUSH2 0x3E3 JUMP JUMPDEST PUSH1 0x40 MLOAD PUSH2 0x11A SWAP2 SWAP1 PUSH2 0x968 JUMP JUMPDEST PUSH1 0x40 MLOAD DUP1 SWAP2 SUB SWAP1 RETURN JUMPDEST PUSH2 0x13D PUSH1 0x4 DUP1 CALLDATASIZE SUB DUP2 ADD SWAP1 PUSH2 0x138 SWAP2 SWAP1 PUSH2 0x7A2 JUMP JUMPDEST PUSH2 0x3E9 JUMP JUMPDEST PUSH1 0x40 MLOAD PUSH2 0x14A SWAP2 SWAP1 PUSH2 0x897 JUMP JUMPDEST PUSH1 0x40 MLOAD DUP1 SWAP2 SUB SWAP1 RETURN JUMPDEST PUSH2 0x15B PUSH2 0x428 JUMP JUMPDEST PUSH1 0x40 MLOAD PUSH2 0x168 SWAP2 SWAP1 PUSH2 0x897 JUMP JUMPDEST PUSH1 0x40 MLOAD DUP1 SWAP2 SUB SWAP1 RETURN JUMPDEST PUSH2 0x18B PUSH1 0x4 DUP1 CALLDATASIZE SUB DUP2 ADD SWAP1 PUSH2 0x186 SWAP2 SWAP1 PUSH2 0x7A2 JUMP JUMPDEST PUSH2 0x44E JUMP JUMPDEST STOP JUMPDEST PUSH2 0x195 PUSH2 0x4E8 JUMP JUMPDEST PUSH1 0x40 MLOAD PUSH2 0x1A2 SWAP2 SWAP1 PUSH2 0x8CD JUMP JUMPDEST PUSH1 0x40 MLOAD DUP1 SWAP2 SUB SWAP1 RETURN JUMPDEST PUSH2 0x1C5 PUSH1 0x4 DUP1 CALLDATASIZE SUB DUP2 ADD SWAP1 PUSH2 0x1C0 SWAP2 SWAP1 PUSH2 0x72C JUMP JUMPDEST PUSH2 0x50E JUMP JUMPDEST PUSH1 0x40 MLOAD PUSH2 0x1D2 SWAP2 SWAP1 PUSH2 0x8B2 JUMP JUMPDEST PUSH1 0x40 MLOAD DUP1 SWAP2 SUB SWAP1 RETURN JUMPDEST PUSH1 0x4 PUSH1 0x0 SWAP1 SLOAD SWAP1 PUSH2 0x100 EXP SWAP1 DIV PUSH20 0xFFFFFFFFFFFFFFFFFFFFFFFFFFFFFFFFFFFFFFFF AND PUSH20 0xFFFFFFFFFFFFFFFFFFFFFFFFFFFFFFFFFFFFFFFF AND CALLER PUSH20 0xFFFFFFFFFFFFFFFFFFFFFFFFFFFFFFFFFFFFFFFF AND EQ PUSH2 0x26B JUMPI PUSH1 0x40 MLOAD PUSH32 0x8C379A000000000000000000000000000000000000000000000000000000000 DUP2 MSTORE PUSH1 0x4 ADD PUSH2 0x262 SWAP1 PUSH2 0x928 JUMP JUMPDEST PUSH1 0x40 MLOAD DUP1 SWAP2 SUB SWAP1 REVERT JUMPDEST DUP1 PUSH1 0x3 SWAP1 DUP1 MLOAD SWAP1 PUSH1 0x20 ADD SWAP1 PUSH2 0x281 SWAP3 SWAP2 SWAP1 PUSH2 0x5BD JUMP JUMPDEST POP POP JUMP JUMPDEST PUSH1 0x2 SLOAD DUP2 JUMP JUMPDEST PUSH1 0x1 SLOAD DUP2 JUMP JUMPDEST PUSH1 0x0 SLOAD TIMESTAMP LT ISZERO PUSH2 0x2D6 JUMPI PUSH1 0x40 MLOAD PUSH32 0x8C379A000000000000000000000000000000000000000000000000000000000 DUP2 MSTORE PUSH1 0x4 ADD PUSH2 0x2CD SWAP1 PUSH2 0x948 JUMP JUMPDEST PUSH1 0x40 MLOAD DUP1 SWAP2 SUB SWAP1 REVERT JUMPDEST PUSH1 0x1 SLOAD TIMESTAMP GT ISZERO PUSH2 0x31B JUMPI PUSH1 0x40 MLOAD PUSH32 0x8C379A000000000000000000000000000000000000000000000000000000000 DUP2 MSTORE PUSH1 0x4 ADD PUSH2 0x312 SWAP1 PUSH2 0x908 JUMP JUMPDEST PUSH1 0x40 MLOAD DUP1 SWAP2 SUB SWAP1 REVERT JUMPDEST PUSH1 0x2 SLOAD SELFBALANCE GT ISZERO PUSH2 0x360 JUMPI PUSH1 0x40 MLOAD PUSH32 0x8C379A000000000000000000000000000000000000000000000000000000000 DUP2 MSTORE PUSH1 0x4 ADD PUSH2 0x357 SWAP1 PUSH2 0x8E8 JUMP JUMPDEST PUSH1 0x40 MLOAD DUP1 SWAP2 SUB SWAP1 REVERT JUMPDEST PUSH2 0x369 CALLER PUSH2 0x50E JUMP JUMPDEST PUSH2 0x3A8 JUMPI PUSH1 0x40 MLOAD PUSH32 0x8C379A000000000000000000000000000000000000000000000000000000000 DUP2 MSTORE PUSH1 0x4 ADD PUSH2 0x39F SWAP1 PUSH2 0x928 JUMP JUMPDEST PUSH1 0x40 MLOAD DUP1 SWAP2 SUB SWAP1 REVERT JUMPDEST PUSH1 0x4 PUSH1 0x0 SWAP1 SLOAD SWAP1 PUSH2 0x100 EXP SWAP1 DIV PUSH20 0xFFFFFFFFFFFFFFFFFFFFFFFFFFFFFFFFFFFFFFFF AND PUSH20 0xFFFFFFFFFFFFFFFFFFFFFFFFFFFFFFFFFFFFFFFF AND SELFDESTRUCT JUMPDEST PUSH1 0x0 SLOAD DUP2 JUMP JUMPDEST PUSH1 0x3 DUP2 DUP2 SLOAD DUP2 LT PUSH2 0x3F9 JUMPI PUSH1 0x0 DUP1 REVERT JUMPDEST SWAP1 PUSH1 0x0 MSTORE PUSH1 0x20 PUSH1 0x0 KECCAK256 ADD PUSH1 0x0 SWAP2 POP SLOAD SWAP1 PUSH2 0x100 EXP SWAP1 DIV PUSH20 0xFFFFFFFFFFFFFFFFFFFFFFFFFFFFFFFFFFFFFFFF AND DUP2 JUMP JUMPDEST PUSH1 0x4 PUSH1 0x0 SWAP1 SLOAD SWAP1 PUSH2 0x100 EXP SWAP1 DIV PUSH20 0xFFFFFFFFFFFFFFFFFFFFFFFFFFFFFFFFFFFFFFFF AND DUP2 JUMP JUMPDEST PUSH1 0x4 PUSH1 0x0 SWAP1 SLOAD SWAP1 PUSH2 0x100 EXP SWAP1 DIV PUSH20 0xFFFFFFFFFFFFFFFFFFFFFFFFFFFFFFFFFFFFFFFF AND PUSH20 0xFFFFFFFFFFFFFFFFFFFFFFFFFFFFFFFFFFFFFFFF AND CALLER PUSH20 0xFFFFFFFFFFFFFFFFFFFFFFFFFFFFFFFFFFFFFFFF AND EQ PUSH2 0x4DE JUMPI PUSH1 0x40 MLOAD PUSH32 0x8C379A000000000000000000000000000000000000000000000000000000000 DUP2 MSTORE PUSH1 0x4 ADD PUSH2 0x4D5 SWAP1 PUSH2 0x928 JUMP JUMPDEST PUSH1 0x40 MLOAD DUP1 SWAP2 SUB SWAP1 REVERT JUMPDEST DUP1 PUSH1 0x2 DUP2 SWAP1 SSTORE POP POP JUMP JUMPDEST PUSH1 0x5 PUSH1 0x0 SWAP1 SLOAD SWAP1 PUSH2 0x100 EXP SWAP1 DIV PUSH20 0xFFFFFFFFFFFFFFFFFFFFFFFFFFFFFFFFFFFFFFFF AND DUP2 JUMP JUMPDEST PUSH1 0x0 DUP1 PUSH1 0x0 SWAP1 POP JUMPDEST PUSH1 0x3 DUP1 SLOAD SWAP1 POP DUP2 LT ISZERO PUSH2 0x5B2 JUMPI DUP3 PUSH20 0xFFFFFFFFFFFFFFFFFFFFFFFFFFFFFFFFFFFFFFFF AND PUSH1 0x3 DUP3 DUP2 SLOAD DUP2 LT PUSH2 0x54E JUMPI PUSH2 0x54D PUSH2 0xB0C JUMP JUMPDEST JUMPDEST SWAP1 PUSH1 0x0 MSTORE PUSH1 0x20 PUSH1 0x0 KECCAK256 ADD PUSH1 0x0 SWAP1 SLOAD SWAP1 PUSH2 0x100 EXP SWAP1 DIV PUSH20 0xFFFFFFFFFFFFFFFFFFFFFFFFFFFFFFFFFFFFFFFF AND PUSH20 0xFFFFFFFFFFFFFFFFFFFFFFFFFFFFFFFFFFFFFFFF AND EQ ISZERO PUSH2 0x59F JUMPI PUSH1 0x1 SWAP2 POP POP PUSH2 0x5B8 JUMP JUMPDEST DUP1 DUP1 PUSH2 0x5AA SWAP1 PUSH2 0xA94 JUMP JUMPDEST SWAP2 POP POP PUSH2 0x516 JUMP JUMPDEST POP PUSH1 0x0 SWAP1 POP JUMPDEST SWAP2 SWAP1 POP JUMP JUMPDEST DUP3 DUP1 SLOAD DUP3 DUP3 SSTORE SWAP1 PUSH1 0x0 MSTORE PUSH1 0x20 PUSH1 0x0 KECCAK256 SWAP1 DUP2 ADD SWAP3 DUP3 ISZERO PUSH2 0x636 JUMPI SWAP2 PUSH1 0x20 MUL DUP3 ADD JUMPDEST DUP3 DUP2 GT ISZERO PUSH2 0x635 JUMPI DUP3 MLOAD DUP3 PUSH1 0x0 PUSH2 0x100 EXP DUP2 SLOAD DUP2 PUSH20 0xFFFFFFFFFFFFFFFFFFFFFFFFFFFFFFFFFFFFFFFF MUL NOT AND SWAP1 DUP4 PUSH20 0xFFFFFFFFFFFFFFFFFFFFFFFFFFFFFFFFFFFFFFFF AND MUL OR SWAP1 SSTORE POP SWAP2 PUSH1 0x20 ADD SWAP2 SWAP1 PUSH1 0x1 ADD SWAP1 PUSH2 0x5DD JUMP JUMPDEST JUMPDEST POP SWAP1 POP PUSH2 0x643 SWAP2 SWAP1 PUSH2 0x647 JUMP JUMPDEST POP SWAP1 JUMP JUMPDEST JUMPDEST DUP1 DUP3 GT ISZERO PUSH2 0x660 JUMPI PUSH1 0x0 DUP2 PUSH1 0x0 SWAP1 SSTORE POP PUSH1 0x1 ADD PUSH2 0x648 JUMP JUMPDEST POP SWAP1 JUMP JUMPDEST PUSH1 0x0 PUSH2 0x677 PUSH2 0x672 DUP5 PUSH2 0x9A8 JUMP JUMPDEST PUSH2 0x983 JUMP JUMPDEST SWAP1 POP DUP1 DUP4 DUP3 MSTORE PUSH1 0x20 DUP3 ADD SWAP1 POP DUP3 DUP6 PUSH1 0x20 DUP7 MUL DUP3 ADD GT ISZERO PUSH2 0x69A JUMPI PUSH2 0x699 PUSH2 0xB6F JUMP JUMPDEST JUMPDEST PUSH1 0x0 JUMPDEST DUP6 DUP2 LT ISZERO PUSH2 0x6CA JUMPI DUP2 PUSH2 0x6B0 DUP9 DUP3 PUSH2 0x6D4 JUMP JUMPDEST DUP5 MSTORE PUSH1 0x20 DUP5 ADD SWAP4 POP PUSH1 0x20 DUP4 ADD SWAP3 POP POP PUSH1 0x1 DUP2 ADD SWAP1 POP PUSH2 0x69D JUMP JUMPDEST POP POP POP SWAP4 SWAP3 POP POP POP JUMP JUMPDEST PUSH1 0x0 DUP2 CALLDATALOAD SWAP1 POP PUSH2 0x6E3 DUP2 PUSH2 0xC33 JUMP JUMPDEST SWAP3 SWAP2 POP POP JUMP JUMPDEST PUSH1 0x0 DUP3 PUSH1 0x1F DUP4 ADD SLT PUSH2 0x6FE JUMPI PUSH2 0x6FD PUSH2 0xB6A JUMP JUMPDEST JUMPDEST DUP2 CALLDATALOAD PUSH2 0x70E DUP5 DUP3 PUSH1 0x20 DUP7 ADD PUSH2 0x664 JUMP JUMPDEST SWAP2 POP POP SWAP3 SWAP2 POP POP JUMP JUMPDEST PUSH1 0x0 DUP2 CALLDATALOAD SWAP1 POP PUSH2 0x726 DUP2 PUSH2 0xC4A JUMP JUMPDEST SWAP3 SWAP2 POP POP JUMP JUMPDEST PUSH1 0x0 PUSH1 0x20 DUP3 DUP5 SUB SLT ISZERO PUSH2 0x742 JUMPI PUSH2 0x741 PUSH2 0xB79 JUMP JUMPDEST JUMPDEST PUSH1 0x0 PUSH2 0x750 DUP5 DUP3 DUP6 ADD PUSH2 0x6D4 JUMP JUMPDEST SWAP2 POP POP SWAP3 SWAP2 POP POP JUMP JUMPDEST PUSH1 0x0 PUSH1 0x20 DUP3 DUP5 SUB SLT ISZERO PUSH2 0x76F JUMPI PUSH2 0x76E PUSH2 0xB79 JUMP JUMPDEST JUMPDEST PUSH1 0x0 DUP3 ADD CALLDATALOAD PUSH8 0xFFFFFFFFFFFFFFFF DUP2 GT ISZERO PUSH2 0x78D JUMPI PUSH2 0x78C PUSH2 0xB74 JUMP JUMPDEST JUMPDEST PUSH2 0x799 DUP5 DUP3 DUP6 ADD PUSH2 0x6E9 JUMP JUMPDEST SWAP2 POP POP SWAP3 SWAP2 POP POP JUMP JUMPDEST PUSH1 0x0 PUSH1 0x20 DUP3 DUP5 SUB SLT ISZERO PUSH2 0x7B8 JUMPI PUSH2 0x7B7 PUSH2 0xB79 JUMP JUMPDEST JUMPDEST PUSH1 0x0 PUSH2 0x7C6 DUP5 DUP3 DUP6 ADD PUSH2 0x717 JUMP JUMPDEST SWAP2 POP POP SWAP3 SWAP2 POP POP JUMP JUMPDEST PUSH2 0x7D8 DUP2 PUSH2 0x9E5 JUMP JUMPDEST DUP3 MSTORE POP POP JUMP JUMPDEST PUSH2 0x7E7 DUP2 PUSH2 0x9F7 JUMP JUMPDEST DUP3 MSTORE POP POP JUMP JUMPDEST PUSH2 0x7F6 DUP2 PUSH2 0xA2D JUMP JUMPDEST DUP3 MSTORE POP POP JUMP JUMPDEST PUSH1 0x0 PUSH2 0x809 PUSH1 0x10 DUP4 PUSH2 0x9D4 JUMP JUMPDEST SWAP2 POP PUSH2 0x814 DUP3 PUSH2 0xB8F JUMP JUMPDEST PUSH1 0x20 DUP3 ADD SWAP1 POP SWAP2 SWAP1 POP JUMP JUMPDEST PUSH1 0x0 PUSH2 0x82C PUSH1 0x12 DUP4 PUSH2 0x9D4 JUMP JUMPDEST SWAP2 POP PUSH2 0x837 DUP3 PUSH2 0xBB8 JUMP JUMPDEST PUSH1 0x20 DUP3 ADD SWAP1 POP SWAP2 SWAP1 POP JUMP JUMPDEST PUSH1 0x0 PUSH2 0x84F PUSH1 0x13 DUP4 PUSH2 0x9D4 JUMP JUMPDEST SWAP2 POP PUSH2 0x85A DUP3 PUSH2 0xBE1 JUMP JUMPDEST PUSH1 0x20 DUP3 ADD SWAP1 POP SWAP2 SWAP1 POP JUMP JUMPDEST PUSH1 0x0 PUSH2 0x872 PUSH1 0x14 DUP4 PUSH2 0x9D4 JUMP JUMPDEST SWAP2 POP PUSH2 0x87D DUP3 PUSH2 0xC0A JUMP JUMPDEST PUSH1 0x20 DUP3 ADD SWAP1 POP SWAP2 SWAP1 POP JUMP JUMPDEST PUSH2 0x891 DUP2 PUSH2 0xA23 JUMP JUMPDEST DUP3 MSTORE POP POP JUMP JUMPDEST PUSH1 0x0 PUSH1 0x20 DUP3 ADD SWAP1 POP PUSH2 0x8AC PUSH1 0x0 DUP4 ADD DUP5 PUSH2 0x7CF JUMP JUMPDEST SWAP3 SWAP2 POP POP JUMP JUMPDEST PUSH1 0x0 PUSH1 0x20 DUP3 ADD SWAP1 POP PUSH2 0x8C7 PUSH1 0x0 DUP4 ADD DUP5 PUSH2 0x7DE JUMP JUMPDEST SWAP3 SWAP2 POP POP JUMP JUMPDEST PUSH1 0x0 PUSH1 0x20 DUP3 ADD SWAP1 POP PUSH2 0x8E2 PUSH1 0x0 DUP4 ADD DUP5 PUSH2 0x7ED JUMP JUMPDEST SWAP3 SWAP2 POP POP JUMP JUMPDEST PUSH1 0x0 PUSH1 0x20 DUP3 ADD SWAP1 POP DUP2 DUP2 SUB PUSH1 0x0 DUP4 ADD MSTORE PUSH2 0x901 DUP2 PUSH2 0x7FC JUMP JUMPDEST SWAP1 POP SWAP2 SWAP1 POP JUMP JUMPDEST PUSH1 0x0 PUSH1 0x20 DUP3 ADD SWAP1 POP DUP2 DUP2 SUB PUSH1 0x0 DUP4 ADD MSTORE PUSH2 0x921 DUP2 PUSH2 0x81F JUMP JUMPDEST SWAP1 POP SWAP2 SWAP1 POP JUMP JUMPDEST PUSH1 0x0 PUSH1 0x20 DUP3 ADD SWAP1 POP DUP2 DUP2 SUB PUSH1 0x0 DUP4 ADD MSTORE PUSH2 0x941 DUP2 PUSH2 0x842 JUMP JUMPDEST SWAP1 POP SWAP2 SWAP1 POP JUMP JUMPDEST PUSH1 0x0 PUSH1 0x20 DUP3 ADD SWAP1 POP DUP2 DUP2 SUB PUSH1 0x0 DUP4 ADD MSTORE PUSH2 0x961 DUP2 PUSH2 0x865 JUMP JUMPDEST SWAP1 POP SWAP2 SWAP1 POP JUMP JUMPDEST PUSH1 0x0 PUSH1 0x20 DUP3 ADD SWAP1 POP PUSH2 0x97D PUSH1 0x0 DUP4 ADD DUP5 PUSH2 0x888 JUMP JUMPDEST SWAP3 SWAP2 POP POP JUMP JUMPDEST PUSH1 0x0 PUSH2 0x98D PUSH2 0x99E JUMP JUMPDEST SWAP1 POP PUSH2 0x999 DUP3 DUP3 PUSH2 0xA63 JUMP JUMPDEST SWAP2 SWAP1 POP JUMP JUMPDEST PUSH1 0x0 PUSH1 0x40 MLOAD SWAP1 POP SWAP1 JUMP JUMPDEST PUSH1 0x0 PUSH8 0xFFFFFFFFFFFFFFFF DUP3 GT ISZERO PUSH2 0x9C3 JUMPI PUSH2 0x9C2 PUSH2 0xB3B JUMP JUMPDEST JUMPDEST PUSH1 0x20 DUP3 MUL SWAP1 POP PUSH1 0x20 DUP2 ADD SWAP1 POP SWAP2 SWAP1 POP JUMP JUMPDEST PUSH1 0x0 DUP3 DUP3 MSTORE PUSH1 0x20 DUP3 ADD SWAP1 POP SWAP3 SWAP2 POP POP JUMP JUMPDEST PUSH1 0x0 PUSH2 0x9F0 DUP3 PUSH2 0xA03 JUMP JUMPDEST SWAP1 POP SWAP2 SWAP1 POP JUMP JUMPDEST PUSH1 0x0 DUP2 ISZERO ISZERO SWAP1 POP SWAP2 SWAP1 POP JUMP JUMPDEST PUSH1 0x0 PUSH20 0xFFFFFFFFFFFFFFFFFFFFFFFFFFFFFFFFFFFFFFFF DUP3 AND SWAP1 POP SWAP2 SWAP1 POP JUMP JUMPDEST PUSH1 0x0 DUP2 SWAP1 POP SWAP2 SWAP1 POP JUMP JUMPDEST PUSH1 0x0 PUSH2 0xA38 DUP3 PUSH2 0xA3F JUMP JUMPDEST SWAP1 POP SWAP2 SWAP1 POP JUMP JUMPDEST PUSH1 0x0 PUSH2 0xA4A DUP3 PUSH2 0xA51 JUMP JUMPDEST SWAP1 POP SWAP2 SWAP1 POP JUMP JUMPDEST PUSH1 0x0 PUSH2 0xA5C DUP3 PUSH2 0xA03 JUMP JUMPDEST SWAP1 POP SWAP2 SWAP1 POP JUMP JUMPDEST PUSH2 0xA6C DUP3 PUSH2 0xB7E JUMP JUMPDEST DUP2 ADD DUP2 DUP2 LT PUSH8 0xFFFFFFFFFFFFFFFF DUP3 GT OR ISZERO PUSH2 0xA8B JUMPI PUSH2 0xA8A PUSH2 0xB3B JUMP JUMPDEST JUMPDEST DUP1 PUSH1 0x40 MSTORE POP POP POP JUMP JUMPDEST PUSH1 0x0 PUSH2 0xA9F DUP3 PUSH2 0xA23 JUMP JUMPDEST SWAP2 POP PUSH32 0xFFFFFFFFFFFFFFFFFFFFFFFFFFFFFFFFFFFFFFFFFFFFFFFFFFFFFFFFFFFFFFFF DUP3 EQ ISZERO PUSH2 0xAD2 JUMPI PUSH2 0xAD1 PUSH2 0xADD JUMP JUMPDEST JUMPDEST PUSH1 0x1 DUP3 ADD SWAP1 POP SWAP2 SWAP1 POP JUMP JUMPDEST PUSH32 0x4E487B7100000000000000000000000000000000000000000000000000000000 PUSH1 0x0 MSTORE PUSH1 0x11 PUSH1 0x4 MSTORE PUSH1 0x24 PUSH1 0x0 REVERT JUMPDEST PUSH32 0x4E487B7100000000000000000000000000000000000000000000000000000000 PUSH1 0x0 MSTORE PUSH1 0x32 PUSH1 0x4 MSTORE PUSH1 0x24 PUSH1 0x0 REVERT JUMPDEST PUSH32 0x4E487B7100000000000000000000000000000000000000000000000000000000 PUSH1 0x0 MSTORE PUSH1 0x41 PUSH1 0x4 MSTORE PUSH1 0x24 PUSH1 0x0 REVERT JUMPDEST PUSH1 0x0 DUP1 REVERT JUMPDEST PUSH1 0x0 DUP1 REVERT JUMPDEST PUSH1 0x0 DUP1 REVERT JUMPDEST PUSH1 0x0 DUP1 REVERT JUMPDEST PUSH1 0x0 PUSH1 0x1F NOT PUSH1 0x1F DUP4 ADD AND SWAP1 POP SWAP2 SWAP1 POP JUMP JUMPDEST PUSH32 0x49444F3A20636170207265616368656400000000000000000000000000000000 PUSH1 0x0 DUP3 ADD MSTORE POP JUMP JUMPDEST PUSH32 0x49444F3A20616C726561647920656E6465640000000000000000000000000000 PUSH1 0x0 DUP3 ADD MSTORE POP JUMP JUMPDEST PUSH32 0x49444F3A206E6F7420617574686F72697A656400000000000000000000000000 PUSH1 0x0 DUP3 ADD MSTORE POP JUMP JUMPDEST PUSH32 0x49444F3A206E6F74207374617274656420796574000000000000000000000000 PUSH1 0x0 DUP3 ADD MSTORE POP JUMP JUMPDEST PUSH2 0xC3C DUP2 PUSH2 0x9E5 JUMP JUMPDEST DUP2 EQ PUSH2 0xC47 JUMPI PUSH1 0x0 DUP1 REVERT JUMPDEST POP JUMP JUMPDEST PUSH2 0xC53 DUP2 PUSH2 0xA23 JUMP JUMPDEST DUP2 EQ PUSH2 0xC5E JUMPI PUSH1 0x0 DUP1 REVERT JUMPDEST POP JUMP INVALID LOG2 PUSH5 0x6970667358 0x22 SLT KECCAK256 CHAINID 0x2E 0x2C 0xE7 NOT 0xB1 0xA5 REVERT 0xEC LOG2 0xE SDIV SLOAD 0xDC INVALID 0xEE PUSH16 0xBE6395764EB57AAABCBE3D47BF165F64 PUSH20 0x6F6C634300080700330000000000000000000000 "
				},
				"gasEstimates": {
					"creation": {
						"codeDepositCost": "644600",
						"executionCost": "infinite",
						"totalCost": "infinite"
					},
					"external": {
						"cap()": "2452",
						"createIDO()": "infinite",
						"endDateTime()": "2474",
						"isAuthorized(address)": "infinite",
						"owner()": "2536",
						"router()": "2666",
						"startDateTime()": "2518",
						"updateCap(uint256)": "24734",
						"updateWhitelist(address[])": "infinite",
						"whitelist(uint256)": "4956"
					}
				},
				"methodIdentifiers": {
					"cap()": "355274ea",
					"createIDO()": "6ad25869",
					"endDateTime()": "3c9177cd",
					"isAuthorized(address)": "fe9fbb80",
					"owner()": "8da5cb5b",
					"router()": "f887ea40",
					"startDateTime()": "775f75df",
					"updateCap(uint256)": "a7d68896",
					"updateWhitelist(address[])": "35377214",
					"whitelist(uint256)": "7ebd1b30"
				}
			},
			"storageLayout": {
				"storage": [
					{
						"astId": 400,
						"contract": "contracts/ido.sol:IDO",
						"label": "startDateTime",
						"offset": 0,
						"slot": "0",
						"type": "t_uint256"
					},
					{
						"astId": 402,
						"contract": "contracts/ido.sol:IDO",
						"label": "endDateTime",
						"offset": 0,
						"slot": "1",
						"type": "t_uint256"
					},
					{
						"astId": 404,
						"contract": "contracts/ido.sol:IDO",
						"label": "cap",
						"offset": 0,
						"slot": "2",
						"type": "t_uint256"
					},
					{
						"astId": 407,
						"contract": "contracts/ido.sol:IDO",
						"label": "whitelist",
						"offset": 0,
						"slot": "3",
						"type": "t_array(t_address)dyn_storage"
					},
					{
						"astId": 409,
						"contract": "contracts/ido.sol:IDO",
						"label": "owner",
						"offset": 0,
						"slot": "4",
						"type": "t_address"
					},
					{
						"astId": 412,
						"contract": "contracts/ido.sol:IDO",
						"label": "router",
						"offset": 0,
						"slot": "5",
						"type": "t_contract(IUniswapV2Router02)395"
					}
				],
				"types": {
					"t_address": {
						"encoding": "inplace",
						"label": "address",
						"numberOfBytes": "20"
					},
					"t_array(t_address)dyn_storage": {
						"base": "t_address",
						"encoding": "dynamic_array",
						"label": "address[]",
						"numberOfBytes": "32"
					},
					"t_contract(IUniswapV2Router02)395": {
						"encoding": "inplace",
						"label": "contract IUniswapV2Router02",
						"numberOfBytes": "20"
					},
					"t_uint256": {
						"encoding": "inplace",
						"label": "uint256",
						"numberOfBytes": "32"
					}
				}
			},
			"userdoc": {
				"kind": "user",
				"methods": {},
				"version": 1
			}
		}
	}
}